:100000000C9468080C9490080C9490080C94900838
:100010000C9490080C9490080C9490080C94900800
:100020000C9490080C9490080C9490080C949008F0
:100030000C9490080C9490080C9490080C949008E0
:100040000C9490080C9490080C9490080C9449100F
:100050000C94900805A84CCDB2D44EB93836A902FC
:100060000C50B9918688083CA6AAAA2ABE000000B6
:10007000803F1010205F0000000000000000000022
:100080000000000000000000000000000000000070
:100090000000000000000000000007000F800F803B
:1000A0000F800F800F80070007000000000007008E
:1000B00007000700000000000E380E380E380E381A
:1000C00006300000000000000000000000000000FA
:1000D00000000000000000000C300C300C307FFEEF
:1000E0007FFE0C300C300C300C307FFE7FFE0C306D
:1000F0000C300C3000000000024002400FF81FF8E6
:100100001A401A401FF00FF8025802581FF81FF04B
:100110000240024000000000000000000E100E30FF
:100120000E7000E001C0038007000E700C700870B4
:10013000000000000000000000000F00198019807E
:1001400019800F000F080F9819F818F018E019F02F
:100150000F980000000000000000070007000700E3
:100160000E00000000000000000000000000000081
:100170000000000000000000000000F001C003804B
:1001800007000E000E000E000E000700038001C0E5
:1001900000F000000000000000000F00038001C01C
:1001A00000E0007000700070007000E001C003808B
:1001B0000F0000000000000000000180118809907D
:1001C00007E007E03FFC3FFC07E007E009901188EB
:1001D000018000000000000000000000000001801D
:1001E000018001800FF00FF001800180018000008C
:1001F00000000000000000000000000000000000FF
:1002000000000000000000000000000007000700E0
:1002100007000E00000000000000000000000000C9
:10022000000000001FF81FF80000000000000000A0
:1002300000000000000000000000000000000000BE
:1002400000000000000000000000000007000700A0
:100250000700000000000000000000020006000E81
:10026000001C0038007000E001C0038007000E0091
:100270001C0000000000000000000FF01C381C787B
:100280001CF81CF81DB81DB81F381F381E381C3844
:100290000FF00000000000000000018001800380DA
:1002A0001F801F80038003800380038003800380FE
:1002B0001FF000000000000000000FE01C701C3860
:1002C0000038007000E001C0038007000E381C38C1
:1002D0001FF800000000000000000FE01C701C3838
:1002E0000038007003C003C0007000381C381C7058
:1002F0000FE0000000000000000000E001E003E06B
:1003000006E00CE018E01FF81FF800E000E000E055
:1003100003F800000000000000001FF81C001C0093
:100320001C001C001FE01FF0007800381C381C70F7
:100330000FE0000000000000000003E007000E00D6
:100340001C001C001FF01FF81C381C381C381C38FF
:100350000FF000000000000000001FFC1C1C1C1C13
:100360001C1C001C0038007000E001C003800380EA
:10037000038000000000000000000FF01C381C3853
:100380001C381F3807E007E01CF81C381C381C38E4
:100390000FF000000000000000000FF01C381C38B7
:1003A0001C381C381FF80FF800380038007000E0C7
:1003B00007C00000000000000000000000000380F3
:1003C000038003800000000003800380038000009E
:1003D000000000000000000000000000000003809A
:1003E0000380038000000000038003800380070077
:1003F0000000000000000000007000E001C0038069
:1004000007000E001C001C000E000700038001C046
:1004100000E000700000000000000000000000008C
:100420003FFC3FFC000000003FFC3FFC00000000E0
:1004300000000000000000001C000E000700038008
:1004400001C000E00070007000E001C00380070000
:100450000E001C000000000003C00FF01E781838CA
:100460000038007000E001C001C00000000001C0C1
:1004700001C001C0000000000FF81C1C1C1C1C1C4B
:100480001C1C1CFC1CFC1CFC1CFC1C001C001C0080
:100490001FF007F800000000000003C007E00E7026
:1004A0001C381C381C381C381FF81C381C381C38E9
:1004B0001C3800000000000000001FF00E380E384D
:1004C0000E380E380FF00FF00E380E380E380E388A
:1004D0001FF0000000000000000007F00E381C387C
:1004E0001C001C001C001C001C001C001C380E38CA
:1004F00007F000000000000000001FE00E700E3842
:100500000E380E380E380E380E380E380E380E7083
:100510001FE000000000000000001FF80E180E0889
:100520000E000E300FF00FF00E300E000E080E18F9
:100530001FF800000000000000001FF80E180E0851
:100540000E000E300FF00FF00E300E000E000E00F9
:100550001F00000000000000000007F00E381C38EB
:100560001C381C001C001C001CF81C381C380E38E1
:1005700007F800000000000000001C701C701C70D8
:100580001C701C701FF01FF01C701C701C701C7005
:100590001C7000000000000000000FE003800380DA
:1005A0000380038003800380038003800380038033
:1005B0000FE0000000000000000001FC007000706F
:1005C00000700070007000703870387038703870CB
:1005D0000FE000000000000000001E380E380E7012
:1005E0000EE00FC00F800F800FC00EE00E700E38AF
:1005F0001E3800000000000000001F000E000E006A
:100600000E000E000E000E000E000E080E180E3822
:100610001FF800000000000000001C1C1E3C1F7C96
:100620001FFC1FFC1DDC1C9C1C1C1C1C1C1C1C1C03
:100630001C1C00000000000000001C1C1C1C1E1CD8
:100640001F1C1F9C1DDC1CFC1C7C1C3C1C1C1C1C43
:100650001C1C000000000000000003E007F00E3842
:100660001C1C1C1C1C1C1C1C1C1C1C1C0E3807F0FD
:1006700003E000000000000000001FF00E380E38FC
:100680000E380E380FF00FF00E000E000E000E00A8
:100690001F00000000000000000003E00F780E388B
:1006A0001C1C1C1C1C1C1C1C1C7C1CFC0FF80FF8AC
:1006B000003800FC0000000000001FF00E380E386B
:1006C0000E380E380FF00FF00E700E380E380E3850
:1006D0001E3800000000000000000FF01C381C381D
:1006E0001C381C000FE007F000381C381C381C3880
:1006F0000FF000000000000000001FFC19CC11C426
:1007000001C001C001C001C001C001C001C001C0E1
:1007100007F000000000000000001C701C701C703E
:100720001C701C701C701C701C701C701C701C7069
:100730000FE000000000000000001C701C701C7026
:100740001C701C701C701C701C701C700EE007C0AC
:10075000038000000000000000001C1C1C1C1C1C6E
:100760001C1C1C1C1C9C1C9C1C9C0FF80FF807706C
:10077000077000000000000000001C701C701C705E
:100780000EE007C00380038007C00EE01C701C70E1
:100790001C7000000000000000001C701C701C7029
:1007A0001C701C700EE007C0038003800380038070
:1007B0000FE000000000000000001FF81C3818388F
:1007C000107000E001C0038007000E081C181C38E0
:1007D0001FF8000000000000000007F007000700FD
:1007E00007000700070007000700070007000700D1
:1007F00007F00000000000000000100018001C00BE
:100800000E000700038001C000E000700038001CEB
:100810000007000000000000000007F000700070FA
:100820000070007000700070007000700070007048
:1008300007F0000000000000018003C007E00E7018
:100840001C38000000000000000000000000000054
:100850000000000000000000000000000000000098
:100860000000000000000000000000000000000088
:1008700000007FFF7FFF000000001C001C0007003D
:100880000700000000000000000000000000000061
:100890000000000000000000000000000000000058
:1008A00000000FE0007000700FF01C701C701C70D6
:1008B0000FD800000000000000001E000E000E0017
:1008C0000E000FF00E380E380E380E380E380E3877
:1008D0001BF000000000000000000000000000000D
:1008E00000000FE01C701C701C001C001C701C70B1
:1008F0000FE0000000000000000000F80070007031
:1009000000700FF01C701C701C701C701C701C7030
:100910000FD80000000000000000000000000000F0
:1009200000000FE01C701C701FF01C001C701C707D
:100930000FE0000000000000000003E007700770F7
:10094000070007001FE01FE007000700070007007F
:100950001FC00000000000000000000000000000B8
:1009600000000FD81C701C701C701C700FF007F07A
:1009700000701C700FE0000000001E000E000E0052
:100980000E000EF00F380F380E380E380E380E38B5
:100990001E38000000000000000001C001C001C0BE
:1009A00000000FC001C001C001C001C001C001C0F2
:1009B0000FF80000000000000000007000700070E0
:1009C000000003F000700070007000700070007094
:1009D0001C700CF007E0000000001E000E000E006E
:1009E0000E000E380E700EE00FC00EE00E700E38C6
:1009F0001E3800000000000000000FC001C001C050
:100A000001C001C001C001C001C001C001C001C0DE
:100A10000FF80000000000000000000000000000CF
:100A200000001FF81C9C1C9C1C9C1C9C1C9C1C9C5F
:100A30001C9C0000000000000000000000000000FE
:100A400000001FE01C701C701C701C701C701C705F
:100A50001C7000000000000000000000000000000A
:100A600000000FE01C701C701C701C701C701C704F
:100A70000FE0000000000000000000000000000087
:100A800000001BF00E380E380E380E380E380FF0FE
:100A90000E000E001F00000000000000000000001B
:100AA00000001FB038E038E038E038E038E01FE000
:100AB00000E000E001F00000000000000000000085
:100AC00000001EF00FF80F380E000E000E000E0092
:100AD0001F000000000000000000000000000000F7
:100AE00000000FE01C301C300F8003E018701870FD
:100AF0000FE0000000000000000000000100030003
:100B000007001FF0070007000700070007700770C5
:100B100003E00000000000000000000000000000F2
:100B200000001C701C701C701C701C701C701C70F1
:100B30000FD80000000000000000000000000000CE
:100B400000001C701C701C701C701C700EE007C034
:100B50000380000000000000000000000000000012
:100B600000001C1C1C1C1C1C1C9C1C9C0FF80770EF
:100B700007700000000000000000000000000000FE
:100B800000001CE01CE00FC0078007800FC01CE0C5
:100B90001CE0000000000000000000000000000059
:100BA00000000E380E380E380E380E3807F003E00D
:100BB00000E001C01F8000000000000000000000F5
:100BC00000001FE018E011C0038007000E201C6029
:100BD0001FE0000000000000000001F80380038017
:100BE000038007001C001C000700038003800380B3
:100BF00001F800000000000001C001C001C001C0F8
:100C000001C001C001C001C001C001C001C001C0DC
:100C100001C001C00000000000001F8001C001C031
:100C200001C000E00038003800E001C001C001C090
:100C30001F8000000000000000001F1C3B9C39DCEE
:100C400038F8000000000000000000000000000074
:100C5000000000000000080C205F00000000000001
:100C600000000000000000002020202020200020A4
:100C700000000028505000000000000000000000AC
:100C80002828FC2850FC50500000002078A8A060C4
:100C90003028A8F02000000048A8B050283454485C
:100CA0000000000020505078A8A8906C0000004080
:100CB0004080000000000000000000040810101038
:100CC0001010100804000040201010101010102008
:100CD000400000000020A87070A820000000000064
:100CE000202020F82020200000000000000000004C
:100CF0000000004040800000000000F800000000FC
:100D0000000000000000000000000040000000089B
:100D1000101010202040404080000000708888881B
:100D2000888888700000000020602020202020702B
:100D30000000000070888810204080F8000000004B
:100D4000708808300808887000000000103050508B
:100D50009078101800000000F88080F00808887073
:100D600000000000709080F088888870000000000B
:100D7000F89010202020202000000000708888704B
:100D8000888888700000000070888888780848701B
:100D90000000000000002000000000200000000013
:100DA0000000002000000020200000040810204067
:100DB00020100804000000000000F80000F8000007
:100DC000000000402010080408102040000000002F
:100DD000708888102020002000000000708898A8EB
:100DE000A8B880780000000020203050507848CC0F
:100DF00000000000F0484870484848F0000000003B
:100E0000788880808080887000000000F048484822
:100E1000484848F000000000F8485070504048F83A
:100E200000000000F8485070504040E00000000012
:100E3000384880809C88483000000000CC484878C2
:100E4000484848CC00000000F8202020202020F84E
:100E5000000000007C10101010101090E000000046
:100E6000EC485060505048EC00000000E04040402A
:100E7000404044FC00000000D8D8D8D8A8A8A8A8B2
:100E800000000000DC486868585848E8000000008E
:100E9000708888888888887000000000F048487052
:100EA000404040E0000000007088888888E8987022
:100EB00018000000F0484870504848EC000000005E
:100EC00078888060100888F000000000F8A82020D2
:100ED0002020207000000000CC4848484848483096
:100EE00000000000CC484850503020200000000096
:100EF000A8A8A8705050505000000000D8505020B2
:100F0000205050D800000000D850502020202070E1
:100F100000000000F8901020204048F80000003841
:100F20002020202020202020380000404040202089
:100F30001010100800000070101010101010101089
:100F400070000020500000000000000000000000C1
:100F5000000000000000000000FC00200000000075
:100F60000000000000000000000000304838483C4D
:100F700000000000C0404070484848700000000079
:100F800000000038484040380000000018080838C9
:100F90004848483C000000000000003048784038D5
:100FA000000000001C202078202020780000000095
:100FB0000000003C4830407844380000C040407099
:100FC000484848EC0000000020000060202020700D
:100FD00000000000100000301010101010E00000A1
:100FE000C040405C507048EC00000000E020202031
:100FF000202020F800000000000000F0A8A8A8A809
:1010000000000000000000F0484848EC000000002C
:10101000000000304848483000000000000000F0A8
:101020004848487040E00000000000384848483810
:10103000081C0000000000D8604040E000000000F4
:101040000000007840300878000000000020207088
:101050002020201800000000000000D84848483C2C
:1010600000000000000000EC4850302000000000AC
:10107000000000A8A870505000000000000000D838
:10108000502050D800000000000000EC48503020F4
:1010900020C0000000000078102020780000001818
:1010A0001010102010101010180010101010101038
:1010B0001010101010100060202020102020202080
:1010C000600040A418000000000000000000D811DB
:1010D00011241FBECFE5D4E0DEBFCDBF13E0A0E6F4
:1010E000B0E0ECEFFBE302C005900D92AE33B10728
:1010F000D9F723E0AEE3B3E001C01D92A13CB207F3
:10110000E1F718E0C8E6D8E004C02197FE010E948C
:10111000F61DC736D107C9F70E9468100C94FC1D54
:101120000C940000A5B3BA2F6894A7F9E894B7F916
:10113000FB01059007FA1EF44BBB52BB02C02BBB50
:1011400032BBB5BBA5BB06FA1EF44BBB52BB02C0FB
:101150002BBB32BBB5BBA5BB05FA1EF44BBB52BBC8
:1011600002C02BBB32BBB5BBA5BB04FA1EF44BBB04
:1011700052BB02C02BBB32BBB5BBA5BB03FA1EF4EE
:101180004BBB52BB02C02BBB32BBB5BBA5BB02FAEB
:101190001EF44BBB52BB02C02BBB32BBB5BBA5BBC5
:1011A00001FA1EF44BBB52BB02C02BBB32BBB5BB1A
:1011B000A5BB00FA1EF44BBB52BB02C02BBB32BB1B
:1011C000B5BBA5BB815090408030910511F00C94C7
:1011D00099080895A5B3BA2F6894A7F9E894B7F9C8
:1011E000FB01059002BA05900BBAB5BBA5BB8150B7
:1011F00090408030910511F00C94F1080895A5B34A
:10120000BA2F6894A7F9E894B7F9FC011124259145
:101210002030A9F027FB56F42F77059002BA0590ED
:101220000BBAB5BBA5BB2A95E1F7F1CF059002BA81
:1012300005900BBAB5BBA5BB2A95C1F7E8CF002432
:1012400008952227869577956795279576956795D2
:101250002795769567952795769567952795229595
:10126000CB01E5B3FE2F6894E7F9E894F7F900970E
:1012700011F1F5BBE5BBF5BBE5BBF5BBE5BBF5BBCC
:10128000E5BBF5BBE5BBF5BBE5BBF5BBE5BBF5BB1E
:10129000E5BBF5BBE5BBF5BBE5BBF5BBE5BBF5BB0E
:1012A000E5BBF5BBE5BBF5BBE5BBF5BBE5BBF5BBFE
:1012B000E5BB0197F1F6203021F0F5BBE5BB2A959F
:1012C000E1F70895AF98AF9A615070408040904028
:1012D000C9F70895AE9811248BBB12BAAF98AF9A94
:1012E0000895AE9A6BBB82BBAF98AF9A0895AE9A41
:1012F00011248BBB12BAAF98AF9A0895AE981124FF
:101300008BBB12BAAF98AF9AAE9A6BBB72BBAF9859
:10131000AF9A089582BB6BBBAF98AF9A0895CF93F5
:10132000E5B3FE2F6894E7F9E894F7F98BBB92BB1D
:10133000D601B695A7950F5F1F4F02C02F5F3F4F95
:101340002017310781F1F5BBE5BBAE0DBF1DAC1514
:10135000BD05A0F3AC19BD096F5F7F4F2F5F3F4FF5
:10136000AE98C0E0C2BBCEE4CBBBAF98AF9AAE9A0A
:1013700072BB6BBBAF98AF9AAE98C0E0C2BBCFE474
:10138000CBBBAF98AF9AAE9A32BB2BBBAF98AF9A9C
:10139000AE98C0E0C2BBC2E2CBBBAF98AF9AAE9AE8
:1013A0008BBB92BBCDCFCF910895CF93E5B3FE2FEA
:1013B0006894E7F9E894F7F98BBB92BBD601B69530
:1013C000A7950150104002C021503040201731072E
:1013D00081F1F5BBE5BBAE0DBF1DAC15BD05A0F39E
:1013E000AC19BD096F5F7F4F21503040AE98C0E00F
:1013F000C2BBCEE4CBBBAF98AF9AAE9A72BB6BBB0D
:10140000AF98AF9AAE98C0E0C2BBCFE4CBBBAF9869
:10141000AF9AAE9A32BB2BBBAF98AF9AAE98C0E0F2
:10142000C2BBC2E2CBBBAF98AF9AAE9A8BBB92BBAA
:10143000CDCFCF910895CF93E5B3FE2F6894E7F910
:10144000E894F7F98BBB92BBD601B695A7950F5FD1
:101450001F4F02C02F5F3F4F2017310781F1F5BBAF
:10146000E5BBAE0DBF1DAC15BD05A0F3AC19BD09A4
:10147000615070402F5F3F4FAE98C0E0C2BBCEE4DA
:10148000CBBBAF98AF9AAE9A72BB6BBBAF98AF9A1B
:10149000AE98C0E0C2BBCFE4CBBBAF98AF9AAE9AD8
:1014A00032BB2BBBAF98AF9AAE98C0E0C2BBC2E2D2
:1014B000CBBBAF98AF9AAE9A8BBB92BBCDCFCF913F
:1014C0000895CF93E5B3FE2F6894E7F9E894F7F910
:1014D0008BBB92BBD601B695A7950150104002C0B8
:1014E000215030402017310781F1F5BBE5BBAE0D2F
:1014F000BF1DAC15BD05A0F3AC19BD09615070400E
:1015000021503040AE98C0E0C2BBCEE4CBBBAF9818
:10151000AF9AAE9A72BB6BBBAF98AF9AAE98C0E071
:10152000C2BBCFE4CBBBAF98AF9AAE9A32BB2BBB5A
:10153000AF98AF9AAE98C0E0C2BBC2E2CBBBAF9847
:10154000AF9AAE9A8BBB92BBCDCFCF910895CF937C
:10155000E5B3FE2F6894E7F9E894F7F98BBB92BBEB
:10156000D701B695A7954F5F5F4F02C06F5F7F4F62
:101570006417750781F1F5BBE5BBAC0DBD1DAE155C
:10158000BF05A0F3AE19BF096F5F7F4F2F5F3F4FBD
:10159000AE98C0E0C2BBCEE4CBBBAF98AF9AAE9AD8
:1015A00072BB6BBBAF98AF9AAE98C0E0C2BBCFE442
:1015B000CBBBAF98AF9AAE9A32BB2BBBAF98AF9A6A
:1015C000AE98C0E0C2BBC2E2CBBBAF98AF9AAE9AB6
:1015D0008BBB92BBCDCFCF910895CF93E5B3FE2FB8
:1015E0006894E7F9E894F7F98BBB92BBD701B695FD
:1015F000A7954F5F5F4F02C06F5F7F4F64177507FE
:1016000081F1F5BBE5BBAC0DBD1DAE15BF05A0F36B
:10161000AE19BF096F5F7F4F21503040AE98C0E0D8
:10162000C2BBCEE4CBBBAF98AF9AAE9A72BB6BBBDA
:10163000AF98AF9AAE98C0E0C2BBCFE4CBBBAF9837
:10164000AF9AAE9A32BB2BBBAF98AF9AAE98C0E0C0
:10165000C2BBC2E2CBBBAF98AF9AAE9A8BBB92BB78
:10166000CDCFCF910895CF93E5B3FE2F6894E7F9DE
:10167000E894F7F98BBB92BBD701B695A79541507B
:10168000504002C0615070406417750781F1F5BB8E
:10169000E5BBAC0DBD1DAE15BF05A0F3AE19BF096E
:1016A000615070402F5F3F4FAE98C0E0C2BBCEE4A8
:1016B000CBBBAF98AF9AAE9A72BB6BBBAF98AF9AE9
:1016C000AE98C0E0C2BBCFE4CBBBAF98AF9AAE9AA6
:1016D00032BB2BBBAF98AF9AAE98C0E0C2BBC2E2A0
:1016E000CBBBAF98AF9AAE9A8BBB92BBCDCFCF910D
:1016F0000895CF93E5B3FE2F6894E7F9E894F7F9DE
:101700008BBB92BBD701B695A7954150504002C004
:10171000615070406417750781F1F5BBE5BBAC0DF6
:10172000BD1DAE15BF05A0F3AE19BF0961507040D5
:1017300021503040AE98C0E0C2BBCEE4CBBBAF98E6
:10174000AF9AAE9A72BB6BBBAF98AF9AAE98C0E03F
:10175000C2BBCFE4CBBBAF98AF9AAE9A32BB2BBB28
:10176000AF98AF9AAE98C0E0C2BBC2E2CBBBAF9815
:10177000AF9AAE9A8BBB92BBCDCFCF910895019714
:1017800009F00FC16F3F7F4F09F00BC18EEA93E064
:101790000E94EC12EEE3F3E081E690E09183808317
:1017A00084E890E0938382838BE890E09583848340
:1017B00082E990E09783868389E990E0918780872A
:1017C00024E0228781EA90E0948783878FEB90E082
:1017D000968785878AEC90E0908B878780ED90E0F4
:1017E000928B818B85ED90E0948B838B83E0858B4E
:1017F0008DED90E0978B868B8DEF90E0918F808FB1
:1018000083E091E0938F828F89E091E0958F848FC0
:101810008FE091E0978F868F82E080A346E151E0D0
:1018200052A341A345E351E054A343A34BE351E04A
:1018300056A345A343E451E050A747A349E451E030
:1018400052A741A791E093A741E551E055A744A7CE
:101850004DE851E057A746A741E951E051AB40ABF5
:1018600045E951E053AB42AB49E951E055AB44ABDC
:1018700096AB4EE951E050AF47AB41ED51E052AF6E
:1018800041AF46ED51E054AF43AF4BED51E056AFA1
:1018900045AF40EE51E050937E0340937D0380932B
:1018A0007F0345EE51E050938103409380034EE067
:1018B00052E0509383034093820343E152E05093FC
:1018C00085034093840348E152E05093870340939B
:1018D00086034DE152E0509389034093880380933F
:1018E0008A0342E252E050938C0340938B034FE40F
:1018F00051E050938E0340938D0341E552E05093A5
:10190000900340938F0344E552E050939203409339
:10191000910347E451E05093940340939303209341
:10192000950327E532E030939703209396032FE742
:1019300032E0309399032093980324E832E0309307
:101940009B0320939A032BE832E030939D0320936E
:101950009C0320E932E030939F0320939E03809301
:10196000A00327E932E03093A2032093A1032DEADC
:1019700032E03093A4032093A30325EB32E03093AD
:10198000A6032093A5032DEB32E03093A803209308
:10199000A70324EC32E03093AA032093A903909389
:1019A000AB0308950F931F938EEA93E00E944613B2
:1019B00062E770E08EEA93E00E94801B2CEC40E02E
:1019C00060E08EEA93E00E94B8132CEC40E060E007
:1019D0008EEA93E00E94F0138091AD03853001F50B
:1019E0000FE010E02EE630E047E350E06BEC72E0F1
:1019F0008EEA93E00E94E3192CE830E04EE650E0D6
:101A000069ED72E08EEA93E00E94E3192FEF8FEF09
:101A10009CE2215080409040E1F700C0000035C0BA
:101A20008A30C1F400E010E02EE630E040E550E0FE
:101A300060EE72E08EEA93E00E9408191092AD0306
:101A40002FEF8FEF9CE2215080409040E1F700C0E3
:101A500000001BC081110DC000E010E02EE630E058
:101A600044E650E06AEE72E08EEA93E00E940819C4
:101A70000CC000E010E02EE630E04EE650E06CEEE8
:101A800072E08EEA93E00E94081966E57CE08EEA37
:101A900093E00E94801B2FEF8FE796E1215080405A
:101AA0009040E1F700C000008EEA93E00E944613E8
:101AB0001F910F9108950F931F9320E04FEF66EF52
:101AC0008EEA93E00E94CD136091AD036630E0F0A2
:101AD0008DEC689F812D112486958695982F990FFE
:101AE000990F890F681B82E3689FB00111249B0145
:101AF0002C5C3F4F6B5F7F4F0AED10E04BEE50E0E8
:101B00008EEA93E00E945E146091AD038DEC689FB5
:101B1000812D112486958695982F990F990F890FFD
:101B2000681B82E3689FB00111249B01285D3F4F31
:101B30006B5F7F4F0AED10E04BEE50E08EEA93E0D2
:101B40000E945E142CEC40E060E08EEA93E00E947C
:101B5000CD131F910F9108950F931F93CF93C82F0B
:101B600006E410E02BE331E046E450E060E070E092
:101B70008EEA93E00E942D1502ED10E026E930E098
:101B800046E450E066E970E08EEA93E00E942D158D
:101B900006E910E02BE331E046E950E060E070E058
:101BA0008EEA93E00E942D1502ED10E02BE331E068
:101BB00042ED50E060E070E08EEA93E00E942D1567
:101BC00020E04FEF66EF8EEA93E00E94CD1362E7CC
:101BD00070E08EEA93E00E94801BCC2309F46BC076
:101BE000E091AD038BE0E89FF0011124E25CFC4F33
:101BF00082858130B9F400E010E024E630E04AE06C
:101C000050E062EF72E08EEA93E00E9408192AEA3F
:101C100030E040EA50E065EF72E08EEA93E00E9427
:101C2000081973C08230B9F400E010E024E630E017
:101C30004AE050E068EF72E08EEA93E00E940819F3
:101C40002AEA30E040EA50E065EF72E08EEA93E085
:101C50000E9408195AC08330B9F400E010E024E66D
:101C600030E040EA50E06BEF72E08EEA93E00E94D1
:101C7000081924E630E04AE050E062EF72E08EEAB4
:101C800093E00E94081941C000E010E024E630E033
:101C900040EA50E06BEF72E08EEA93E00E94081990
:101CA0002AEA30E040EA50E065EF72E08EEA93E025
:101CB0000E9408192AC000E010E024E630E04AE063
:101CC00050E062EF72E08EEA93E00E94081924E689
:101CD00030E040EA50E06BEF72E08EEA93E00E9461
:101CE00008192AEA30E04AE050E068EF72E08EEA34
:101CF00093E00E9408192AEA30E040EA50E065EFDC
:101D000072E08EEA93E00E9408192FEF4FEF6FEF19
:101D10008EEA93E00E94CD1366E57CE08EEA93E0C4
:101D20000E94801BCF911F910F910895AF92CF9287
:101D3000DF92EF92FF920F931F93CF93DF93CDB774
:101D4000DEB72B970FB6F894DEBF0FBECDBFE9828A
:101D5000FA820B831C832D833E834F8358876987C8
:101D60007A878B8769817A8107E210E020E030E092
:101D700042E050E08EEA93E00E94E319AA2009F4C1
:101D800066C081E0F60180838B858130B9F46B8178
:101D90007C810AE010E024E630E042E350E08EEA85
:101DA00093E00E94E31969857A852AEA30E048ECDD
:101DB00050E08EEA93E00E94E31973C08230B9F4D8
:101DC0006D817E810AE010E024E630E048EC50E0CE
:101DD0008EEA93E00E94E3196F8178852AEA30E069
:101DE00048EC50E08EEA93E00E94E3195AC0833039
:101DF000B9F46F8178850AE010E02AEA30E042E326
:101E000050E08EEA93E00E94E3196B817C8124E626
:101E100030E042E350E08EEA93E00E94E31941C0D3
:101E20006D817E810AE010E024E630E048EC50E06D
:101E30008EEA93E00E94E31969857A852AEA30E008
:101E400048EC50E08EEA93E00E94E3192AC06B81CF
:101E50007C810AE010E024E630E042E350E08EEAC4
:101E600093E00E94E3196D817E8124E630E048EC26
:101E700050E08EEA93E00E94E3196F8178852AEAA8
:101E800030E042E350E08EEA93E00E94E319698576
:101E90007A852AEA30E048EC50E08EEA93E00E942E
:101EA000E3192B960FB6F894DEBF0FBECDBFDF91BE
:101EB000CF911F910F91FF90EF90DF90CF90AF9057
:101EC00008950F931F93CF938091AD03853058F5FC
:101ED000C0E0C53008F04DC08C2F90E022E3289F71
:101EE000A001299F500D1124465F5F4FBC01660F72
:101EF000771F680F791F660F771F6F5F7C4F00E0B9
:101F000010E02DED30E08EEA93E00E94081921EEFA
:101F100030E048E151E06EEF72E08EEA93E00E941B
:101F20000819CF5FD6CF8550853018F5C5E0CA3087
:101F300000F58C2F90E09C012550310962E3629FEF
:101F4000A001639F500D1124465F5F4FBC01660FD7
:101F5000771F680F791F660F771F6F5F7C4F00E058
:101F600010E02DED30E08EEA93E00E940819CF5F7B
:101F7000DECFCF911F910F9108958F929F92AF92D4
:101F8000BF92CF92DF92EF92FF920F931F93CF9366
:101F9000DF93CDB7DEB72B970FB6F894DEBF0FBE39
:101FA000CDBF4C01FC018081861331C08091AD030F
:101FB0008F5F8093AD030E94D20C2CEC40E060E078
:101FC0008EEA93E00E94B81380E00E94AC0DE0918D
:101FD000AD038BE0E89FF0011124E25CFC4FA12CE3
:101FE000C12CD12CE080F1800281138124813581C4
:101FF000468157816085718582850E94960E0E9478
:102000005B0DF401108284E1809360002FC0F50124
:1020100010821092AD030E94D20C2CEC40E060E0E4
:102020008EEA93E00E94B81380E00E94AC0DE0912C
:10203000AD038BE0E89FF0011124E25CFC4FA12C82
:10204000C12CD12CE080F180028113812481358163
:10205000468157816085718582850E94960E0E9417
:102060005B0DF401108284E1809360002B960FB623
:10207000F894DEBF0FBECDBFDF91CF911F910F91BE
:10208000FF90EF90DF90CF90BF90AF909F908F9098
:1020900008951F920F920FB60F9211248F93809183
:1020A000AC038F5F8093AC03843160F01092AC037B
:1020B00080916000815080936000811103C084E1B1
:1020C000809360008F910F900FBE0F901F90189516
:1020D000CF93DF9300D0CDB7DEB78FEF88BB17BAB1
:1020E00019821A828EEA93E00E94461361E08EEA1A
:1020F00093E00E94151466E57CE08EEA93E00E946E
:10210000801B2CEC40E060E08EEA93E00E94B81364
:102110002CEC40E060E08EEA93E00E94F013E09146
:10212000AD032BE0E29FF0011124E25CFC4FA12CF7
:10213000C12CD12CE080F180028113812481358172
:10214000468157816085718582850E94960E0E9426
:102150005B0D8DE083BF80EF8CBF82E089BF7894F8
:1021600080E00E94AC0D0E94610FB09B0AC0B19B41
:102170000AC0B29B0AC0B39B0AC0B4990AC080E0EF
:1021800009C080E007C080E005C080E003C080E0B7
:1021900001C081E0882399F16894EE24E5F803E01A
:1021A00010E02DE230E04CE850E0609160008EEAF3
:1021B00093E00E94BD1A809160008230E0F485E0D7
:1021C0008983E091AD038BE0E89FF0011124E25C8C
:1021D000FC4FCE0102965C01C080D180E280F3808A
:1021E000048115812681378140855185628501975B
:1021F0000E94BD0F04C080E00E94AC0DB6CFB09924
:1022000025C081E089839FEF2FEB86E0915020402D
:102210008040E1F700C00000E091AD039BE0E99F42
:10222000F0011124E25CFC4FCE0102965C01C080FB
:10223000D180E280F3800481158126813781408539
:102240005185628501970E94BD0FABC0B19925C031
:1022500082E089839FEF2FEB86E091502040804001
:10226000E1F700C00000E091AD039BE0E99FF001C1
:102270001124E25CFC4FCE0102965C01C080D1804B
:10228000E280F38004811581268137814085518564
:10229000628501970E94BD0F84C0B29925C083E07A
:1022A00089839FEF2FEB86E0915020408040E1F73B
:1022B00000C00000E091AD039BE0E99FF001112414
:1022C000E25CFC4FCE0102965C01C080D180E280CE
:1022D000F38004811581268137814085518562858F
:1022E00001970E94BD0F5DC0B39925C084E089832A
:1022F0009FEF2FEB86E0915020408040E1F700C037
:102300000000E091AD039BE0E99FF0011124E25C45
:10231000FC4FCE0102965C01C080D180E280F38048
:102320000481158126813781408551856285019719
:102330000E94BD0F36C0B49905C08A81882321F060
:1023400080E003C080E001C081E0882351F18EEA83
:1023500093E00E9446132CEC40E060E08EEA93E0AC
:102360000E94B8130E945B0D81E00E94AC0DE091C9
:10237000AD039BE0E99FF0011124E25CFC4FAA242D
:10238000A394CE0102966C01E080F180028113815A
:1023900024813581468157816085718582850E94BF
:1023A000960E62E770E08EEA93E00E94801BD8CE22
:1023B0006FEF7FEF81E090E00E94BF0B08958FEFF9
:1023C0008ABB81BB84B3806484BB84B3806884BBD4
:1023D00084B3826084BB87B3806287BB88B380622A
:1023E00088BB84B3816084BB85B3826085BB84B3C2
:1023F000826084BB85B3816085BB8FEF93E20197D8
:10240000F1F700C0000085B38E7F85BB8FEF9BE6A0
:102410000197F1F700C0000085B3816085BB8FEFA5
:102420009BE60197F1F700C0000085B38D7F85BB67
:1024300061E070E080E00E947E0964EA78EA83E06F
:102440000E947E0960E070E08CE00E947E096CE0F2
:1024500078E08DE00E947E0960E07BE28EE00E94E1
:102460007E0967EB70E08EE10E947E096FE37BE2FC
:1024700081E00E947E0960E076E082E00E947E09B1
:1024800060E070E080E10E947E0960E770E681E133
:102490000E947E0960E070E085E00E947E0960E0B5
:1024A00070E086E00E947E096CE17FEE86E10E948A
:1024B0007E0963E070E087E10E947E0963E372E0D9
:1024C00087E00E947E0960E070E08BE00E947E0958
:1024D00060E070E08FE00E947E0960E070E081E4DF
:1024E0000E947E0960E070E082E40E947E0960E064
:1024F00070E088E40E947E096FE371E089E40E9445
:102500007E0960E070E08AE40E947E0960E070E08D
:102510008BE40E947E0960E07FEE84E40E947E09E5
:1025200060E070E085E40E947E096FE371E086E47C
:102530000E947E0967E077E080E30E947E0964E004
:1025400072E081E30E947E0964E072E082E30E940F
:102550007E0962E075E083E30E947E0967E075E032
:1025600084E30E947E0964E072E085E30E947E09B4
:1025700064E072E086E30E947E0962E075E087E332
:102580000E947E0962E073E08AE30E947E0962E0B5
:1025900073E08BE30E947E0960E070E083E20E94BA
:1025A0007E0960E070E084E20E947E0960E070E8ED
:1025B00085E20E947E0960E070E08FE40E947E095F
:1025C00060E070E08EE40E947E0982E20E946A0967
:1025D00085B3826085BB08954FEE50E060E070E007
:1025E000FC0145835683678370874FE351E060E0C9
:1025F00070E041875287638774870E94DF110895D6
:10260000EF92FF920F931F93CF93DF93EB01E42E92
:10261000F52EFC014481413089F481859285A385A2
:10262000B485AC01461B570B821B930B202F312F17
:10263000042F152FCE2DDF2DE82EF92E322F222735
:10264000BE01620F731F84E40E947E096E2D7F2DF0
:1026500085E40E947E09602F712F86E40E947E0926
:10266000BE018EE40E947E096E2D7F2D8FE40E94B4
:102670007E0982E20E946A0985B3806485BBDF918E
:10268000CF911F910F91FF90EF90089585B38D7FAB
:1026900085BB60E07FEE84E40E947E0960E070E02C
:1026A00085E40E947E096FE371E086E40E947E0962
:1026B00060E070E08EE40E947E0960E070E08FE4EC
:1026C0000E947E0968E770E681E10E947E0982E24D
:1026D0000E946A0985B3806485BB1BBA12BA60E0A8
:1026E0007CE281E090E00E9421098FEF8BBB82BBEE
:1026F00085B38D7F85BB0895CF93DF93D62FC72FEA
:1027000085B38D7F85BB60E07FEE84E40E947E0907
:1027100060E070E085E40E947E096FE371E086E48A
:102720000E947E0960E070E08EE40E947E0960E015
:1027300070E08FE40E947E0968E770E681E10E9404
:102740007E0982E20E946A0985B3806485BBDBBB97
:10275000C2BB60E07CE281E090E00E9421098FEF43
:102760008BBB82BB85B3826085BBDF91CF9108951F
:10277000687F70E0762F66274C7F50E0440F551F2E
:10278000440F551F440F551F642B752B2695269516
:102790002695622B0E947C130895E42FF0E0F595B6
:1027A000E795F595E795F595E795F595E795F59511
:1027B000E795687FE62BDC01EC934C7150E0440F09
:1027C000551F440F551F440F551F30E03595279571
:1027D0003595279535952795422B11964C9308955D
:1027E000E42FF0E0F595E795F595E795F595E795F4
:1027F000F595E795F595E795687FE62BDC01129650
:10280000EC9312974C7150E0440F551F440F551F25
:10281000440F551F30E0359527953595279535950B
:102820002795422B13964C930895CF93DF93EC0199
:102830006C832FEF4FEF6FEF0E94CD1320E040E04D
:1028400060E0CE010E94F0131E861D86DF91CF91BD
:102850000895872F0E9471090895EF92FF920F93B8
:102860001F93CF93DF937C01E901DD232CF4620FEA
:10287000731FD195C195D10985B38D7F85BB9B0110
:102880002C0F3D1F8A01C7010E940013F7018081B0
:1028900082BB81818BBBBE01DD0F880B990B0E942F
:1028A00021098FEF8BBB82BB85B3826085BBDF9133
:1028B000CF911F910F91FF90EF9008952F923F922B
:1028C0004F925F926F927F928F929F92AF92BF9240
:1028D000CF92DF92EF92FF920F931F93CF93DF93EC
:1028E0005C016B014A012617370724F48D2D69011D
:1028F000262F382F081519052CF4982D892D4801FD
:10290000092F182F39016C187D0885E068167104AD
:102910000CF45FC07801E818F90885E0E816F104C6
:102920000CF457C0C0E0D0E0C701FF200CF40196C2
:10293000959587950196C817D9070CF04AC020973E
:1029400021F0C130D105D1F032C0230184E0481A12
:1029500051089201A4014C0F5D1F160182E0280E60
:10296000311CB101C5010E942D149201A8014C1B1C
:102970005D0BB101C5010E942D1429C0230182E025
:10298000481A51089201A4014C0F5D1F16018FEFE8
:10299000281A380AB101C5010E942D149201A8011C
:1029A0004C1B5D0BB101C5010E942D1410C0930199
:1029B000A4014C0F5D1FB601C5010E942D149301A7
:1029C000A8014C1B5D0BB601C5010E942D14219678
:1029D000ABCFDF91CF911F910F91FF90EF90DF90E0
:1029E000CF90BF90AF909F908F907F906F905F90AF
:1029F0004F903F902F900895EF92FF920F931F9367
:102A0000CF93DF937C01E901DD232CF4420F531FA8
:102A1000D195C195D10985B38D7F85BB8A010C0FF6
:102A20001D1F9B01C7010E940013F701808182BB1B
:102A300081818BBBBE01DD0F880B990B0E942109A0
:102A40008FEF8BBB82BB85B3826085BBDF91CF915B
:102A50001F910F91FF90EF9008952F923F924F9208
:102A60005F926F927F928F929F92AF92BF92CF921E
:102A7000DF92EF92FF920F931F93CF93DF933C016E
:102A80005B01EA0149014017510729F4261B370B66
:102A90000E942D1442C12617370731F49801241BD8
:102AA000350B0E94FC1439C1DC0114968C911497EB
:102AB000813079F419968D919D910D90BC91A02D46
:102AC0009C01261B370B8819990948018C015A0172
:102AD000E901C4018A199B097C0122F4EE24FF2438
:102AE000E81AF90AC8018C1B9D0B6C0122F4CC2456
:102AF000DD24C81AD90A85B38D7F85BB60E07FEEDF
:102B000084E40E947E0960E070E085E40E947E0912
:102B10006FE371E086E40E947E09B5018EE40E94B5
:102B20007E09BE018FE40E947E09EC14FD0408F0CA
:102B300079C0C017D107DCF5A814B904E4F468E73C
:102B400070E681E10E947E0982E20E946A0985B3F3
:102B5000806485BBD3011196EC9111978C9190E024
:102B6000982F88272C2F3D2FA4016A2D7B2D8E2B8B
:102B70000E948F09CFC068E770E681E10E947E095C
:102B800082E20E946A0985B3806485BBD3011196F5
:102B9000EC9111978C9190E0982F88272C2F3D2F46
:102BA000A4016A2D7B2D8E2B0E941B0AB3C0A81492
:102BB000B904E4F468E570E681E10E947E0982E2EE
:102BC0000E946A0985B3806485BBD3011196EC919C
:102BD00011978C9190E0982F88272C2F3D2FA401DE
:102BE0006A2D7B2D8E2B0E94D50994C068E570E676
:102BF00081E10E947E0982E20E946A0985B38064B5
:102C000085BBD3011196EC9111978C9190E0982F90
:102C100088272C2F3D2FA4016A2D7B2D8E2B0E94FF
:102C2000610A78C0C017D107DCF5A814B904E4F430
:102C300060E770E681E10E947E0982E20E946A09F3
:102C400085B3806485BBD3011196EC9111978C916B
:102C500090E0982F88272C2F3D2FA4016A2D7B2DE3
:102C60008E2B0E94A70A56C060E670E681E10E94A2
:102C70007E0982E20E946A0985B3806485BBD30124
:102C80001196EC9111978C9190E0982F88272C2F1A
:102C90003D2FA4016A2D7B2D8E2B0E94330B3AC051
:102CA000A814B904E4F460E570E681E10E947E09AD
:102CB00082E20E946A0985B3806485BBD3011196C4
:102CC000EC9111978C9190E0982F88272C2F3D2F15
:102CD000A4016A2D7B2D8E2B0E94ED0A1BC060E69D
:102CE00070E681E10E947E0982E20E946A0985B352
:102CF000806485BBD3011196EC9111978C9190E083
:102D0000982F88272C2F3D2FA4016A2D7B2D8E2BE9
:102D10000E94790B85B3826085BBDF91CF911F91B3
:102D20000F91FF90EF90DF90CF90BF90AF909F906A
:102D30008F907F906F905F904F903F902F9008956D
:102D4000AF92BF92CF92DF92EF92FF920F931F93B9
:102D5000CF93DF93EC017A01890185B38D7F85BB29
:102D60008C81811169C02989862F90E0821B91098D
:102D70004F85542F569556955695288930E0529F89
:102D8000B001539F700D1124869F6001879FD00C66
:102D9000969FD00C112484E0C80ED11CC701840F6B
:102DA000911D200F311F590141E0A41AB10860E0C4
:102DB00070E07FEF780F6E0D7F1D84E40E947E0926
:102DC000B80185E40E947E09B50186E40E947E096F
:102DD000B7018EE40E947E09B8018FE40E947E094B
:102DE00060E770E681E10E947E0982E20E946A0942
:102DF00085B3806485BB2A8130E0322F22278B8106
:102E0000282B488150E0542F44278981482B6D8519
:102E10007E856C0D7D1D88899F85899FC001112449
:102E200099230CF407969595879595958795959593
:102E300087950E9492086FC02989862F90E0821B97
:102E400091094F85542F569556955695288930E00F
:102E5000529FB001539F700D1124869F6001879F80
:102E6000D00C969FD00C112484E0C80ED11CC70151
:102E7000840F911D0197200F311F49855A856B855D
:102E80007C855A01AE18BF087A01E81AF90A60E099
:102E900070E07FEF720F600F711F84E40E947E0963
:102EA000B70185E40E947E09B50186E40E947E098F
:102EB000B8018EE40E947E09B5018FE40E947E096C
:102EC00068E570E681E10E947E0982E20E946A095B
:102ED00085B3806485BB2A8130E0322F22278B8125
:102EE000282B488150E0542F44278981482B6D8539
:102EF0007E856C0D7D1D88899F85899FC001112469
:102F000099230CF4079695958795959587959595B2
:102F100087950E94920885B3826085BBDF91CF912F
:102F20001F910F91FF90EF90DF90CF90BF90AF90E7
:102F300008952F923F924F925F926F927F928F925D
:102F40009F92AF92BF92CF92DF92EF92FF920F9338
:102F50001F93CF93DF93CDB7DEB76B970FB6F8947F
:102F6000DEBF0FBECDBF5C0169833A0149011F8BF3
:102F70000E8BB701FF0C880B990B0E94451C29E2B0
:102F80003CE54FE85CE30E94101D698B7A8B8B8BCC
:102F90009C8B85B38D7F85BBD50151968C91B98172
:102FA0002B2F30E0281B3109F50187858695869502
:102FB00086959089899FC0011124289FA001299F8F
:102FC000500D389F500D11249A012C5F3F4F398FBF
:102FD000288F1D8AD50150968C91BD89B81708F0AD
:102FE000FBC0412C512CF5018785869586958695E9
:102FF000282F30E0421653060CF0E4C00584F68515
:10300000E02D888D998D840D951DE80FF91F249072
:10301000312C3A8E2B8EFA8DF83008F0CFC02F2E3F
:10302000312CB201660F771F660F771F660F771F6F
:10303000620D731DD5011F962C91EE89FF892E9F7D
:10304000C0012F9F900D1124680F791F072E000CCF
:10305000880B990B0E94451C69837A838B839C8320
:1030600069897A898B899C890E94081C6D837E837B
:103070008F8398879B01AC0169817A818B819C81C8
:103080000E94101D6B017C01FD896F2F70E080E0B4
:1030900090E00E94451C69877A878B879C876989A5
:1030A0007A898B899C890E947D1D6D877E878F8799
:1030B000988B9B01AC0169857A858B859C850E94E4
:1030C000101D9B01AC01C701B6010E949B1B6B0147
:1030D0007C01B301072C000C880B990B0E94451C46
:1030E000A70196010E949C1B0E940D1C6B017C0194
:1030F00029853A854B855C856D817E818F81988598
:103100000E94101D6D837E838F8398872D853E8559
:103110004F85588969817A818B819C810E94101D1D
:103120009B01AC016D817E818F8198850E949C1BE3
:1031300069837A838B839C83B401092C000C880BF0
:10314000990B0E94451C29813A814B815C810E9428
:103150009C1B0E940D1C8B010F5F1F4F96012F5F60
:103160003F4FAB01B601C5010E94001327E030E0DC
:10317000221933094B8D842F90E002C095958795D5
:103180002A95E2F780FF0CC0D5016C9170E0762F94
:10319000662711968C91682BC5010E9429140AC0DC
:1031A000F501628170E0762F66278381682BC50167
:1031B0000E942914FA8DFF5FFA8F2DCF2FEF421A4C
:1031C000520A11CF488D598D480F511D598F488F84
:1031D0005D895F5F5D8BFECE85B3826085BB6B963C
:1031E0000FB6F894DEBF0FBECDBFDF91CF911F9118
:1031F0000F91FF90EF90DF90CF90BF90AF909F9096
:103200008F907F906F905F904F903F902F90089598
:103210002F923F924F925F926F927F928F929F92E6
:10322000AF92BF92CF92DF92EF92FF920F931F93D4
:10323000CF93DF93EC01FB015A0129016801DB0107
:103240000D900020E9F71197A61BB70B4D018C815B
:1032500081113EC04F30574281F44D815E816F81B4
:1032600078852F852A9FC0012B9F900D1124481B24
:10327000590B5A011FEFA11AB10A2EE0A21627E23C
:10328000B20609F061C04D815E816F8178854F5F24
:103290005F4F6F4F7F4F2F852A9FC0012B9F900D4F
:1032A0001124092E000CAA0BBB0B8A019B01081BE1
:1032B000190B2A0B3B0BB901A80122F44F5F5F4F9A
:1032C0006F4F7F4F75956795579547955A013CC04D
:1032D0004F30574281F449855A856B857C852F850F
:1032E0002A9FC0012B9F900D1124481B590B5A0196
:1032F0002FEFA21AB20A3EE0A31637E2B30621F579
:1033000049855A856B857C854F5F5F4F6F4F7F4F37
:103310002F852A9FC0012B9F900D1124092E000C90
:10332000AA0BBB0B8A019B01081B190B2A0B3B0B39
:10333000B901A80122F44F5F5F4F6F4F7F4F759522
:103340006795579547955A01612C712C681479043B
:103350003CF5C114D10499F48F85869DA001879D09
:10336000500D11244A0D5B1D1F011FEF211A310A58
:1033700060819201CE010E94A016F1010DC01F01D3
:103380002FEF221A320A6081760183019201A50192
:10339000CE010E949917F1013FEF631A730AD6CF4D
:1033A000DF91CF911F910F91FF90EF90DF90CF9021
:1033B000BF90AF909F908F907F906F905F904F9055
:1033C0003F902F9008957F928F929F92AF92BF92DD
:1033D000CF92DF92EF92FF920F931F93CF93DF93E1
:1033E0007C01FB015A01DB010D900020E9F71197E8
:1033F000A61BB70B4D01EC018C81811142C04F30EF
:10340000574289F4E7014D815E816F8178853F8560
:103410003A9FC0013B9F900D1124481B590B5A0144
:10342000DFEFAD1ABD0A8EE0A81687E2B80609F0F4
:1034300068C0E7014D815E816F8178854F5F5F4F86
:103440006F4F7F4F3F853A9FC0013B9F900D1124E6
:10345000092E000CAA0BBB0B5A016B01A81AB90A62
:10346000CA0ADB0AB601A50122F44F5F5F4F6F4F16
:103470007F4FDB01CA01B595A795979587955C01AC
:1034800040C04F30574289F4E70149855A856B8522
:103490007C853F853A9FC0013B9F900D1124481BBE
:1034A000590B5A01DFEFAD1ABD0A8EE0A81687E26C
:1034B000B80639F5E70149855A856B857C854F5FEC
:1034C0005F4F6F4F7F4F3F853A9FC0013B9F900DED
:1034D0001124092E000CAA0BBB0B5A016B01A81A70
:1034E000B90ACA0ADB0AB601A50122F44F5F5F4F91
:1034F0006F4F7F4FDB01CA01B595A79597958795CB
:103500005C01722EC0E0D0E0C815D90544F52097C3
:1035100059F0CE01B8010E94CE1D892B29F40F2E3F
:10352000FCE0CF2EF02D7C0C272D30E0CE01B80131
:103530000E94CE1DD7011F966C91689FA001699FC4
:10354000500D11244A0D5B1D6F01BFEFCB1ADB0A32
:103550006081C7010E94A0162196F601D5CFDF91A8
:10356000CF911F910F91FF90EF90DF90CF90BF9080
:10357000AF909F908F907F900895AF92BF92CF921F
:10358000DF92EF920F931F93CF93DF93CDB7DEB708
:1035900028970FB6F894DEBF0FBECDBF6C015A015D
:1035A000611129C00115110511F180E090E0A80119
:1035B00041505109841795074CF4E5E0F0E0EC0F19
:1035C000FD1FE80FF91FE0820196F1CFE5E0F0E082
:1035D000EC0FFD1FE80FF91F40E340830196E5E083
:1035E000F0E0EC0FFD1FE80FF91F108270C080E3C0
:1035F0008D831E826CC0E0E0F0E0662311F14DEC9B
:10360000649F412D1124469546954695440F842F7D
:10361000880F880F480F862F841B482FA1E0B0E049
:10362000AC0FBD1FAE0FBF1F80E3840F8C9331968C
:10363000862F90E0841B91096AE070E00E94CE1D05
:10364000DCCFA1E0B0E0AC0FBD1FAE0FBF1F1C92DE
:10365000E017F107ACF480E090E040E050E0B80102
:103660006E1B7F0B861797076CF4A5E0B0E0AC0FDC
:10367000BD1FA80FB91FEC924F5F5F4F0196EFCFB0
:1036800040E050E0CF0101979923C4F0BA01680FE0
:10369000791FDF01A81BB90B119701E010E00C0F97
:1036A0001D1FA00FB11FEC90A5E0B0E0AC0FBD1F37
:1036B0006A0F7B1FDB01EC920197E6CFE40FF51F49
:1036C00005E010E00C0F1D1FE00FF11F108200E05D
:1036D00010E0A501BE016B5F7F4FC6010E94081973
:1036E00028960FB6F894DEBF0FBECDBFDF91CF9105
:1036F0001F910F91EF90DF90CF90BF90AF90089502
:10370000DC011E967C936E931D97FB0184911F969E
:103710008C931F973196E4915096EC935097FB0150
:103720003296E4915196EC935197FB013396649154
:1037300052966C9308955058BB27AA270E94B31B3A
:103740000C94C21C0E94891C38F00E94901C20F02E
:1037500039F49F3F19F426F40C94861C0EF4E0957E
:10376000E7FB0C94801CE92F0E94E71C58F3BA1762
:10377000620773078407950720F079F4A6F50C9487
:10378000091D0EF4E0950B2EBA2FA02D0B01B901E7
:1037900090010C01CA01A0011124FF27591B99F0C7
:1037A000593F50F4503E68F11A16F040A22F232FD3
:1037B000342F4427585FF3CF469537952795A79523
:1037C000F0405395C9F77EF41F16BA0B620B730BCA
:1037D000840BBAF09150A1F0FF0FBB1F661F771F3B
:1037E000881FC2F70EC0BA0F621F731F841F48F4F0
:1037F000879577956795B795F7959E3F08F0B0CF79
:103800009395880F08F09927EE0F9795879508955F
:103810000E94991CE3950C94D31C0E94141C68947C
:10382000B1110C940A1D08950E94EF1C88F09F5757
:1038300098F0B92F9927B751B0F0E1F0660F771FD4
:10384000881F991F1AF0BA95C9F714C0B13091F0CA
:103850000E94091DB1E008950C94091D672F782F6F
:103860008827B85F39F0B93FCCF38695779567958F
:10387000B395D9F73EF490958095709561957F4FFB
:103880008F4F9F4F0895E89409C097FB3EF49095A1
:103890008095709561957F4F8F4F9F4F9923A9F029
:1038A000F92F96E9BB279395F695879577956795B8
:1038B000B795F111F8CFFAF4BB0F11F460FF1BC0FC
:1038C0006F5F7F4F8F4F9F4F16C0882311F096E98F
:1038D00011C0772321F09EE8872F762F05C066233D
:1038E00071F096E8862F70E060E02AF09A95660FF6
:1038F000771F881FDAF7880F9695879597F90895AF
:1039000097F99F6780E870E060E008959FEF80EC92
:10391000089500240A941616170618060906089535
:1039200000240A94121613061406050608950C9432
:10393000861C0E94EF1CD8F3E894E0E0BB279F5759
:10394000F0F02AED3FE049EC06C0EE0FBB0F661F1A
:10395000771F881F28F0B23A62077307840728F0A0
:10396000B25A620B730B840BE3959A9572F7803809
:1039700030F49A95BB0F661F771F881FD2F79048C7
:103980000C94871D092E0394000C11F4882352F027
:10399000BB0F40F4BF2B11F460FF04C06F5F7F4F7B
:1039A0008F4F9F4F0895EF93E0FF07C0A2EA2AEDE3
:1039B0003FE049EC5FEB0E94B31B0E94C21C0F90DA
:1039C000039401FC9058E4E5F0E00C94931D57FD3E
:1039D0009058440F551F59F05F3F71F04795880F7D
:1039E00097FB991F61F09F3F79F087950895121614
:1039F00013061406551FF2CF4695F1DF08C01616C0
:103A000017061806991FF1CF869571056105089470
:103A10000895E894BB2766277727CB0197F9089587
:103A20000E94231D0C94C21C0E94891C38F00E9425
:103A3000901C20F0952311F00C94801C0C94861C93
:103A400011240C940A1D0E94E71C70F3959FC1F38A
:103A5000950F50E0551F629FF001729FBB27F00D3C
:103A6000B11D639FAA27F00DB11DAA1F649F662791
:103A7000B00DA11D661F829F2227B00DA11D621FE0
:103A8000739FB00DA11D621F839FA00D611D221F9A
:103A9000749F3327A00D611D231F849F600D211D7E
:103AA000822F762F6A2F11249F5750409AF0F1F001
:103AB00088234AF0EE0FFF1FBB1F661F771F881F6A
:103AC00091505040A9F79E3F510580F00C94801C06
:103AD0000C940A1D5F3FE4F3983ED4F386957795E6
:103AE0006795B795F795E7959F5FC1F7FE2B880F10
:103AF000911D9695879597F908959F930E94991C1B
:103B00000F9007FCEE5F0C94D31C9F3F31F0915057
:103B100020F4879577956795B795880F911D9695B1
:103B2000879597F908959F938F937F936F93FF9352
:103B3000EF939B01AC010E94101DEF91FF910E9439
:103B4000A71D2F913F914F915F910C94101DDF9312
:103B5000CF931F930F93FF92EF92DF927B018C0123
:103B6000689406C0DA2EEF010E94231DFE01E8943E
:103B7000A5912591359145915591A6F3EF010E94AC
:103B8000B31BFE019701A801DA9469F7DF90EF906B
:103B9000FF900F911F91CF91DF91089597FB072E12
:103BA00016F4009407D077FD09D00E94E21D07FCAF
:103BB00005D03EF4909581959F4F0895709561953D
:103BC0007F4F0895AA1BBB1B51E107C0AA1FBB1F53
:103BD000A617B70710F0A61BB70B881F991F5A9599
:103BE000A9F780959095BC01CD010895EE0FFF1FB8
:0C3BF0000590F491E02D0994F894FFCFAB
:103BFC00144E616A7665636920706C616E65742021
:103C0C0073756E6365766F67207375737461766117
:103C1C00206A650053617475726E00506C75746F18
:103C2C006E0056656E657261004A757069746572D6
:103C3C000053746F206E696A6520656C656D656EE6
:103C4C007461726E61206E65706F676F6461005A8B
:103C5C00656D6C6A6F7472657300506F7A61720077
:103C6C00476C616400506F706C617661004B6F6CD7
:103C7C00696B6F206A65207361746920616B6F20BA
:103C8C006A652027506F20426F7461270031323AE9
:103C9C0030300031323A33300031333A3330003186
:103CAC00333A303020004B6F6A69206A6520747299
:103CBC00656E75746E692048544D4C207374616E3A
:103CCC00646172640048544D4C350048544D4C3579
:103CDC002E350048544D4C340048544D4C332E3343
:103CEC00004E61206B6F6A6F6A2068727661747324
:103CFC006B6F6A206E6F7663616E696369207365A2
:103D0C00206E616C617A6920736C696B61204D6106
:103D1C00726B61204D6172756C6963610035303076
:103D2C00003230300031303000313030300055202E
:103D3C006B6F6A6F6A206A6520676F64696E6920B1
:103D4C0054686520476F6466617468657220707290
:103D5C00766920707574206F626A61766C6A656E24
:103D6C0000313938320031393732003139373700C8
:103D7C0031393937004B616461206A65207A61649E
:103D8C006E6A69207075742068616A64756B206254
:103D9C00696F20707276616B20484E4C6100323036
:103DAC003030003230303500313939390032303072
:103DBC0037004B6F6C696B6F2069677261636120B0
:103DCC00696D612075206F6C696D70696A736B6FBA
:103DDC006D2074696D75207A616375726C696E679C
:103DEC00003130003131004B616B6F206A652073FC
:103DFC007265646E6A6520696D6520536972204135
:103E0C006C657861204665726775736F6E61004DE5
:103E1C00696C6500546F72626172004C6F72640061
:103E2C004272696C6C2000426569727574206A6517
:103E3C0020676C61766E692067726164004C656204
:103E4C00616E6F6E004261687261696E004B7577CE
:103E5C0061697400536972696A61004F534947552F
:103E6C0052414C49205354450031366B204B4E0087
:103E7C004D494C494A554E4153004E45544F434EC3
:103E8C004F00413A00443A00433A00423A002D3E7A
:103E9C0000313030000000353030000000326B0053
:103EAC00000000346B0000000031366B000000365F
:103EBC00346B0000003132356B00003235306B0052
:0E3ECC00003530306B0000313030306B0000BC
:00000001FF
