S015000050726F6A656B745572734370702E73726563D3
S11300000C942B060C9440060C9440060C94400669
S11300100C9440060C9440060C9440060C94400644
S11300200C9440060C9440060C9440060C94400634
S11300300C9440060C9440060C9440060C94400624
S11300400C9440060C9440060C9440060C94400614
S11300500C94400605A84CCDB2D44EB93836A9024A
S11300600C50B9918688083CA6AAAA2ABE000000B2
S1130070803F1010205F000000000000000000001E
S1130080000000000000000000000000000000006C
S11300900000000000000000000007000F800F8037
S11300A00F800F800F80070007000000000007008A
S11300B007000700000000000E380E380E380E3816
S11300C006300000000000000000000000000000F6
S11300D000000000000000000C300C300C307FFEEB
S11300E07FFE0C300C300C300C307FFE7FFE0C3069
S11300F00C300C3000000000024002400FF81FF8E2
S11301001A401A401FF00FF8025802581FF81FF047
S11301100240024000000000000000000E100E30FB
S11301200E7000E001C0038007000E700C700870B0
S1130130000000000000000000000F00198019807A
S113014019800F000F080F9819F818F018E019F02B
S11301500F980000000000000000070007000700DF
S11301600E0000000000000000000000000000007D
S11301700000000000000000000000F001C0038047
S113018007000E000E000E000E000700038001C0E1
S113019000F000000000000000000F00038001C018
S11301A000E0007000700070007000E001C0038087
S11301B00F00000000000000000001801188099079
S11301C007E007E03FFC3FFC07E007E009901188E7
S11301D00180000000000000000000000000018019
S11301E0018001800FF00FF0018001800180000088
S11301F000000000000000000000000000000000FB
S113020000000000000000000000000007000700DC
S113021007000E00000000000000000000000000C5
S1130220000000001FF81FF800000000000000009C
S113023000000000000000000000000000000000BA
S1130240000000000000000000000000070007009C
S11302500700000000000000000000020006000E7D
S1130260001C0038007000E001C0038007000E008D
S11302701C0000000000000000000FF01C381C7877
S11302801CF81CF81DB81DB81F381F381E381C3840
S11302900FF00000000000000000018001800380D6
S11302A01F801F80038003800380038003800380FA
S11302B01FF000000000000000000FE01C701C385C
S11302C00038007000E001C0038007000E381C38BD
S11302D01FF800000000000000000FE01C701C3834
S11302E00038007003C003C0007000381C381C7054
S11302F00FE0000000000000000000E001E003E067
S113030006E00CE018E01FF81FF800E000E000E051
S113031003F800000000000000001FF81C001C008F
S11303201C001C001FE01FF0007800381C381C70F3
S11303300FE0000000000000000003E007000E00D2
S11303401C001C001FF01FF81C381C381C381C38FB
S11303500FF000000000000000001FFC1C1C1C1C0F
S11303601C1C001C0038007000E001C003800380E6
S1130370038000000000000000000FF01C381C384F
S11303801C381F3807E007E01CF81C381C381C38E0
S11303900FF000000000000000000FF01C381C38B3
S11303A01C381C381FF80FF800380038007000E0C3
S11303B007C00000000000000000000000000380EF
S11303C0038003800000000003800380038000009A
S11303D00000000000000000000000000000038096
S11303E00380038000000000038003800380070073
S11303F00000000000000000007000E001C0038065
S113040007000E001C001C000E000700038001C042
S113041000E0007000000000000000000000000088
S11304203FFC3FFC000000003FFC3FFC00000000DC
S113043000000000000000001C000E000700038004
S113044001C000E00070007000E001C003800700FC
S11304500E001C000000000003C00FF01E781838C6
S11304600038007000E001C001C00000000001C0BD
S113047001C001C0000000000FF81C1C1C1C1C1C47
S11304801C1C1CFC1CFC1CFC1CFC1C001C001C007C
S11304901FF007F800000000000003C007E00E7022
S11304A01C381C381C381C381FF81C381C381C38E5
S11304B01C3800000000000000001FF00E380E3849
S11304C00E380E380FF00FF00E380E380E380E3886
S11304D01FF0000000000000000007F00E381C3878
S11304E01C001C001C001C001C001C001C380E38C6
S11304F007F000000000000000001FE00E700E383E
S11305000E380E380E380E380E380E380E380E707F
S11305101FE000000000000000001FF80E180E0885
S11305200E000E300FF00FF00E300E000E080E18F5
S11305301FF800000000000000001FF80E180E084D
S11305400E000E300FF00FF00E300E000E000E00F5
S11305501F00000000000000000007F00E381C38E7
S11305601C381C001C001C001CF81C381C380E38DD
S113057007F800000000000000001C701C701C70D4
S11305801C701C701FF01FF01C701C701C701C7001
S11305901C7000000000000000000FE003800380D6
S11305A0038003800380038003800380038003802F
S11305B00FE0000000000000000001FC007000706B
S11305C000700070007000703870387038703870C7
S11305D00FE000000000000000001E380E380E700E
S11305E00EE00FC00F800F800FC00EE00E700E38AB
S11305F01E3800000000000000001F000E000E0066
S11306000E000E000E000E000E000E080E180E381E
S11306101FF800000000000000001C1C1E3C1F7C92
S11306201FFC1FFC1DDC1C9C1C1C1C1C1C1C1C1CFF
S11306301C1C00000000000000001C1C1C1C1E1CD4
S11306401F1C1F9C1DDC1CFC1C7C1C3C1C1C1C1C3F
S11306501C1C000000000000000003E007F00E383E
S11306601C1C1C1C1C1C1C1C1C1C1C1C0E3807F0F9
S113067003E000000000000000001FF00E380E38F8
S11306800E380E380FF00FF00E000E000E000E00A4
S11306901F00000000000000000003E00F780E3887
S11306A01C1C1C1C1C1C1C1C1C7C1CFC0FF80FF8A8
S11306B0003800FC0000000000001FF00E380E3867
S11306C00E380E380FF00FF00E700E380E380E384C
S11306D01E3800000000000000000FF01C381C3819
S11306E01C381C000FE007F000381C381C381C387C
S11306F00FF000000000000000001FFC19CC11C422
S113070001C001C001C001C001C001C001C001C0DD
S113071007F000000000000000001C701C701C703A
S11307201C701C701C701C701C701C701C701C7065
S11307300FE000000000000000001C701C701C7022
S11307401C701C701C701C701C701C700EE007C0A8
S1130750038000000000000000001C1C1C1C1C1C6A
S11307601C1C1C1C1C9C1C9C1C9C0FF80FF8077068
S1130770077000000000000000001C701C701C705A
S11307800EE007C00380038007C00EE01C701C70DD
S11307901C7000000000000000001C701C701C7025
S11307A01C701C700EE007C003800380038003806C
S11307B00FE000000000000000001FF81C3818388B
S11307C0107000E001C0038007000E081C181C38DC
S11307D01FF8000000000000000007F007000700F9
S11307E007000700070007000700070007000700CD
S11307F007F00000000000000000100018001C00BA
S11308000E000700038001C000E000700038001CE7
S11308100007000000000000000007F000700070F6
S11308200070007000700070007000700070007044
S113083007F0000000000000018003C007E00E7014
S11308401C38000000000000000000000000000050
S11308500000000000000000000000000000000094
S11308600000000000000000000000000000000084
S113087000007FFF7FFF000000001C001C00070039
S1130880070000000000000000000000000000005D
S11308900000000000000000000000000000000054
S11308A000000FE0007000700FF01C701C701C70D2
S11308B00FD800000000000000001E000E000E0013
S11308C00E000FF00E380E380E380E380E380E3873
S11308D01BF0000000000000000000000000000009
S11308E000000FE01C701C701C001C001C701C70AD
S11308F00FE0000000000000000000F8007000702D
S113090000700FF01C701C701C701C701C701C702C
S11309100FD80000000000000000000000000000EC
S113092000000FE01C701C701FF01C001C701C7079
S11309300FE0000000000000000003E007700770F3
S1130940070007001FE01FE007000700070007007B
S11309501FC00000000000000000000000000000B4
S113096000000FD81C701C701C701C700FF007F076
S113097000701C700FE0000000001E000E000E004E
S11309800E000EF00F380F380E380E380E380E38B1
S11309901E38000000000000000001C001C001C0BA
S11309A000000FC001C001C001C001C001C001C0EE
S11309B00FF80000000000000000007000700070DC
S11309C0000003F000700070007000700070007090
S11309D01C700CF007E0000000001E000E000E006A
S11309E00E000E380E700EE00FC00EE00E700E38C2
S11309F01E3800000000000000000FC001C001C04C
S1130A0001C001C001C001C001C001C001C001C0DA
S1130A100FF80000000000000000000000000000CB
S1130A2000001FF81C9C1C9C1C9C1C9C1C9C1C9C5B
S1130A301C9C0000000000000000000000000000FA
S1130A4000001FE01C701C701C701C701C701C705B
S1130A501C70000000000000000000000000000006
S1130A6000000FE01C701C701C701C701C701C704B
S1130A700FE0000000000000000000000000000083
S1130A8000001BF00E380E380E380E380E380FF0FA
S1130A900E000E001F000000000000000000000017
S1130AA000001FB038E038E038E038E038E01FE0FC
S1130AB000E000E001F00000000000000000000081
S1130AC000001EF00FF80F380E000E000E000E008E
S1130AD01F000000000000000000000000000000F3
S1130AE000000FE01C301C300F8003E018701870F9
S1130AF00FE00000000000000000000001000300FF
S1130B0007001FF0070007000700070007700770C1
S1130B1003E00000000000000000000000000000EE
S1130B2000001C701C701C701C701C701C701C70ED
S1130B300FD80000000000000000000000000000CA
S1130B4000001C701C701C701C701C700EE007C030
S1130B50038000000000000000000000000000000E
S1130B6000001C1C1C1C1C1C1C9C1C9C0FF80770EB
S1130B7007700000000000000000000000000000FA
S1130B8000001CE01CE00FC0078007800FC01CE0C1
S1130B901CE0000000000000000000000000000055
S1130BA000000E380E380E380E380E3807F003E009
S1130BB000E001C01F8000000000000000000000F1
S1130BC000001FE018E011C0038007000E201C6025
S1130BD01FE0000000000000000001F80380038013
S1130BE0038007001C001C000700038003800380AF
S1130BF001F800000000000001C001C001C001C0F4
S1130C0001C001C001C001C001C001C001C001C0D8
S1130C1001C001C00000000000001F8001C001C02D
S1130C2001C000E00038003800E001C001C001C08C
S1130C301F8000000000000000001F1C3B9C39DCEA
S1130C4038F8000000000000000000000000000070
S1130C5000000000000011241FBECFE5D4E0DEBF79
S1130C60CDBF10E0A0E6B0E0E2EFFDE102C00590E8
S1130C700D92AE36B107D9F70E943F070C94F70ED8
S1130C800C940000A5B3BA2F6894A7F9E894B7F9B7
S1130C90FB01059007FA1EF44BBB52BB02C02BBBF1
S1130CA032BBB5BBA5BB06FA1EF44BBB52BB02C09C
S1130CB02BBB32BBB5BBA5BB05FA1EF44BBB52BB69
S1130CC002C02BBB32BBB5BBA5BB04FA1EF44BBBA5
S1130CD052BB02C02BBB32BBB5BBA5BB03FA1EF48F
S1130CE04BBB52BB02C02BBB32BBB5BBA5BB02FA8C
S1130CF01EF44BBB52BB02C02BBB32BBB5BBA5BB66
S1130D0001FA1EF44BBB52BB02C02BBB32BBB5BBBA
S1130D10A5BB00FA1EF44BBB52BB02C02BBB32BBBB
S1130D20B5BBA5BB815090408030910511F00C9467
S1130D3049060895A5B3BA2F6894A7F9E894B7F9BA
S1130D40FB01059002BA05900BBAB5BBA5BB815057
S1130D5090408030910511F00C94A1060895A5B33C
S1130D60BA2F6894A7F9E894B7F9FC0111242591E6
S1130D702030A9F027FB56F42F77059002BA05908E
S1130D800BBAB5BBA5BB2A95E1F7F1CF059002BA22
S1130D9005900BBAB5BBA5BB2A95C1F7E8CF0024D3
S1130DA00895222786957795679527957695679573
S1130DB02795769567952795769567952795229536
S1130DC0CB01E5B3FE2F6894E7F9E894F7F90097AF
S1130DD011F1F5BBE5BBF5BBE5BBF5BBE5BBF5BB6D
S1130DE0E5BBF5BBE5BBF5BBE5BBF5BBE5BBF5BBBF
S1130DF0E5BBF5BBE5BBF5BBE5BBF5BBE5BBF5BBAF
S1130E00E5BBF5BBE5BBF5BBE5BBF5BBE5BBF5BB9E
S1130E10E5BB0197F1F6203021F0F5BBE5BB2A953F
S1130E20E1F70895AF98AF9A6150704080409040C8
S1130E30C9F70895AE9811248BBB12BAAF98AF9A34
S1130E400895AE9A6BBB82BBAF98AF9A0895AE9AE1
S1130E5011248BBB12BAAF98AF9A0895AE9811249F
S1130E608BBB12BAAF98AF9AAE9A6BBB72BBAF98FA
S1130E70AF9A089582BB6BBBAF98AF9A0895CF9396
S1130E80DF93CDB7DEB763970FB6F894DEBF0FBE1E
S1130E90CDBFCE0101960E94760861E0CE01019695
S1130EA00E944E0962E770E0CE0101960E94A90CEF
S1130EB0CE0101960E94D00802E010E02AE030E062
S1130EC04AE050E060E670E0CE0101960E94CE0B4D
S1130ED0F3CF8FEF8ABB81BB84B3806484BB84B3BC
S1130EE0806884BB87B3886087BB84B3806184BB1C
S1130EF085B3806185BB87B3846087BB85B382601B
S1130F0085BB84B3826084BB88B3846088BB8FEF65
S1130F1093E20197F1F700C0000088B38B7F88BB90
S1130F208FEF9BE60197F1F700C0000088B384605F
S1130F3088BB8FEF9BE60197F1F700C0000088B3F0
S1130F40877F88BB61E070E080E00E942E0764EA3E
S1130F5078EA83E00E942E0760E070E08CE00E9453
S1130F602E076CE078E08DE00E942E0760E07BE2C3
S1130F708EE00E942E0767EB70E08EE10E942E0740
S1130F806FE37BE281E00E942E0760E076E082E07E
S1130F900E942E0760E070E080E10E942E0760E767
S1130FA070E681E10E942E0760E070E085E00E9417
S1130FB02E0760E070E086E00E942E076CE17FEE71
S1130FC086E10E942E0763E070E087E10E942E070D
S1130FD063E372E087E00E942E0760E070E08BE03C
S1130FE00E942E0760E070E08FE00E942E0760E010
S1130FF070E081E40E942E0760E070E082E40E94C9
S11310002E0760E070E088E40E942E076FE371E031
S113101089E40E942E0760E070E08AE40E942E07B3
S113102060E070E08BE40E942E0760E07FEE84E4D1
S11310300E942E0760E070E085E40E942E076FE3B3
S113104071E086E40E942E0767E077E080E30E9467
S11310502E0764E072E081E30E942E0764E072E0F0
S113106082E30E942E0762E075E083E30E942E076C
S113107067E075E084E30E942E0764E072E085E394
S11310800E942E0764E072E086E30E942E0762E06D
S113109075E087E30E942E0762E073E08AE30E9412
S11310A02E0762E073E08BE30E942E0760E070E09D
S11310B083E20E942E0760E070E084E20E942E0723
S11310C060E070E885E20E942E0760E070E08FE443
S11310D00E942E0760E070E08EE40E942E0782E2F8
S11310E00E941A0788B3886088BB08954FEE50E0C9
S11310F060E070E0FC0145835683678370874FE3AB
S113110051E060E070E041875287638774870E94F2
S113111069070895EF92FF920F931F93CF93DF9384
S1131120EB01E42EF52EFC014481413089F48185E4
S11311309285A385B485AC01461B570B821B930B88
S1131140202F312F042F152FCE2DDF2DE82EF92E31
S1131150322F2227BE01620F731F84E40E942E07E0
S11311606E2D7F2D85E40E942E07602F712F86E45B
S11311700E942E07BE018EE40E942E076E2D7F2D45
S11311808FE40E942E0782E20E941A0785B38064CE
S113119085BBDF91CF911F910F91FF90EF90089540
S11311A088B3877F88BB60E07FEE84E40E942E07CB
S11311B060E070E085E40E942E076FE371E086E44E
S11311C00E942E0760E070E08EE40E942E0760E02B
S11311D070E08FE40E942E0768E770E681E10E94C8
S11311E02E0782E20E941A0785B3806485BB1BBA6E
S11311F012BA60E07CE281E090E00E94D1068FEFB9
S11312008BBB82BB88B3877F88BB0895E42FF0E053
S1131210F595E795F595E795F595E795F595E795B2
S1131220F595E795687FE62BDC01EC934C7150E073
S1131230440F551F440F551F440F551F30E035957B
S113124027953595279535952795422B11964C93DF
S11312500895E42FF0E0F595E795F595E795F59574
S1131260E795F595E795F595E795687FE62BDC011D
S11312701296EC9312974C7150E0440F551F440F93
S1131280551F440F551F30E0359527953595279503
S113129035952795422B13964C930895CF93DF935E
S11312A0EC016C832FEF4FEF6FEF0E94060920E0F3
S11312B040E060E0CE010E9429091E861D86DF9170
S11312C0CF910895872F0E9421070895AF92BF926E
S11312D0CF92DF92EF92FF920F931F93CF93DF93FE
S11312E0EC017A01890188B3877F88BB8C818111E5
S11312F069C02989862F90E0821B91094F85542F5C
S1131300569556955695288930E0529FB001539FC3
S1131310700D1124869F6001879FD00C969FD00C7E
S1131320112484E0C80ED11CC701840F911D200F25
S1131330311F590141E0A41AB10860E070E07FEF69
S1131340780F6E0D7F1D84E40E942E07B80185E49A
S11313500E942E07B50186E40E942E07B7018EE491
S11313600E942E07B8018FE40E942E0760E770E602
S113137081E10E942E0782E20E941A0785B38064ED
S113138085BB2A8130E0322F22278B81282B48818C
S113139050E0542F44278981482B6D857E856C0D40
S11313A07D1D88899F85899FC001112499230CF490
S11313B007969595879595958795959587950E9418
S11313C042066FC02989862F90E0821B91094F85C0
S11313D0542F569556955695288930E0529FB00162
S11313E0539F700D1124869F6001879FD00C969F98
S11313F0D00C112484E0C80ED11CC701840F911DA8
S11314000197200F311F49855A856B857C855A01C8
S1131410AE18BF087A01E81AF90A60E070E07FEFBD
S1131420720F600F711F84E40E942E07B70185E4D8
S11314300E942E07B50186E40E942E07B8018EE4AF
S11314400E942E07B5018FE40E942E0768E570E61E
S113145081E10E942E0782E20E941A0785B380640C
S113146085BB2A8130E0322F22278B81282B4881AB
S113147050E0542F44278981482B6D857E856C0D5F
S11314807D1D88899F85899FC001112499230CF4AF
S113149007969595879595958795959587950E9437
S11314A0420688B3886088BBDF91CF911F910F916A
S11314B0FF90EF90DF90CF90BF90AF9008952F9260
S11314C03F924F925F926F927F928F929F92AF92D0
S11314D0BF92CF92DF92EF92FF920F931F93CF931D
S11314E0DF93CDB7DEB76B970FB6F894DEBF0FBEB0
S11314F0CDBF5C0169833A0149011F8B0E8BB70193
S1131500FF0C880B990B0E946E0D29E23CE54FE815
S11315105CE30E94390E698B7A8B8B8B9C8B88B32E
S1131520877F88BBD50151968C91B9812B2F30E0F0
S1131530281B3109F50187858695869586959089BE
S1131540899FC0011124289FA001299F500D389F15
S1131550500D11249A012C5F3F4F398F288F1D8A1B
S1131560D50150968C91BD89B81708F0FBC0412C69
S1131570512CF5018785869586958695282F30E030
S1131580421653060CF0E4C00584F685E02D888DE0
S1131590998D840D951DE80FF91F2490312C3A8EF6
S11315A02B8EFA8DF83008F0CFC02F2E312CB201DB
S11315B0660F771F660F771F660F771F620D731D07
S11315C0D5011F962C91EE89FF892E9FC0012F9F74
S11315D0900D1124680F791F072E000C880B990BAE
S11315E00E946E0D69837A838B839C8369897A89CF
S11315F08B899C890E94310D6D837E838F839887AC
S11316009B01AC0169817A818B819C810E94390E96
S11316106B017C01FD896F2F70E080E090E00E94F7
S11316206E0D69877A878B879C8769897A898B890C
S11316309C890E94A60E6D877E878F87988B9B015D
S1131640AC0169857A858B859C850E94390E9B0146
S1131650AC01C701B6010E94C40C6B017C01B3014B
S1131660072C000C880B990B0E946E0DA7019601A4
S11316700E94C50C0E94360D6B017C0129853A85B8
S11316804B855C856D817E818F8198850E94390EA2
S11316906D837E838F8398872D853E854F855889FA
S11316A069817A818B819C810E94390E9B01AC01F6
S11316B06D817E818F8198850E94C50C69837A83B0
S11316C08B839C83B401092C000C880B990B0E941A
S11316D06E0D29813A814B815C810E94C50C0E9468
S11316E0360D8B010F5F1F4F96012F5F3F4FAB01EC
S11316F0B601C5010E948A0827E030E022193309A7
S11317004B8D842F90E002C0959587952A95E2F73A
S113171080FF0CC0D5016C9170E0762F662711967E
S11317208C91682BC5010E9462090AC0F50162818F
S113173070E0762F66278381682BC5010E946209B9
S1131740FA8DFF5FFA8F2DCF2FEF421A520A11CF75
S1131750488D598D480F511D598F488F5D895F5FA2
S11317605D8BFECE88B3886088BB6B960FB6F89409
S1131770DEBF0FBECDBFDF91CF911F910F91FF90C0
S1131780EF90DF90CF90BF90AF909F908F907F901D
S11317906F905F904F903F902F9008952F923F92BB
S11317A04F925F926F927F928F929F92AF92BF926D
S11317B0CF92DF92EF92FF920F931F93CF93DF9319
S11317C0EC01FB015A0129016801DB010D900020A5
S11317D0E9F71197A61BB70B4D018C8181113EC00F
S11317E04F30574281F44D815E816F8178852F851A
S11317F02A9FC0012B9F900D1124481B590B5A019D
S11318001FEFA11AB10A2EE0A21627E2B20609F0D0
S113181061C04D815E816F8178854F5F5F4F6F4FEF
S11318207F4F2F852A9FC0012B9F900D1124092ED5
S1131830000CAA0BBB0B8A019B01081B190B2A0B7A
S11318403B0BB901A80122F44F5F5F4F6F4F7F4FED
S113185075956795579547955A013CC04F30574247
S113186081F449855A856B857C852F852A9FC00123
S11318702B9F900D1124481B590B5A012FEFA21ACC
S1131880B20A3EE0A31637E2B30621F549855A852C
S11318906B857C854F5F5F4F6F4F7F4F2F852A9FEE
S11318A0C0012B9F900D1124092E000CAA0BBB0B19
S11318B08A019B01081B190B2A0B3B0BB901A801D8
S11318C022F44F5F5F4F6F4F7F4F75956795579524
S11318D047955A01612C712C681479043CF5C114A4
S11318E0D10499F48F85869DA001879D500D112404
S11318F04A0D5B1D1F011FEF211A310A60819201FD
S1131900CE010E946609F1010DC01F012FEF221ABA
S1131910320A6081760183019201A501CE010E9401
S11319205F0AF1013FEF631A730AD6CFDF91CF91BB
S11319301F910F91FF90EF90DF90CF90BF90AF90E9
S11319409F908F907F906F905F904F903F902F90DB
S11319500895DC011E967C936E931D97FB01849180
S11319601F968C931F973196E4915096EC93509761
S1131970FB013296E4915196EC935197FB01339617
S1131980649152966C9308955058BB27AA270E94DD
S1131990DC0C0C94EB0D0E94B20D38F00E94B90DD2
S11319A020F039F49F3F19F426F40C94AF0D0EF493
S11319B0E095E7FB0C94A90DE92F0E94100E58F353
S11319C0BA17620773078407950720F079F4A6F520
S11319D00C94320E0EF4E0950B2EBA2FA02D0B01B1
S11319E0B90190010C01CA01A0011124FF27591B60
S11319F099F0593F50F4503E68F11A16F040A22F66
S1131A00232F342F4427585FF3CF469537952795D6
S1131A10A795F0405395C9F77EF41F16BA0B620BD5
S1131A20730B840BBAF09150A1F0FF0FBB1F661F1C
S1131A30771F881FC2F70EC0BA0F621F731F841F5F
S1131A4048F4879577956795B795F7959E3F08F085
S1131A50B0CF9395880F08F09927EE0F9795879547
S1131A6008950E94C20DE3950C94FC0D0E943D0D57
S1131A706894B1110C94330E08950E94180E88F0E6
S1131A809F5798F0B92F9927B751B0F0E1F0660F3E
S1131A90771F881F991F1AF0BA95C9F714C0B1307F
S1131AA091F00E94320EB1E008950C94320E672F2B
S1131AB0782F8827B85F39F0B93FCCF386957795AE
S1131AC06795B395D9F73EF4909580957095619597
S1131AD07F4F8F4F9F4F0895E89409C097FB3EF4C2
S1131AE090958095709561957F4F8F4F9F4F992367
S1131AF0A9F0F92F96E9BB279395F69587957795E5
S1131B006795B795F111F8CFFAF4BB0F11F460FFA4
S1131B101BC06F5F7F4F8F4F9F4F16C0882311F0FC
S1131B2096E911C0772321F09EE8872F762F05C010
S1131B30662371F096E8862F70E060E02AF09A95AB
S1131B40660F771F881FDAF7880F9695879597F9A0
S1131B50089597F99F6780E870E060E008959FEF2B
S1131B6080EC089500240A94161617061806090630
S1131B70089500240A9412161306140605060895FF
S1131B800C94AF0D0E94180ED8F3E894E0E0BB2744
S1131B909F57F0F02AED3FE049EC06C0EE0FBB0F73
S1131BA0661F771F881F28F0B23A620773078407FD
S1131BB028F0B25A620B730B840BE3959A9572F773
S1131BC0803830F49A95BB0F661F771F881FD2F7B1
S1131BD090480C94B00E092E0394000C11F4882341
S1131BE052F0BB0F40F4BF2B11F460FF04C06F5FD1
S1131BF07F4F8F4F9F4F0895EF93E0FF07C0A2EAF6
S1131C002AED3FE049EC5FEB0E94DC0C0E94EB0DF7
S1131C100F90039401FC9058E4E5F0E00C94BC0EA2
S1131C2057FD9058440F551F59F05F3F71F0479589
S1131C30880F97FB991F61F09F3F79F0879508956E
S1131C40121613061406551FF2CF4695F1DF08C08D
S1131C50161617061806991FF1CF869571056105AA
S1131C6008940895E894BB2766277727CB0197F952
S1131C7008950E944C0E0C94EB0D0E94B20D38F0A6
S1131C800E94B90D20F0952311F00C94A90D0C9429
S1131C90AF0D11240C94330E0E94100E70F3959F17
S1131CA0C1F3950F50E0551F629FF001729FBB274F
S1131CB0F00DB11D639FAA27F00DB11DAA1F649FEB
S1131CC06627B00DA11D661F829F2227B00DA11D9E
S1131CD0621F739FB00DA11D621F839FA00D611D24
S1131CE0221F749F3327A00D611D231F849F600D45
S1131CF0211D822F762F6A2F11249F5750409AF06E
S1131D00F1F088234AF0EE0FFF1FBB1F661F771FF9
S1131D10881F91505040A9F79E3F510580F00C94C4
S1131D20A90D0C94330E5F3FE4F3983ED4F38695EB
S1131D3077956795B795F795E7959F5FC1F7FE2B64
S1131D40880F911D9695879597F908959F930E9402
S1131D50C20D0F9007FCEE5F0C94FC0D9F3F31F019
S1131D60915020F4879577956795B795880F911DC5
S1131D709695879597F908959F938F937F936F9383
S1131D80FF93EF939B01AC010E94390EEF91FF91F9
S1131D900E94D00E2F913F914F915F910C94390E78
S1131DA0DF93CF931F930F93FF92EF92DF927B0108
S1131DB08C01689406C0DA2EEF010E944C0EFE01DD
S1131DC0E894A5912591359145915591A6F3EF019C
S1131DD00E94DC0CFE019701A801DA9469F7DF90F8
S1131DE0EF90FF900F911F91CF91DF910895F89498
S1051DF0FFCF1F
S1111DF248656C6C6F20776F726C6421000082
S9030000FC
