:100000000C94AA080C94D2080C94D2080C94D20830
:100010000C94D2080C94D2080C94D2080C94D208F8
:100020000C94D2080C94D2080C94D2080C94D208E8
:100030000C94D2080C94D2080C94D2080C94D208D8
:100040000C94D2080C94D2080C94D2080C94D208C8
:100050000C94D20805A84CCDB2D44EB93836A902BA
:100060000C50B9918688083CA6AAAA2ABE000000B6
:10007000803F1010205F0000000000000000000022
:100080000000000000000000000000000000000070
:100090000000000000000000000007000F800F803B
:1000A0000F800F800F80070007000000000007008E
:1000B00007000700000000000E380E380E380E381A
:1000C00006300000000000000000000000000000FA
:1000D00000000000000000000C300C300C307FFEEF
:1000E0007FFE0C300C300C300C307FFE7FFE0C306D
:1000F0000C300C3000000000024002400FF81FF8E6
:100100001A401A401FF00FF8025802581FF81FF04B
:100110000240024000000000000000000E100E30FF
:100120000E7000E001C0038007000E700C700870B4
:10013000000000000000000000000F00198019807E
:1001400019800F000F080F9819F818F018E019F02F
:100150000F980000000000000000070007000700E3
:100160000E00000000000000000000000000000081
:100170000000000000000000000000F001C003804B
:1001800007000E000E000E000E000700038001C0E5
:1001900000F000000000000000000F00038001C01C
:1001A00000E0007000700070007000E001C003808B
:1001B0000F0000000000000000000180118809907D
:1001C00007E007E03FFC3FFC07E007E009901188EB
:1001D000018000000000000000000000000001801D
:1001E000018001800FF00FF001800180018000008C
:1001F00000000000000000000000000000000000FF
:1002000000000000000000000000000007000700E0
:1002100007000E00000000000000000000000000C9
:10022000000000001FF81FF80000000000000000A0
:1002300000000000000000000000000000000000BE
:1002400000000000000000000000000007000700A0
:100250000700000000000000000000020006000E81
:10026000001C0038007000E001C0038007000E0091
:100270001C0000000000000000000FF01C381C787B
:100280001CF81CF81DB81DB81F381F381E381C3844
:100290000FF00000000000000000018001800380DA
:1002A0001F801F80038003800380038003800380FE
:1002B0001FF000000000000000000FE01C701C3860
:1002C0000038007000E001C0038007000E381C38C1
:1002D0001FF800000000000000000FE01C701C3838
:1002E0000038007003C003C0007000381C381C7058
:1002F0000FE0000000000000000000E001E003E06B
:1003000006E00CE018E01FF81FF800E000E000E055
:1003100003F800000000000000001FF81C001C0093
:100320001C001C001FE01FF0007800381C381C70F7
:100330000FE0000000000000000003E007000E00D6
:100340001C001C001FF01FF81C381C381C381C38FF
:100350000FF000000000000000001FFC1C1C1C1C13
:100360001C1C001C0038007000E001C003800380EA
:10037000038000000000000000000FF01C381C3853
:100380001C381F3807E007E01CF81C381C381C38E4
:100390000FF000000000000000000FF01C381C38B7
:1003A0001C381C381FF80FF800380038007000E0C7
:1003B00007C00000000000000000000000000380F3
:1003C000038003800000000003800380038000009E
:1003D000000000000000000000000000000003809A
:1003E0000380038000000000038003800380070077
:1003F0000000000000000000007000E001C0038069
:1004000007000E001C001C000E000700038001C046
:1004100000E000700000000000000000000000008C
:100420003FFC3FFC000000003FFC3FFC00000000E0
:1004300000000000000000001C000E000700038008
:1004400001C000E00070007000E001C00380070000
:100450000E001C000000000003C00FF01E781838CA
:100460000038007000E001C001C00000000001C0C1
:1004700001C001C0000000000FF81C1C1C1C1C1C4B
:100480001C1C1CFC1CFC1CFC1CFC1C001C001C0080
:100490001FF007F800000000000003C007E00E7026
:1004A0001C381C381C381C381FF81C381C381C38E9
:1004B0001C3800000000000000001FF00E380E384D
:1004C0000E380E380FF00FF00E380E380E380E388A
:1004D0001FF0000000000000000007F00E381C387C
:1004E0001C001C001C001C001C001C001C380E38CA
:1004F00007F000000000000000001FE00E700E3842
:100500000E380E380E380E380E380E380E380E7083
:100510001FE000000000000000001FF80E180E0889
:100520000E000E300FF00FF00E300E000E080E18F9
:100530001FF800000000000000001FF80E180E0851
:100540000E000E300FF00FF00E300E000E000E00F9
:100550001F00000000000000000007F00E381C38EB
:100560001C381C001C001C001CF81C381C380E38E1
:1005700007F800000000000000001C701C701C70D8
:100580001C701C701FF01FF01C701C701C701C7005
:100590001C7000000000000000000FE003800380DA
:1005A0000380038003800380038003800380038033
:1005B0000FE0000000000000000001FC007000706F
:1005C00000700070007000703870387038703870CB
:1005D0000FE000000000000000001E380E380E7012
:1005E0000EE00FC00F800F800FC00EE00E700E38AF
:1005F0001E3800000000000000001F000E000E006A
:100600000E000E000E000E000E000E080E180E3822
:100610001FF800000000000000001C1C1E3C1F7C96
:100620001FFC1FFC1DDC1C9C1C1C1C1C1C1C1C1C03
:100630001C1C00000000000000001C1C1C1C1E1CD8
:100640001F1C1F9C1DDC1CFC1C7C1C3C1C1C1C1C43
:100650001C1C000000000000000003E007F00E3842
:100660001C1C1C1C1C1C1C1C1C1C1C1C0E3807F0FD
:1006700003E000000000000000001FF00E380E38FC
:100680000E380E380FF00FF00E000E000E000E00A8
:100690001F00000000000000000003E00F780E388B
:1006A0001C1C1C1C1C1C1C1C1C7C1CFC0FF80FF8AC
:1006B000003800FC0000000000001FF00E380E386B
:1006C0000E380E380FF00FF00E700E380E380E3850
:1006D0001E3800000000000000000FF01C381C381D
:1006E0001C381C000FE007F000381C381C381C3880
:1006F0000FF000000000000000001FFC19CC11C426
:1007000001C001C001C001C001C001C001C001C0E1
:1007100007F000000000000000001C701C701C703E
:100720001C701C701C701C701C701C701C701C7069
:100730000FE000000000000000001C701C701C7026
:100740001C701C701C701C701C701C700EE007C0AC
:10075000038000000000000000001C1C1C1C1C1C6E
:100760001C1C1C1C1C9C1C9C1C9C0FF80FF807706C
:10077000077000000000000000001C701C701C705E
:100780000EE007C00380038007C00EE01C701C70E1
:100790001C7000000000000000001C701C701C7029
:1007A0001C701C700EE007C0038003800380038070
:1007B0000FE000000000000000001FF81C3818388F
:1007C000107000E001C0038007000E081C181C38E0
:1007D0001FF8000000000000000007F007000700FD
:1007E00007000700070007000700070007000700D1
:1007F00007F00000000000000000100018001C00BE
:100800000E000700038001C000E000700038001CEB
:100810000007000000000000000007F000700070FA
:100820000070007000700070007000700070007048
:1008300007F0000000000000018003C007E00E7018
:100840001C38000000000000000000000000000054
:100850000000000000000000000000000000000098
:100860000000000000000000000000000000000088
:1008700000007FFF7FFF000000001C001C0007003D
:100880000700000000000000000000000000000061
:100890000000000000000000000000000000000058
:1008A00000000FE0007000700FF01C701C701C70D6
:1008B0000FD800000000000000001E000E000E0017
:1008C0000E000FF00E380E380E380E380E380E3877
:1008D0001BF000000000000000000000000000000D
:1008E00000000FE01C701C701C001C001C701C70B1
:1008F0000FE0000000000000000000F80070007031
:1009000000700FF01C701C701C701C701C701C7030
:100910000FD80000000000000000000000000000F0
:1009200000000FE01C701C701FF01C001C701C707D
:100930000FE0000000000000000003E007700770F7
:10094000070007001FE01FE007000700070007007F
:100950001FC00000000000000000000000000000B8
:1009600000000FD81C701C701C701C700FF007F07A
:1009700000701C700FE0000000001E000E000E0052
:100980000E000EF00F380F380E380E380E380E38B5
:100990001E38000000000000000001C001C001C0BE
:1009A00000000FC001C001C001C001C001C001C0F2
:1009B0000FF80000000000000000007000700070E0
:1009C000000003F000700070007000700070007094
:1009D0001C700CF007E0000000001E000E000E006E
:1009E0000E000E380E700EE00FC00EE00E700E38C6
:1009F0001E3800000000000000000FC001C001C050
:100A000001C001C001C001C001C001C001C001C0DE
:100A10000FF80000000000000000000000000000CF
:100A200000001FF81C9C1C9C1C9C1C9C1C9C1C9C5F
:100A30001C9C0000000000000000000000000000FE
:100A400000001FE01C701C701C701C701C701C705F
:100A50001C7000000000000000000000000000000A
:100A600000000FE01C701C701C701C701C701C704F
:100A70000FE0000000000000000000000000000087
:100A800000001BF00E380E380E380E380E380FF0FE
:100A90000E000E001F00000000000000000000001B
:100AA00000001FB038E038E038E038E038E01FE000
:100AB00000E000E001F00000000000000000000085
:100AC00000001EF00FF80F380E000E000E000E0092
:100AD0001F000000000000000000000000000000F7
:100AE00000000FE01C301C300F8003E018701870FD
:100AF0000FE0000000000000000000000100030003
:100B000007001FF0070007000700070007700770C5
:100B100003E00000000000000000000000000000F2
:100B200000001C701C701C701C701C701C701C70F1
:100B30000FD80000000000000000000000000000CE
:100B400000001C701C701C701C701C700EE007C034
:100B50000380000000000000000000000000000012
:100B600000001C1C1C1C1C1C1C9C1C9C0FF80770EF
:100B700007700000000000000000000000000000FE
:100B800000001CE01CE00FC0078007800FC01CE0C5
:100B90001CE0000000000000000000000000000059
:100BA00000000E380E380E380E380E3807F003E00D
:100BB00000E001C01F8000000000000000000000F5
:100BC00000001FE018E011C0038007000E201C6029
:100BD0001FE0000000000000000001F80380038017
:100BE000038007001C001C000700038003800380B3
:100BF00001F800000000000001C001C001C001C0F8
:100C000001C001C001C001C001C001C001C001C0DC
:100C100001C001C00000000000001F8001C001C031
:100C200001C000E00038003800E001C001C001C090
:100C30001F8000000000000000001F1C3B9C39DCEE
:100C400038F8000000000000000000000000000074
:100C5000000000000000080C205F00000000000001
:100C600000000000000000002020202020200020A4
:100C700000000028505000000000000000000000AC
:100C80002828FC2850FC50500000002078A8A060C4
:100C90003028A8F02000000048A8B050283454485C
:100CA0000000000020505078A8A8906C0000004080
:100CB0004080000000000000000000040810101038
:100CC0001010100804000040201010101010102008
:100CD000400000000020A87070A820000000000064
:100CE000202020F82020200000000000000000004C
:100CF0000000004040800000000000F800000000FC
:100D0000000000000000000000000040000000089B
:100D1000101010202040404080000000708888881B
:100D2000888888700000000020602020202020702B
:100D30000000000070888810204080F8000000004B
:100D4000708808300808887000000000103050508B
:100D50009078101800000000F88080F00808887073
:100D600000000000709080F088888870000000000B
:100D7000F89010202020202000000000708888704B
:100D8000888888700000000070888888780848701B
:100D90000000000000002000000000200000000013
:100DA0000000002000000020200000040810204067
:100DB00020100804000000000000F80000F8000007
:100DC000000000402010080408102040000000002F
:100DD000708888102020002000000000708898A8EB
:100DE000A8B880780000000020203050507848CC0F
:100DF00000000000F0484870484848F0000000003B
:100E0000788880808080887000000000F048484822
:100E1000484848F000000000F8485070504048F83A
:100E200000000000F8485070504040E00000000012
:100E3000384880809C88483000000000CC484878C2
:100E4000484848CC00000000F8202020202020F84E
:100E5000000000007C10101010101090E000000046
:100E6000EC485060505048EC00000000E04040402A
:100E7000404044FC00000000D8D8D8D8A8A8A8A8B2
:100E800000000000DC486868585848E8000000008E
:100E9000708888888888887000000000F048487052
:100EA000404040E0000000007088888888E8987022
:100EB00018000000F0484870504848EC000000005E
:100EC00078888060100888F000000000F8A82020D2
:100ED0002020207000000000CC4848484848483096
:100EE00000000000CC484850503020200000000096
:100EF000A8A8A8705050505000000000D8505020B2
:100F0000205050D800000000D850502020202070E1
:100F100000000000F8901020204048F80000003841
:100F20002020202020202020380000404040202089
:100F30001010100800000070101010101010101089
:100F400070000020500000000000000000000000C1
:100F5000000000000000000000FC00200000000075
:100F60000000000000000000000000304838483C4D
:100F700000000000C0404070484848700000000079
:100F800000000038484040380000000018080838C9
:100F90004848483C000000000000003048784038D5
:100FA000000000001C202078202020780000000095
:100FB0000000003C4830407844380000C040407099
:100FC000484848EC0000000020000060202020700D
:100FD00000000000100000301010101010E00000A1
:100FE000C040405C507048EC00000000E020202031
:100FF000202020F800000000000000F0A8A8A8A809
:1010000000000000000000F0484848EC000000002C
:10101000000000304848483000000000000000F0A8
:101020004848487040E00000000000384848483810
:10103000081C0000000000D8604040E000000000F4
:101040000000007840300878000000000020207088
:101050002020201800000000000000D84848483C2C
:1010600000000000000000EC4850302000000000AC
:10107000000000A8A870505000000000000000D838
:10108000502050D800000000000000EC48503020F4
:1010900020C0000000000078102020780000001818
:1010A0001010102010101010180010101010101038
:1010B0001010101010100060202020102020202080
:1010C000600040A4180000000000000000000000C4
:1010D0000000000000000000000000000000000010
:1010E0000000000000000000000000000000000000
:1010F00000000000000000000000000000000000F0
:1011000000000000000000000000000000000000DF
:1011100000000000000000000000000000000000CF
:1011200000000000000000000000000000000000BF
:1011300000000000000000000000000000000000AF
:10114000000000000000000000000000000000009F
:101150000000681011241FBECFE5D4E0DEBFCDBF74
:1011600012E0A0E6B0E0E6E9F7E302C005900D92D8
:10117000A839B107D9F722E0A8E9B2E001C01D9271
:10118000AB3AB207E1F718E0CAEAD8E004C0219709
:10119000FE010E94C31BC93AD107C9F70E94580F2C
:1011A0000C94C91B0C940000A5B3BA2F6894A7F93E
:1011B000E894B7F9FB01059007FA1EF44BBB52BB4C
:1011C00002C02BBB32BBB5BBA5BB06FA1EF44BBBA2
:1011D00052BB02C02BBB32BBB5BBA5BB05FA1EF48C
:1011E0004BBB52BB02C02BBB32BBB5BBA5BB04FA89
:1011F0001EF44BBB52BB02C02BBB32BBB5BBA5BB65
:1012000003FA1EF44BBB52BB02C02BBB32BBB5BBB7
:10121000A5BB02FA1EF44BBB52BB02C02BBB32BBB8
:10122000B5BBA5BB01FA1EF44BBB52BB02C02BBB26
:1012300032BBB5BBA5BB00FA1EF44BBB52BB02C010
:101240002BBB32BBB5BBA5BB815090408030910514
:1012500011F00C94DB080895A5B3BA2F6894A7F990
:10126000E894B7F9FB01059002BA05900BBAB5BB3B
:10127000A5BB815090408030910511F00C9433094A
:101280000895A5B3BA2F6894A7F9E894B7F9FC01BB
:10129000112425912030A9F027FB56F42F770590D3
:1012A00002BA05900BBAB5BBA5BB2A95E1F7F1CF01
:1012B000059002BA05900BBAB5BBA5BB2A95C1F73C
:1012C000E8CF00240895222786957795679527957E
:1012D0007695679527957695679527957695679581
:1012E00027952295CB01E5B3FE2F6894E7F9E894A2
:1012F000F7F9009711F1F5BBE5BBF5BBE5BBF5BB15
:10130000E5BBF5BBE5BBF5BBE5BBF5BBE5BBF5BB9D
:10131000E5BBF5BBE5BBF5BBE5BBF5BBE5BBF5BB8D
:10132000E5BBF5BBE5BBF5BBE5BBF5BBE5BBF5BB7D
:10133000E5BBF5BBE5BB0197F1F6203021F0F5BB2D
:10134000E5BB2A95E1F70895AF98AF9A61507040D8
:1013500080409040C9F70895AE9811248BBB12BA13
:10136000AF98AF9A0895AE9A6BBB82BBAF98AF9A15
:101370000895AE9A11248BBB12BAAF98AF9A089514
:10138000AE9811248BBB12BAAF98AF9AAE9A6BBBD2
:1013900072BBAF98AF9A089582BB6BBBAF98AF9A00
:1013A0000895CF93E5B3FE2F6894E7F9E894F7F931
:1013B0008BBB92BBD601B695A7950F5F1F4F02C09E
:1013C0002F5F3F4F2017310781F1F5BBE5BBAE0D15
:1013D000BF1DAC15BD05A0F3AC19BD096F5F7F4FF4
:1013E0002F5F3F4FAE98C0E0C2BBCEE4CBBBAF98FF
:1013F000AF9AAE9A72BB6BBBAF98AF9AAE98C0E093
:10140000C2BBCFE4CBBBAF98AF9AAE9A32BB2BBB7B
:10141000AF98AF9AAE98C0E0C2BBC2E2CBBBAF9868
:10142000AF9AAE9A8BBB92BBCDCFCF910895CF939D
:10143000E5B3FE2F6894E7F9E894F7F98BBB92BB0C
:10144000D601B695A7950150104002C021503040FA
:101450002017310781F1F5BBE5BBAE0DBF1DAC1503
:10146000BD05A0F3AC19BD096F5F7F4F215030401F
:10147000AE98C0E0C2BBCEE4CBBBAF98AF9AAE9AF9
:1014800072BB6BBBAF98AF9AAE98C0E0C2BBCFE463
:10149000CBBBAF98AF9AAE9A32BB2BBBAF98AF9A8B
:1014A000AE98C0E0C2BBC2E2CBBBAF98AF9AAE9AD7
:1014B0008BBB92BBCDCFCF910895CF93E5B3FE2FD9
:1014C0006894E7F9E894F7F98BBB92BBD601B6951F
:1014D000A7950F5F1F4F02C02F5F3F4F20173107A7
:1014E00081F1F5BBE5BBAE0DBF1DAC15BD05A0F38D
:1014F000AC19BD09615070402F5F3F4FAE98C0E0FE
:10150000C2BBCEE4CBBBAF98AF9AAE9A72BB6BBBFB
:10151000AF98AF9AAE98C0E0C2BBCFE4CBBBAF9858
:10152000AF9AAE9A32BB2BBBAF98AF9AAE98C0E0E1
:10153000C2BBC2E2CBBBAF98AF9AAE9A8BBB92BB99
:10154000CDCFCF910895CF93E5B3FE2F6894E7F9FF
:10155000E894F7F98BBB92BBD601B695A7950150DD
:10156000104002C0215030402017310781F1F5BBF7
:10157000E5BBAE0DBF1DAC15BD05A0F3AC19BD0993
:101580006150704021503040AE98C0E0C2BBCEE404
:10159000CBBBAF98AF9AAE9A72BB6BBBAF98AF9A0A
:1015A000AE98C0E0C2BBCFE4CBBBAF98AF9AAE9AC7
:1015B00032BB2BBBAF98AF9AAE98C0E0C2BBC2E2C1
:1015C000CBBBAF98AF9AAE9A8BBB92BBCDCFCF912E
:1015D0000895CF93E5B3FE2F6894E7F9E894F7F9FF
:1015E0008BBB92BBD701B695A7954F5F5F4F02C0EB
:1015F0006F5F7F4F6417750781F1F5BBE5BBAC0DDD
:10160000BD1DAE15BF05A0F3AE19BF096F5F7F4FBB
:101610002F5F3F4FAE98C0E0C2BBCEE4CBBBAF98CC
:10162000AF9AAE9A72BB6BBBAF98AF9AAE98C0E060
:10163000C2BBCFE4CBBBAF98AF9AAE9A32BB2BBB49
:10164000AF98AF9AAE98C0E0C2BBC2E2CBBBAF9836
:10165000AF9AAE9A8BBB92BBCDCFCF910895CF936B
:10166000E5B3FE2F6894E7F9E894F7F98BBB92BBDA
:10167000D701B695A7954F5F5F4F02C06F5F7F4F51
:101680006417750781F1F5BBE5BBAC0DBD1DAE154B
:10169000BF05A0F3AE19BF096F5F7F4F21503040E7
:1016A000AE98C0E0C2BBCEE4CBBBAF98AF9AAE9AC7
:1016B00072BB6BBBAF98AF9AAE98C0E0C2BBCFE431
:1016C000CBBBAF98AF9AAE9A32BB2BBBAF98AF9A59
:1016D000AE98C0E0C2BBC2E2CBBBAF98AF9AAE9AA5
:1016E0008BBB92BBCDCFCF910895CF93E5B3FE2FA7
:1016F0006894E7F9E894F7F98BBB92BBD701B695EC
:10170000A7954150504002C0615070406417750762
:1017100081F1F5BBE5BBAC0DBD1DAE15BF05A0F35A
:10172000AE19BF09615070402F5F3F4FAE98C0E0C7
:10173000C2BBCEE4CBBBAF98AF9AAE9A72BB6BBBC9
:10174000AF98AF9AAE98C0E0C2BBCFE4CBBBAF9826
:10175000AF9AAE9A32BB2BBBAF98AF9AAE98C0E0AF
:10176000C2BBC2E2CBBBAF98AF9AAE9A8BBB92BB67
:10177000CDCFCF910895CF93E5B3FE2F6894E7F9CD
:10178000E894F7F98BBB92BBD701B695A79541506A
:10179000504002C0615070406417750781F1F5BB7D
:1017A000E5BBAC0DBD1DAE15BF05A0F3AE19BF095D
:1017B0006150704021503040AE98C0E0C2BBCEE4D2
:1017C000CBBBAF98AF9AAE9A72BB6BBBAF98AF9AD8
:1017D000AE98C0E0C2BBCFE4CBBBAF98AF9AAE9A95
:1017E00032BB2BBBAF98AF9AAE98C0E0C2BBC2E28F
:1017F000CBBBAF98AF9AAE9A8BBB92BBCDCFCF91FC
:1018000008952F923F924F925F926F927F928F92A4
:101810009F92AF92BF92CF92DF92EF92FF920F937F
:101820001F93CF93DF93019709F053C16F3F7F4F11
:1018300009F04FC188E992E00E947C11EEECF0E1E2
:101840000F2EF2E7CF2EF0E0DF2EF02DD182C082F6
:101850000F2EF6E9EF2EF0E0FF2EF02DF382E2825C
:101860000DE910E0158304830F2EF4EAAF2EF0E0AB
:10187000BF2EF02DB782A6820F2EFBEA8F2EF0E04E
:101880009F2EF02D918680866894222422F822864D
:101890000F2EF3EB6F2EF0E07F2EF02D7486638613
:1018A00081ED90E0968785878CED90E0908B87871F
:1018B00082EE90E0928B818B87EE90E0948B838B0D
:1018C0000F2EF3E03F2EF02D358A8FEE90E0978BB0
:1018D000868B80E391E0918F808F8BE391E0938FF3
:1018E000828F86E491E0958F848F81E591E0978FD8
:1018F000868F6894442441F840A28CE591E092A33D
:1019000081A38CE691E094A383A381E891E096A360
:1019100085A38CE891E090A787A3CDE9D1E0D2A779
:10192000C1A75524539453A6AEEAB1E0B5A7A4A726
:101930006BEE71E077A766A74FEE51E051AB40AB7D
:1019400023EF31E033AB22AB87EF91E095AB84AB73
:1019500056AAD0AEC7AAF2AEE1AE14AF03AFB6AE90
:10196000A5AE90920E1180920D1120920F117092DF
:10197000111160921011E1EDF0E0F0931311E0937A
:101980001211ECEDF0E0F0931511E0931411E2EE7A
:10199000F0E0F0931711E0931611E7EEF0E0F0930A
:1019A0001911E093181130921A11EFEEF0E0F09354
:1019B0001C11E0931B11E0E3F1E0F0931E11E093A2
:1019C0001D11EBE3F1E0F0932011E0931F11E6E429
:1019D000F1E0F0932211E0932111E1E5F1E0F093C1
:1019E0002411E093231140922511ECE5F1E0F093EE
:1019F0002711E0932611ECE6F1E0F0932911E09332
:101A00002811E1E8F1E0F0932B11E0932A11ECE8C2
:101A1000F1E0F0932D11E0932C11D0932F11C0938E
:101A20002E1150923011B0933211A0933111709356
:101A30003411609333115093361140933511309324
:101A400038112093371190933A11809339115092A5
:101A50003B118CEF91E090933D1180933C118EEF00
:101A600091E090933F1180933E1181E192E0909339
:101A70004111809340118FE192E090934311809344
:101A800042118FE292E0909345118093441130927D
:101A9000461180E492E0909348118093471181E6CB
:101AA00092E090934A118093491188E692E09093D6
:101AB0004C1180934B1181E792E090934E118093EB
:101AC0004D1188E792E09093501180934F1140920E
:101AD0005111DF91CF911F910F91FF90EF90DF9007
:101AE000CF90BF90AF909F908F907F906F905F90BE
:101AF0004F903F902F900895AF92BF92CF92DF9278
:101B0000EF92FF920F931F93CF93DF93CDB7DEB782
:101B10002B970FB6F894DEBF0FBECDBF6B87FC01CD
:101B20008081882349F0861305C0F50180818F5F8D
:101B3000808302C0F50110822B960FB6F894DEBFA9
:101B40000FBECDBFDF91CF911F910F91FF90EF900E
:101B5000DF90CF90BF90AF9008950F931F93CF93D6
:101B6000DF93EC0120E04FEF66EF88E992E00E94FE
:101B70005D1268818DEC689F812D11248695869574
:101B8000982F990F990F890F681B82E3689FB00106
:101B900011249B012B5D3F4F6B5F7F4F0AED10E0DF
:101BA0004BEE50E088E992E00E94EE122CEC40E00F
:101BB00060E088E992E00E945D12DF91CF911F9171
:101BC0000F9108950F931F9306E410E02BE331E08B
:101BD00046E450E060E070E088E992E00E94BD13C6
:101BE00002ED10E026E930E046E450E066E970E0FE
:101BF00088E992E00E94BD1306E910E02BE331E092
:101C000046E950E060E070E088E992E00E94BD1390
:101C100002ED10E02BE331E042ED50E060E070E0D7
:101C200088E992E00E94BD1320E04FEF66EF88E95B
:101C300092E00E945D1262E770E088E992E00E9403
:101C40004D1900E010E024E630E04AE050E062E8A0
:101C500072E088E992E00E94981724E630E040EABA
:101C600050E065E872E088E992E00E9498172AEA5D
:101C700030E04AE050E068E872E088E992E00E94D3
:101C800098172AEA30E040EA50E06BE872E088E911
:101C900092E00E9498172FEF4FEF6FEF88E992E0E4
:101CA0000E945D1266E57CE088E992E00E944D1991
:101CB0001F910F910895EF92FF920F931F93CF936F
:101CC000DF93CDB7DEB72B970FB6F894DEBF0FBE0C
:101CD000CDBFE982FA820B831C832D833E834F8321
:101CE000588769877A8769817A8107E210E020E066
:101CF00030E042E050E088E992E00E9473186B8186
:101D00007C810AE010E024E630E042E350E088E91C
:101D100092E00E9473186D817E8124E630E048ECE9
:101D200050E088E992E00E9473186F8178852AEA72
:101D300030E042E350E088E992E00E947318698540
:101D40007A852AEA30E048EC50E088E992E00E9487
:101D500073182B960FB6F894DEBF0FBECDBFDF9180
:101D6000CF911F910F91FF90EF900895FF920F93E5
:101D70001F93CF93DF93EC01FB018081853060F5E9
:101D8000F12CF4E0FF1508F48DC08F2D90E022E3D4
:101D9000289FA001299F500D1124465F5F4FBC0171
:101DA000660F771F680F791F660F771F6C0F7D1FF7
:101DB00000E010E02DED30E088E992E00E949817F5
:101DC00021EE30E048E151E06EE872E088E992E00F
:101DD0000E949817F394D5CF8550853090F50F2E3B
:101DE000F5E0FF2EF02D89E08F1508F45BC08F2DF4
:101DF00090E09C012550310962E3629FA001639F3E
:101E0000500D1124465F5F4FBC01660F771F680FAE
:101E1000791F660F771F6C0F7D1F00E010E02DED1E
:101E200030E088E992E00E94981721EE30E048E126
:101E300051E06EE872E088E992E00E949817F3940E
:101E4000D2CF0F2EFAE0FF2EF02DEEE0EF1550F17D
:101E50008F2D90E09C012A50310962E3629FA0011E
:101E6000639F500D1124465F5F4FBC01660F771FC3
:101E7000680F791F660F771F6C0F7D1F00E010E061
:101E80002DED30E088E992E00E94981721EE30E0D5
:101E900048E151E06EE872E088E992E00E9498170C
:101EA000F394D3CFDF91CF911F910F91FF900895BD
:101EB000CF93DF93CDB7DEB7C055D1090FB6F894F5
:101EC000DEBF0FBECDBF1982FE0132968EE4DF0168
:101ED0001D928A95E9F781E390E39B838A8380E3EF
:101EE00090E09D838C831F821E8223E330E3398739
:101EF00028879B878A871D861C8625E330E33F87DA
:101F00002E87998B888B1B8A1A8A81E39BE69D8B8F
:101F10008C8B1F8A1E8A198E188E84E39BE69B8FFA
:101F20008A8F1D8E1C8E1F8E1E8E81E396E399A3D1
:101F300088A38BE690E09BA38AA31DA21CA223E3A7
:101F400032E33FA32EA399A788A71BA61AA626E3D0
:101F500034E33DA72CA79FA78EA719AA18AA85E04E
:101F6000E0E6F0E0DE01D29601900D928A95E1F76D
:101F70001FAA85E0E6E6F0E0DE01D89601900D921A
:101F80008A95E1F71DAE85E0ECE6F0E0DE01DE9635
:101F900001900D928A95E1F724961FAE249786E072
:101FA000E1E9F2E0DE01AC5BBF4F01900D928A9552
:101FB000E1F78FE088BB80EF87BB61E088E992E0C2
:101FC0000E94A51266E57CE088E992E00E944D1926
:101FD00088E992E00E94D6112CEC40E060E088E9AC
:101FE00092E00E9448122CEC40E060E088E992E028
:101FF0000E948012CE0101960E94AD0D61961FAE27
:1020000061970E94E20DBE016F5F7F4FCE01029685
:102010000E94B60EB09909C081E061968FAF6197BA
:10202000CE0101960E94AD0D20C0B19909C082E099
:1020300061968FAF6197CE0101960E94AD0D15C0DC
:10204000B29909C083E061968FAF6197CE01019686
:102050000E94AD0D0AC0B39908C084E061968FAFAD
:102060006197CE0101960E94AD0DE9810F2EFBE034
:10207000DF2EF02DDE9EF0011124E253FF4EE080B2
:10208000F1800281138124813581468157816085E9
:10209000718582850E945B0EE981DE9EF00111242C
:1020A000E253FF4ECE0101965C01C080D180E280F8
:1020B000F3800481158126813781408551856285B1
:1020C000815B9F4F0E947C0D61961FAE619799CFF7
:1020D0006FEF7FEF81E090E00E94010C08958FEF99
:1020E0008ABB81BB84B3806484BB84B3806884BBB7
:1020F00084B3826084BB84B3806184BB85B3806118
:1021000085BB84B3816084BB85B3826085BB84B3A7
:10211000826084BB85B3816085BB8FEF93E20197BA
:10212000F1F700C0000085B38E7F85BB8FEF9BE683
:102130000197F1F700C0000085B3816085BB8FEF88
:102140009BE60197F1F700C0000085B38D7F85BB4A
:1021500061E070E080E00E94C00964EA78EA83E010
:102160000E94C00960E070E08CE00E94C0096CE051
:1021700078E08DE00E94C00960E07BE28EE00E9482
:10218000C00967EB70E08EE10E94C0096FE37BE25B
:1021900081E00E94C00960E076E082E00E94C00910
:1021A00060E070E080E10E94C00960E770E681E1D4
:1021B0000E94C00960E070E085E00E94C00960E014
:1021C00070E086E00E94C0096CE17FEE86E10E942B
:1021D000C00963E070E087E10E94C00963E372E038
:1021E00087E00E94C00960E070E08BE00E94C009B7
:1021F00060E070E08FE00E94C00960E070E081E480
:102200000E94C00960E070E082E40E94C00960E0C2
:1022100070E088E40E94C0096FE371E089E40E94E5
:10222000C00960E070E08AE40E94C00960E070E0EC
:102230008BE40E94C00960E07FEE84E40E94C00944
:1022400060E070E085E40E94C0096FE371E086E41D
:102250000E94C00967E077E080E30E94C00964E063
:1022600072E081E30E94C00964E072E082E30E94B0
:10227000C00962E075E083E30E94C00967E075E091
:1022800084E30E94C00964E072E085E30E94C00913
:1022900064E072E086E30E94C00962E075E087E3D3
:1022A0000E94C00962E073E08AE30E94C00962E014
:1022B00073E08BE30E94C00960E070E083E20E945B
:1022C000C00960E070E084E20E94C00960E070E84C
:1022D00085E20E94C00960E070E08FE40E94C009BE
:1022E00060E070E08EE40E94C00982E20E94AC09C6
:1022F00085B3826085BB08954FEE50E060E070E0EA
:10230000FC0145835683678370874FE351E060E0AB
:1023100070E041875287638774870E946F10089529
:10232000EF92FF920F931F93CF93DF93EB01E42E75
:10233000F52EFC014481413089F481859285A38585
:10234000B485AC01461B570B821B930B202F312FFA
:10235000042F152FCE2DDF2DE82EF92E322F222718
:10236000BE01620F731F84E40E94C0096E2D7F2D91
:1023700085E40E94C009602F712F86E40E94C00985
:10238000BE018EE40E94C0096E2D7F2D8FE40E9455
:10239000C00982E20E94AC0985B3806485BBDF91ED
:1023A000CF911F910F91FF90EF90089585B38D7F8E
:1023B00085BB60E07FEE84E40E94C00960E070E0CD
:1023C00085E40E94C0096FE371E086E40E94C009C1
:1023D00060E070E08EE40E94C00960E070E08FE48D
:1023E0000E94C00968E770E681E10E94C00982E2AC
:1023F0000E94AC0985B3806485BB1BBA12BA60E049
:102400007CE281E090E00E9463098FEF8BBB82BB8E
:1024100085B38D7F85BB0895CF93DF93D62FC72FCC
:1024200085B38D7F85BB60E07FEE84E40E94C009A8
:1024300060E070E085E40E94C0096FE371E086E42B
:102440000E94C00960E070E08EE40E94C00960E074
:1024500070E08FE40E94C00968E770E681E10E94A5
:10246000C00982E20E94AC0985B3806485BBDBBBF6
:10247000C2BB60E07CE281E090E00E9463098FEFE4
:102480008BBB82BB85B3826085BBDF91CF91089502
:10249000687F70E0762F66274C7F50E0440F551F11
:1024A000440F551F440F551F642B752B26952695F9
:1024B0002695622B0E940C120895E42FF0E0F5950A
:1024C000E795F595E795F595E795F595E795F595F4
:1024D000E795687FE62BDC01EC934C7150E0440FEC
:1024E000551F440F551F440F551F30E03595279554
:1024F0003595279535952795422B11964C93089540
:10250000E42FF0E0F595E795F595E795F595E795D6
:10251000F595E795F595E795687FE62BDC01129632
:10252000EC9312974C7150E0440F551F440F551F08
:10253000440F551F30E035952795359527953595EE
:102540002795422B13964C930895CF93DF93EC017C
:102550006C832FEF4FEF6FEF0E945D1220E040E0A1
:1025600060E0CE010E9480121E861D86DF91CF9111
:102570000895872F0E94B3090895EF92FF920F9359
:102580001F93CF93DF937C01E901DD232CF4620FCD
:10259000731FD195C195D10985B38D7F85BB9B01F3
:1025A0002C0F3D1F8A01C7010E949011F701808105
:1025B00082BB81818BBBBE01DD0F880B990B0E9412
:1025C00063098FEF8BBB82BB85B3826085BBDF91D4
:1025D000CF911F910F91FF90EF9008952F923F920E
:1025E0004F925F926F927F928F929F92AF92BF9223
:1025F000CF92DF92EF92FF920F931F93CF93DF93CF
:102600005C016B014A012617370724F48D2D6901FF
:10261000262F382F081519052CF4982D892D4801DF
:10262000092F182F39016C187D0885E06816710490
:102630000CF45FC07801E818F90885E0E816F104A9
:102640000CF457C0C0E0D0E0C701FF200CF40196A5
:10265000959587950196C817D9070CF04AC0209721
:1026600021F0C130D105D1F032C0230184E0481AF5
:1026700051089201A4014C0F5D1F160182E0280E43
:10268000311CB101C5010E94BD129201A8014C1B71
:102690005D0BB101C5010E94BD1229C0230182E07A
:1026A000481A51089201A4014C0F5D1F16018FEFCB
:1026B000281A380AB101C5010E94BD129201A80171
:1026C0004C1B5D0BB101C5010E94BD1210C09301EE
:1026D000A4014C0F5D1FB601C5010E94BD129301FC
:1026E000A8014C1B5D0BB601C5010E94BD122196CD
:1026F000ABCFDF91CF911F910F91FF90EF90DF90C3
:10270000CF90BF90AF909F908F907F906F905F9091
:102710004F903F902F900895EF92FF920F931F9349
:10272000CF93DF937C01E901DD232CF4420F531F8B
:10273000D195C195D10985B38D7F85BB8A010C0FD9
:102740001D1F9B01C7010E949011F701808182BB70
:1027500081818BBBBE01DD0F880B990B0E94630941
:102760008FEF8BBB82BB85B3826085BBDF91CF913E
:102770001F910F91FF90EF9008952F923F924F92EB
:102780005F926F927F928F929F92AF92BF92CF9201
:10279000DF92EF92FF920F931F93CF93DF933C0151
:1027A0005B01EA0149014017510729F4261B370B49
:1027B0000E94BD1242C12617370731F49801241B2D
:1027C000350B0E948C1339C1DC0114968C9114973F
:1027D000813079F419968D919D910D90BC91A02D29
:1027E0009C01261B370B8819990948018C015A0155
:1027F000E901C4018A199B097C0122F4EE24FF241B
:10280000E81AF90AC8018C1B9D0B6C0122F4CC2438
:10281000DD24C81AD90A85B38D7F85BB60E07FEEC1
:1028200084E40E94C00960E070E085E40E94C00971
:102830006FE371E086E40E94C009B5018EE40E9456
:10284000C009BE018FE40E94C009EC14FD0408F029
:1028500079C0C017D107DCF5A814B904E4F468E71F
:1028600070E681E10E94C00982E20E94AC0985B352
:10287000806485BBD3011196EC9111978C9190E007
:10288000982F88272C2F3D2FA4016A2D7B2D8E2B6E
:102890000E94D109CFC068E770E681E10E94C009BB
:1028A00082E20E94AC0985B3806485BBD301119696
:1028B000EC9111978C9190E0982F88272C2F3D2F29
:1028C000A4016A2D7B2D8E2B0E945D0AB3C0A81433
:1028D000B904E4F468E570E681E10E94C00982E28F
:1028E0000E94AC0985B3806485BBD3011196EC913D
:1028F00011978C9190E0982F88272C2F3D2FA401C1
:102900006A2D7B2D8E2B0E94170A94C068E570E615
:1029100081E10E94C00982E20E94AC0985B3806413
:1029200085BBD3011196EC9111978C9190E0982F73
:1029300088272C2F3D2FA4016A2D7B2D8E2B0E94E2
:10294000A30A78C0C017D107DCF5A814B904E4F4D1
:1029500060E770E681E10E94C00982E20E94AC0952
:1029600085B3806485BBD3011196EC9111978C914E
:1029700090E0982F88272C2F3D2FA4016A2D7B2DC6
:102980008E2B0E94E90A56C060E670E681E10E9443
:10299000C00982E20E94AC0985B3806485BBD30183
:1029A0001196EC9111978C9190E0982F88272C2FFD
:1029B0003D2FA4016A2D7B2D8E2B0E94750B3AC0F2
:1029C000A814B904E4F460E570E681E10E94C0094E
:1029D00082E20E94AC0985B3806485BBD301119665
:1029E000EC9111978C9190E0982F88272C2F3D2FF8
:1029F000A4016A2D7B2D8E2B0E942F0B1BC060E63D
:102A000070E681E10E94C00982E20E94AC0985B3B0
:102A1000806485BBD3011196EC9111978C9190E065
:102A2000982F88272C2F3D2FA4016A2D7B2D8E2BCC
:102A30000E94BB0B85B3826085BBDF91CF911F9154
:102A40000F91FF90EF90DF90CF90BF90AF909F904D
:102A50008F907F906F905F904F903F902F90089550
:102A6000AF92BF92CF92DF92EF92FF920F931F939C
:102A7000CF93DF93EC017A01890185B38D7F85BB0C
:102A80008C81811169C02989862F90E0821B910970
:102A90004F85542F569556955695288930E0529F6C
:102AA000B001539F700D1124869F6001879FD00C49
:102AB000969FD00C112484E0C80ED11CC701840F4E
:102AC000911D200F311F590141E0A41AB10860E0A7
:102AD00070E07FEF780F6E0D7F1D84E40E94C009C7
:102AE000B80185E40E94C009B50186E40E94C009CE
:102AF000B7018EE40E94C009B8018FE40E94C009AA
:102B000060E770E681E10E94C00982E20E94AC09A0
:102B100085B3806485BB2A8130E0322F22278B81E8
:102B2000282B488150E0542F44278981482B6D85FC
:102B30007E856C0D7D1D88899F85899FC00111242C
:102B400099230CF407969595879595958795959576
:102B500087950E94D4086FC02989862F90E0821B38
:102B600091094F85542F569556955695288930E0F2
:102B7000529FB001539F700D1124869F6001879F63
:102B8000D00C969FD00C112484E0C80ED11CC70134
:102B9000840F911D0197200F311F49855A856B8540
:102BA0007C855A01AE18BF087A01E81AF90A60E07C
:102BB00070E07FEF720F600F711F84E40E94C00904
:102BC000B70185E40E94C009B50186E40E94C009EE
:102BD000B8018EE40E94C009B5018FE40E94C009CB
:102BE00068E570E681E10E94C00982E20E94AC09BA
:102BF00085B3806485BB2A8130E0322F22278B8108
:102C0000282B488150E0542F44278981482B6D851B
:102C10007E856C0D7D1D88899F85899FC00111244B
:102C200099230CF407969595879595958795959595
:102C300087950E94D40885B3826085BBDF91CF91D0
:102C40001F910F91FF90EF90DF90CF90BF90AF90CA
:102C500008952F923F924F925F926F927F928F9240
:102C60009F92AF92BF92CF92DF92EF92FF920F931B
:102C70001F93CF93DF93CDB7DEB76B970FB6F89462
:102C8000DEBF0FBECDBF5C0169833A0149011F8BD6
:102C90000E8BB701FF0C880B990B0E94121A29E2C8
:102CA0003CE54FE85CE30E94DD1A698B7A8B8B8BE5
:102CB0009C8B85B38D7F85BBD50151968C91B98155
:102CC0002B2F30E0281B3109F501878586958695E5
:102CD00086959089899FC0011124289FA001299F72
:102CE000500D389F500D11249A012C5F3F4F398FA2
:102CF000288F1D8AD50150968C91BD89B81708F090
:102D0000FBC0412C512CF5018785869586958695CB
:102D1000282F30E0421653060CF0E4C00584F685F7
:102D2000E02D888D998D840D951DE80FF91F249055
:102D3000312C3A8E2B8EFA8DF83008F0CFC02F2E22
:102D4000312CB201660F771F660F771F660F771F52
:102D5000620D731DD5011F962C91EE89FF892E9F60
:102D6000C0012F9F900D1124680F791F072E000CB2
:102D7000880B990B0E94121A69837A838B839C8338
:102D800069897A898B899C890E94D5196D837E8394
:102D90008F8398879B01AC0169817A818B819C81AB
:102DA0000E94DD1A6B017C01FD896F2F70E080E0CD
:102DB00090E00E94121A69877A878B879C876989BD
:102DC0007A898B899C890E944A1B6D877E878F87B1
:102DD000988B9B01AC0169857A858B859C850E94C7
:102DE000DD1A9B01AC01C701B6010E9468196B0195
:102DF0007C01B301072C000C880B990B0E94121A5E
:102E0000A70196010E9469190E94DA196B017C01E1
:102E100029853A854B855C856D817E818F8198857A
:102E20000E94DD1A6D837E838F8398872D853E8572
:102E30004F85588969817A818B819C810E94DD1A36
:102E40009B01AC016D817E818F8198850E946919FB
:102E500069837A838B839C83B401092C000C880BD3
:102E6000990B0E94121A29813A814B815C810E9440
:102E700069190E94DA198B010F5F1F4F96012F5FAE
:102E80003F4FAB01B601C5010E94901127E030E031
:102E9000221933094B8D842F90E002C095958795B8
:102EA0002A95E2F780FF0CC0D5016C9170E0762F77
:102EB000662711968C91682BC5010E94B9120AC031
:102EC000F501628170E0762F66278381682BC5014A
:102ED0000E94B912FA8DFF5FFA8F2DCF2FEF421AA1
:102EE000520A11CF488D598D480F511D598F488F67
:102EF0005D895F5F5D8BFECE85B3826085BB6B961F
:102F00000FB6F894DEBF0FBECDBFDF91CF911F91FA
:102F10000F91FF90EF90DF90CF90BF90AF909F9078
:102F20008F907F906F905F904F903F902F9008957B
:102F30002F923F924F925F926F927F928F929F92C9
:102F4000AF92BF92CF92DF92EF92FF920F931F93B7
:102F5000CF93DF93EC01FB015A0129016801DB01EA
:102F60000D900020E9F71197A61BB70B4D018C813E
:102F700081113EC04F30574281F44D815E816F8197
:102F800078852F852A9FC0012B9F900D1124481B07
:102F9000590B5A011FEFA11AB10A2EE0A21627E21F
:102FA000B20609F061C04D815E816F8178854F5F07
:102FB0005F4F6F4F7F4F2F852A9FC0012B9F900D32
:102FC0001124092E000CAA0BBB0B8A019B01081BC4
:102FD000190B2A0B3B0BB901A80122F44F5F5F4F7D
:102FE0006F4F7F4F75956795579547955A013CC030
:102FF0004F30574281F449855A856B857C852F85F2
:103000002A9FC0012B9F900D1124481B590B5A0178
:103010002FEFA21AB20A3EE0A31637E2B30621F55B
:1030200049855A856B857C854F5F5F4F6F4F7F4F1A
:103030002F852A9FC0012B9F900D1124092E000C73
:10304000AA0BBB0B8A019B01081B190B2A0B3B0B1C
:10305000B901A80122F44F5F5F4F6F4F7F4F759505
:103060006795579547955A01612C712C681479041E
:103070003CF5C114D10499F48F85869DA001879DEC
:10308000500D11244A0D5B1D1F011FEF211A310A3B
:1030900060819201CE010E943015F1010DC01F0127
:1030A0002FEF221A320A6081760183019201A50175
:1030B000CE010E942916F1013FEF631A730AD6CFA1
:1030C000DF91CF911F910F91FF90EF90DF90CF9004
:1030D000BF90AF909F908F907F906F905F904F9038
:1030E0003F902F9008957F928F929F92AF92BF92C0
:1030F000CF92DF92EF92FF920F931F93CF93DF93C4
:103100007C01FB015A01DB010D900020E9F71197CA
:10311000A61BB70B4D01EC018C81811142C04F30D1
:10312000574289F4E7014D815E816F8178853F8543
:103130003A9FC0013B9F900D1124481B590B5A0127
:10314000DFEFAD1ABD0A8EE0A81687E2B80609F0D7
:1031500068C0E7014D815E816F8178854F5F5F4F69
:103160006F4F7F4F3F853A9FC0013B9F900D1124C9
:10317000092E000CAA0BBB0B5A016B01A81AB90A45
:10318000CA0ADB0AB601A50122F44F5F5F4F6F4FF9
:103190007F4FDB01CA01B595A795979587955C018F
:1031A00040C04F30574289F4E70149855A856B8505
:1031B0007C853F853A9FC0013B9F900D1124481BA1
:1031C000590B5A01DFEFAD1ABD0A8EE0A81687E24F
:1031D000B80639F5E70149855A856B857C854F5FCF
:1031E0005F4F6F4F7F4F3F853A9FC0013B9F900DD0
:1031F0001124092E000CAA0BBB0B5A016B01A81A53
:10320000B90ACA0ADB0AB601A50122F44F5F5F4F73
:103210006F4F7F4FDB01CA01B595A79597958795AD
:103220005C01722EC0E0D0E0C815D90544F52097A6
:1032300059F0CE01B8010E949B1B892B29F40F2E57
:10324000FCE0CF2EF02D7C0C272D30E0CE01B80114
:103250000E949B1BD7011F966C91689FA001699FDC
:10326000500D11244A0D5B1D6F01BFEFCB1ADB0A15
:103270006081C7010E9430152196F601D5CFDF91FC
:10328000CF911F910F91FF90EF90DF90CF90BF9063
:10329000AF909F908F907F900895DC011E967C9355
:1032A0006E931D97FB0184911F968C931F97319607
:1032B000E4915096EC935097FB013296E49151962D
:1032C000EC935197FB013396649152966C93089559
:1032D0005058BB27AA270E9480190C948F1A0E946D
:1032E000561A38F00E945D1A20F039F49F3F19F405
:1032F00026F40C94531A0EF4E095E7FB0C944D1A47
:10330000E92F0E94B41A58F3BA17620773078407AB
:10331000950720F079F4A6F50C94D61A0EF4E095F2
:103320000B2EBA2FA02D0B01B90190010C01CA017F
:10333000A0011124FF27591B99F0593F50F4503E2A
:1033400068F11A16F040A22F232F342F4427585F1C
:10335000F3CF469537952795A795F0405395C9F734
:103360007EF41F16BA0B620B730B840BBAF09150EC
:10337000A1F0FF0FBB1F661F771F881FC2F70EC08B
:10338000BA0F621F731F841F48F48795779567955E
:10339000B795F7959E3F08F0B0CF9395880F08F04A
:1033A0009927EE0F9795879508950E94661AE395E1
:1033B0000C94A01A0E94E1196894B1110C94D71AC8
:1033C00008950E94BC1A88F09F5798F0B92F99274A
:1033D000B751B0F0E1F0660F771F881F991F1AF000
:1033E000BA95C9F714C0B13091F00E94D61AB1E075
:1033F00008950C94D61A672F782F8827B85F39F074
:10340000B93FCCF3869577956795B395D9F73EF498
:1034100090958095709561957F4F8F4F9F4F089540
:10342000E89409C097FB3EF490958095709561955E
:103430007F4F8F4F9F4F9923A9F0F92F96E9BB2714
:103440009395F695879577956795B795F111F8CF90
:10345000FAF4BB0F11F460FF1BC06F5F7F4F8F4FFB
:103460009F4F16C0882311F096E911C0772321F0F1
:103470009EE8872F762F05C0662371F096E8862F89
:1034800070E060E02AF09A95660F771F881FDAF7E0
:10349000880F9695879597F9089597F99F6780E823
:1034A00070E060E008959FEF80EC089500240A9496
:1034B0001616170618060906089500240A9412160F
:1034C00013061406050608950C94531A0E94BC1A9C
:1034D000D8F3E894E0E0BB279F57F0F02AED3FE0F7
:1034E00049EC06C0EE0FBB0F661F771F881F28F040
:1034F000B23A62077307840728F0B25A620B730B63
:10350000840BE3959A9572F7803830F49A95BB0F47
:10351000661F771F881FD2F790480C94541B092E02
:103520000394000C11F4882352F0BB0F40F4BF2B1E
:1035300011F460FF04C06F5F7F4F8F4F9F4F08955E
:10354000EF93E0FF07C0A2EA2AED3FE049EC5FEB12
:103550000E9480190E948F1A0F90039401FC9058CA
:10356000E4E5F0E00C94601B57FD9058440F551FA4
:1035700059F05F3F71F04795880F97FB991F61F0F5
:103580009F3F79F087950895121613061406551F6C
:10359000F2CF4695F1DF08C0161617061806991FD8
:1035A000F1CF86957105610508940895E894BB27CD
:1035B00066277727CB0197F908950E94F01A0C949B
:1035C0008F1A0E94561A38F00E945D1A20F0952337
:1035D00011F00C944D1A0C94531A11240C94D71A10
:1035E0000E94B41A70F3959FC1F3950F50E0551FD8
:1035F000629FF001729FBB27F00DB11D639FAA2748
:10360000F00DB11DAA1F649F6627B00DA11D661F96
:10361000829F2227B00DA11D621F739FB00DA11DB7
:10362000621F839FA00D611D221F749F3327A00D71
:10363000611D231F849F600D211D822F762F6A2F0D
:1036400011249F5750409AF0F1F088234AF0EE0F72
:10365000FF1FBB1F661F771F881F91505040A9F79F
:103660009E3F510580F00C944D1A0C94D71A5F3F81
:10367000E4F3983ED4F3869577956795B795F795DB
:10368000E7959F5FC1F7FE2B880F911D9695879553
:1036900097F908959F930E94661A0F9007FCEE5FBA
:1036A0000C94A01A9F3F31F0915020F487957795A4
:1036B0006795B795880F911D9695879597F9089509
:1036C0009F938F937F936F93FF93EF939B01AC0135
:1036D0000E94DD1AEF91FF910E94741B2F913F9180
:1036E0004F915F910C94DD1ADF93CF931F930F934B
:1036F000FF92EF92DF927B018C01689406C0DA2E74
:10370000EF010E94F01AFE01E894A59125913591F0
:1037100045915591A6F3EF010E948019FE01970192
:10372000A801DA9469F7DF90EF90FF900F911F9155
:10373000CF91DF91089597FB072E16F4009407D0E0
:1037400077FD09D00E94AF1B07FC05D03EF4909591
:1037500081959F4F0895709561957F4F0895AA1B9D
:10376000BB1B51E107C0AA1FBB1FA617B70710F06C
:10377000A61BB70B881F991F5A95A9F7809590959E
:10378000BC01CD010895EE0FFF1F0590F491E02DCF
:063790000994F894FFCF3C
:103796003132356B00003235306B00003530306B1E
:1037A60000004E616A7665636920706C616E6574AF
:1037B6002073756E6365766F6720737573746176B3
:1037C60061206A653F0053617475726E00506C75B6
:1037D600746F6E0056656E657261004A7570697425
:1037E60065720053746F206E696A6520656C656D3D
:1037F600656E7461726E61206E65706F676F64616D
:10380600005A656D6C6A6F7472657300506F7A61E9
:103816007200476C616400506F706C6176610041A4
:103826006B6F20752073706C697475207069746194
:103836007465206B6F6C696B6F206A6520736174A9
:1038460069206920646F62696A657465206F6467C0
:103856006F766F722027506F20426F7461273F008A
:1038660031323A303020736174690031323A333084
:1038760020736174690031333A333020736174699F
:103886000031333A303020736174690053746F200D
:103896006A652063656C657374613F00476C617A85
:1038A60062656E692020696E737472756D656E74DB
:1038B600004A757A6E6F20766F6365004F72696590
:1038C6006E74616C6E69206B6F6C61630056727307
:1038D60074612020202020706A65736D65004E613A
:1038E600206B6F6A6F6A206872766174736B6F6A99
:1038F600206E6F7663616E696369207365206E6101
:103906006C617A6920736C696B61204D61726B61C1
:10391600204D6172756C6963613F0035303000324D
:1039260030300031303000313030300068005072B5
:1039360076692064616E202070726F6C6A656361BF
:1039460000507276692064616E207A696D65005058
:103956007276692064616E20206C6A65746100501D
:103966007276692064616E20206A6573656E6900EF
:103976005768696368206F662074686520666F6C97
:103986006C6F77696E6720697320636F746C653F2F
:10399600004B6C617669720053616B736F666F6E74
:1039A60000476974617275004861726D6F6E696B6C
:1039B6006100413A00423A00433A00443A002D3E43
:0839C60000313030306B0000CD
:00000001FF
