S015000050726F6A656B745572734370702E73726563D3
S11300000C9476020C949E020C949E020C949E0214
S11300100C949E020C949E020C949E020C949E02DC
S11300200C949E020C949E020C949E020C949E02CC
S11300300C949E020C949E020C949E020C949E02BC
S11300400C949E020C949E020C949E020C949E02AC
S11300500C949E0205A84CCDB2D44EB93836A902F0
S11300600C50B9918688083CA6AAAA2ABE000000B2
S1130070803F080C205F000000000000000000002A
S11300800000000020202020202000200000002864
S11300905050000000000000000000002828FC2848
S11300A050FC50500000002078A8A0603028A8F030
S11300B02000000048A8B050283454480000000034
S11300C020505078A8A8906C0000004040800000A8
S11300D000000000000000040810101010101008A8
S11300E004000040201010101010102040000000E8
S11300F00020A87070A8200000000000202020F834
S1130100202020000000000000000000000000404B
S113011040800000000000F8000000000000000023
S11301200000000000000040000000081010102033
S1130130204040408000000070888888888888704B
S1130140000000002060202020202070000000001B
S113015070888810204080F8000000007088083003
S11301600808887000000000103050509078101873
S113017000000000F88080F008088870000000008B
S1130180709080F08888887000000000F89010203B
S113019020202020000000007088887088888870E3
S11301A0000000007088888878084870000000000B
S11301B000002000000000200000000000000020DB
S11301C00000002020000004081020402010080433
S11301D0000000000000F80000F8000000000040EB
S11301E020100804081020400000000070888810C7
S11301F02020002000000000708898A8A8B880780B
S11302000000000020203050507848CC000000004E
S1130210F0484870484848F0000000007888808022
S11302208080887000000000F0484848484848F042
S113023000000000F8485070504048F800000000EA
S1130240F8485070504040E000000000384880807A
S11302509C88483000000000CC484878484848CC86
S113026000000000F8202020202020F800000000DA
S11302707C10101010101090E0000000EC4850604A
S1130280505048EC00000000E0404040404044FC36
S113029000000000D8D8D8D8A8A8A8A8000000005A
S11302A0DC486868585848E800000000708888886E
S11302B08888887000000000F0484870404040E0A2
S11302C0000000007088888888E898701800000092
S11302D0F0484870504848EC00000000788880607E
S11302E0100888F000000000F8A8202020202070CA
S11302F000000000CC48484848484830000000004E
S1130300CC4848505030202000000000A8A8A87015
S11303105050505000000000D8505020205050D869
S113032000000000D8505020202020700000000061
S1130330F8901020204048F80000003820202020A9
S113034020202020380000404040202010101008B9
S11303500000007010101010101010107000002019
S11303605000000000000000000000000000000039
S11303700000000000FC002000000000000000005D
S113038000000000000000304838483C0000000035
S1130390C040407048484870000000000000003829
S11303A04840403800000000180808384848483CD5
S11303B000000000000000304878403800000000D1
S11303C01C20207820202078000000000000003C41
S11303D04830407844380000C0404070484848ECF9
S11303E000000000200000602020207000000000B9
S11303F0100000301010101010E00000C040405CED
S1130400507048EC00000000E0202020202020F85C
S113041000000000000000F0A8A8A8A80000000048
S1130420000000F0484848EC0000000000000030E4
S11304304848483000000000000000F04848487078
S113044040E000000000003848484838081C00001C
S1130450000000D8604040E0000000000000007888
S11304604030087800000000002020702020201870
S113047000000000000000D84848483C000000008C
S1130480000000EC4850302000000000000000A8EC
S1130490A870505000000000000000D8502050D830
S11304A000000000000000EC4850302020C0000094
S11304B00000007810202078000000181010102090
S11304C01010101018001010101010101010101030
S11304D0101000602020201020202020600040A464
S11304E018000000000000000000360611241FBEA2
S11304F0CFE5D4E0DEBFCDBF10E0A0E6B0E0E6EF8C
S1130500F1E202C005900D92AE3FB107D9F721E0A8
S1130510AEEFB0E001C01D92A131B207E1F712E0E5
S1130520C6E7D2E004C02197FE010E94F310C5374C
S1130530D107C9F70E94D7050C94F9100C94000058
S1130540A5B3BA2F6894A7F9E894B7F9FB0105900D
S113055007FA1EF44BBB52BB02C02BBB32BBB5BB6C
S1130560A5BB06FA1EF44BBB52BB02C02BBB32BB6D
S1130570B5BBA5BB05FA1EF44BBB52BB02C02BBBDB
S113058032BBB5BBA5BB04FA1EF44BBB52BB02C0C5
S11305902BBB32BBB5BBA5BB03FA1EF44BBB52BB92
S11305A002C02BBB32BBB5BBA5BB02FA1EF44BBBCE
S11305B052BB02C02BBB32BBB5BBA5BB01FA1EF4B8
S11305C04BBB52BB02C02BBB32BBB5BBA5BB00FAB5
S11305D01EF44BBB52BB02C02BBB32BBB5BBA5BB8D
S11305E0815090408030910511F00C94A702089539
S11305F0A5B3BA2F6894A7F9E894B7F9FB0105905D
S113060002BA05900BBAB5BBA5BB815090408030AF
S1130610910511F00C94FF020895A5B3BA2F6894C4
S1130620A7F9E894B7F9FC01112425912030A9F029
S113063027FB56F42F77059002BA05900BBAB5BB89
S1130640A5BB2A95E1F7F1CF059002BA05900BBA44
S1130650B5BBA5BB2A95C1F7E8CF0024089522278E
S113066086957795679527957695679527957695D9
S1130670679527957695679527952295CB01E5B3E0
S1130680FE2F6894E7F9E894F7F9009711F1F5BBA8
S1130690E5BBF5BBE5BBF5BBE5BBF5BBE5BBF5BB16
S11306A0E5BBF5BBE5BBF5BBE5BBF5BBE5BBF5BB06
S11306B0E5BBF5BBE5BBF5BBE5BBF5BBE5BBF5BBF6
S11306C0E5BBF5BBE5BBF5BBE5BBF5BBE5BB0197FE
S11306D0F1F6203021F0F5BBE5BB2A95E1F708954A
S11306E0AF98AF9A6150704080409040C9F7089528
S11306F0AE9811248BBB12BAAF98AF9A0895AE9AF4
S11307006BBB82BBAF98AF9A0895AE9A11248BBB92
S113071012BAAF98AF9A0895AE9811248BBB12BA4F
S1130720AF98AF9AAE9A6BBB72BBAF98AF9A08956D
S113073082BB6BBBAF98AF9A0895CF93E5B3FE2FFE
S11307406894E7F9E894F7F98BBB92BBD601B695A8
S1130750A7950F5F1F4F02C02F5F3F4F2017310730
S113076081F1F5BBE5BBAE0DBF1DAC15BD05A0F316
S1130770AC19BD096F5F7F4F2F5F3F4FAE98C0E04C
S1130780C2BBCEE4CBBBAF98AF9AAE9A72BB6BBB85
S1130790AF98AF9AAE98C0E0C2BBCFE4CBBBAF98E2
S11307A0AF9AAE9A32BB2BBBAF98AF9AAE98C0E06B
S11307B0C2BBC2E2CBBBAF98AF9AAE9A8BBB92BB23
S11307C0CDCFCF910895CF93E5B3FE2F6894E7F989
S11307D0E894F7F98BBB92BBD601B695A795015067
S11307E0104002C0215030402017310781F1F5BB81
S11307F0E5BBAE0DBF1DAC15BD05A0F3AC19BD091D
S11308006F5F7F4F21503040AE98C0E0C2BBCEE452
S1130810CBBBAF98AF9AAE9A72BB6BBBAF98AF9A93
S1130820AE98C0E0C2BBCFE4CBBBAF98AF9AAE9A50
S113083032BB2BBBAF98AF9AAE98C0E0C2BBC2E24A
S1130840CBBBAF98AF9AAE9A8BBB92BBCDCFCF91B7
S11308500895CF93E5B3FE2F6894E7F9E894F7F988
S11308608BBB92BBD601B695A7950F5F1F4F02C0F5
S11308702F5F3F4F2017310781F1F5BBE5BBAE0D6C
S1130880BF1DAC15BD05A0F3AC19BD096150704086
S11308902F5F3F4FAE98C0E0C2BBCEE4CBBBAF9856
S11308A0AF9AAE9A72BB6BBBAF98AF9AAE98C0E0EA
S11308B0C2BBCFE4CBBBAF98AF9AAE9A32BB2BBBD3
S11308C0AF98AF9AAE98C0E0C2BBC2E2CBBBAF98C0
S11308D0AF9AAE9A8BBB92BBCDCFCF910895CF93F5
S11308E0E5B3FE2F6894E7F9E894F7F98BBB92BB64
S11308F0D601B695A7950150104002C02150304052
S11309002017310781F1F5BBE5BBAE0DBF1DAC155A
S1130910BD05A0F3AC19BD096150704021503040B1
S1130920AE98C0E0C2BBCEE4CBBBAF98AF9AAE9A50
S113093072BB6BBBAF98AF9AAE98C0E0C2BBCFE4BA
S1130940CBBBAF98AF9AAE9A32BB2BBBAF98AF9AE2
S1130950AE98C0E0C2BBC2E2CBBBAF98AF9AAE9A2E
S11309608BBB92BBCDCFCF910895CF93E5B3FE2F30
S11309706894E7F9E894F7F98BBB92BBD701B69575
S1130980A7954F5F5F4F02C06F5F7F4F6417750776
S113099081F1F5BBE5BBAC0DBD1DAE15BF05A0F3E4
S11309A0AE19BF096F5F7F4F2F5F3F4FAE98C0E016
S11309B0C2BBCEE4CBBBAF98AF9AAE9A72BB6BBB53
S11309C0AF98AF9AAE98C0E0C2BBCFE4CBBBAF98B0
S11309D0AF9AAE9A32BB2BBBAF98AF9AAE98C0E039
S11309E0C2BBC2E2CBBBAF98AF9AAE9A8BBB92BBF1
S11309F0CDCFCF910895CF93E5B3FE2F6894E7F957
S1130A00E894F7F98BBB92BBD701B695A7954F5FD6
S1130A105F4F02C06F5F7F4F6417750781F1F5BBAD
S1130A20E5BBAC0DBD1DAE15BF05A0F3AE19BF09E6
S1130A306F5F7F4F21503040AE98C0E0C2BBCEE420
S1130A40CBBBAF98AF9AAE9A72BB6BBBAF98AF9A61
S1130A50AE98C0E0C2BBCFE4CBBBAF98AF9AAE9A1E
S1130A6032BB2BBBAF98AF9AAE98C0E0C2BBC2E218
S1130A70CBBBAF98AF9AAE9A8BBB92BBCDCFCF9185
S1130A800895CF93E5B3FE2F6894E7F9E894F7F956
S1130A908BBB92BBD701B695A7954150504002C07D
S1130AA0615070406417750781F1F5BBE5BBAC0D6F
S1130AB0BD1DAE15BF05A0F3AE19BF09615070404E
S1130AC02F5F3F4FAE98C0E0C2BBCEE4CBBBAF9824
S1130AD0AF9AAE9A72BB6BBBAF98AF9AAE98C0E0B8
S1130AE0C2BBCFE4CBBBAF98AF9AAE9A32BB2BBBA1
S1130AF0AF98AF9AAE98C0E0C2BBC2E2CBBBAF988E
S1130B00AF9AAE9A8BBB92BBCDCFCF910895CF93C2
S1130B10E5B3FE2F6894E7F9E894F7F98BBB92BB31
S1130B20D701B695A7954150504002C0615070401E
S1130B306417750781F1F5BBE5BBAC0DBD1DAE15A2
S1130B40BF05A0F3AE19BF09615070402150304079
S1130B50AE98C0E0C2BBCEE4CBBBAF98AF9AAE9A1E
S1130B6072BB6BBBAF98AF9AAE98C0E0C2BBCFE488
S1130B70CBBBAF98AF9AAE9A32BB2BBBAF98AF9AB0
S1130B80AE98C0E0C2BBC2E2CBBBAF98AF9AAE9AFC
S1130B908BBB92BBCDCFCF910895019739F46F3FB2
S1130BA07F4F21F48EEF90E00E944A07089561E0A0
S1130BB08EEF90E00E94730862E770E08EEF90E0A1
S1130BC00E947D0E8EEF90E00E94A4072CEC40E082
S1130BD060E08EEF90E00E94160807E210E020E04B
S1130BE030E042E050E060E670E08EEF90E00E947A
S1130BF0A30D04E610E02BE331E044E650E060E0AE
S1130C0070E08EEF90E00E94ED0800EF10E026E91E
S1130C1030E044E650E066E970E08EEF90E00E9438
S1130C20ED080AEA10E02BE331E04AEA50E060E024
S1130C3070E08EEF90E00E94ED080FE010E022E8F3
S1130C4030E04AE050E06DED70E08EEF90E00E94FD
S1130C50A30D00E010E022E830E040EA50E06BEF42
S1130C6070E08EEF90E00E94C80CB7CF6FEF7FEF7B
S1130C7081E090E00E94CD0508958FEF8ABB81BB8F
S1130C8084B3806484BB84B3806884BB87B3886086
S1130C9087BB84B3806184BB85B3806185BB87B324
S1130CA0846087BB85B3826085BB84B3826084BB68
S1130CB088B3846088BB8FEF93E20197F1F700C09B
S1130CC0000088B38B7F88BB8FEF9BE60197F1F719
S1130CD000C0000088B3846088BB8FEF9BE6019757
S1130CE0F1F700C0000088B3877F88BB61E070E043
S1130CF080E00E948C0364EA78EA83E00E948C031B
S1130D0060E070E08CE00E948C036CE078E08DE0A1
S1130D100E948C0360E07BE28EE00E948C0367EB10
S1130D2070E08EE10E948C036FE37BE281E00E941D
S1130D308C0360E076E082E00E948C0360E070E067
S1130D4080E10E948C0360E770E681E10E948C03DD
S1130D5060E070E085E00E948C0360E070E086E073
S1130D600E948C036CE17FEE86E10E948C0363E0B9
S1130D7070E087E10E948C0363E372E087E00E94E5
S1130D808C0360E070E08BE00E948C0360E070E014
S1130D908FE00E948C0360E070E081E40E948C0389
S1130DA060E070E082E40E948C0360E070E088E41C
S1130DB00E948C036FE371E089E40E948C0360E07D
S1130DC070E08AE40E948C0360E070E08BE40E948F
S1130DD08C0360E07FEE84E40E948C0360E070E0AA
S1130DE085E40E948C036FE371E086E40E948C0327
S1130DF067E077E080E30E948C0364E072E081E3C3
S1130E000E948C0364E072E082E30E948C0362E03F
S1130E1075E083E30E948C0367E075E084E30E943D
S1130E208C0364E072E085E30E948C0364E072E06A
S1130E3086E30E948C0362E075E087E30E948C03E2
S1130E4062E073E08AE30E948C0362E073E08BE368
S1130E500E948C0360E070E083E20E948C0360E0F7
S1130E6070E084E20E948C0360E070E885E20E94F6
S1130E708C0360E070E08FE40E948C0360E070E01B
S1130E808EE40E948C0382E20E94780388B3886017
S1130E9088BB08954FEE50E060E070E0FC014583AC
S1130EA05683678370874FE351E060E070E04187C9
S1130EB05287638774870E943D060895EF92FF92DC
S1130EC00F931F93CF93DF93EB01E42EF52EFC01D8
S1130ED04481413089F481859285A385B485AC0130
S1130EE0461B570B821B930B202F312F042F152FDA
S1130EF0CE2DDF2DE82EF92E322F2227BE01620FD0
S1130F00731F84E40E948C036E2D7F2D85E40E9460
S1130F108C03602F712F86E40E948C03BE018EE443
S1130F200E948C036E2D7F2D8FE40E948C0382E23D
S1130F300E94780385B3806485BBDF91CF911F91B4
S1130F400F91FF90EF90089588B3877F88BB60E08E
S1130F507FEE84E40E948C0360E070E085E40E94EC
S1130F608C036FE371E086E40E948C0360E070E020
S1130F708EE40E948C0360E070E08FE40E948C0396
S1130F8068E770E681E10E948C0382E20E947803A4
S1130F9085B3806485BB1BBA12BA60E07CE281E051
S1130FA090E00E942F038FEF8BBB82BB88B3877FB7
S1130FB088BB0895CF93DF93D62FC72F88B3877F3D
S1130FC088BB60E07FEE84E40E948C0360E070E004
S1130FD085E40E948C036FE371E086E40E948C0335
S1130FE060E070E08EE40E948C0360E070E08FE4C7
S1130FF00E948C0368E770E681E10E948C0382E220
S11310000E94780385B3806485BBDBBBC2BB60E010
S11310107CE281E090E00E942F038FEF8BBB82BBC8
S113102088B3886088BBDF91CF910895687F70E0B2
S1131030762F66274C7F50E0440F551F440F551FF1
S1131040440F551F642B752B269526952695622BE8
S11310500E94DA070895E42FF0E0F595E795F595F9
S1131060E795F595E795F595E795F595E795687F07
S1131070E62BDC01EC934C7150E0440F551F440FF8
S1131080551F440F551F30E0359527953595279505
S113109035952795422B11964C930895E42FF0E053
S11310A0F595E795F595E795F595E795F595E79524
S11310B0F595E795687FE62BDC011296EC93129781
S11310C04C7150E0440F551F440F551F440F551FDA
S11310D030E0359527953595279535952795422BFD
S11310E013964C930895CF93DF93EC016C832FEF09
S11310F04FEF6FEF0E942B0820E040E060E0CE014C
S11311000E944E081E861D86DF91CF910895872F79
S11311100E947F030895EF92FF920F931F93CF9342
S1131120DF937C01E901DD232CF4620F731FD19559
S1131130C195D10988B3877F88BB9B012C0F3D1FC4
S11311408A01C7010E945E07F701808182BB818109
S11311508BBBBE01DD0F880B990B0E942F038FEF11
S11311608BBB82BB88B3886088BBDF91CF911F9112
S11311700F91FF90EF900895EF92FF920F931F93BA
S1131180CF93DF937C01E901DD232CF4420F531F3D
S1131190D195C195D10988B3877F88BB8A010C0F8B
S11311A01D1F9B01C7010E945E07F701808182BB5E
S11311B081818BBBBE01DD0F880B990B0E942F032D
S11311C08FEF8BBB82BB88B3886088BBDF91CF91E4
S11311D01F910F91FF90EF9008952F923F924F929D
S11311E05F926F927F928F929F92AF92BF92CF92B3
S11311F0DF92EF92FF920F931F93CF93DF933C0103
S11312005B01EA0149014017510729F4261B370BFA
S11312100E948B0842C12617370731F49801241B1A
S1131220350B0E94BC0839C1DC0114968C911497CB
S1131230813079F419968D919D910D90BC91A02DDA
S11312409C01261B370B8819990948018C015A0106
S1131250E901C4018A199B097C0122F4EE24FF24CC
S1131260E81AF90AC8018C1B9D0B6C0122F4CC24EA
S1131270DD24C81AD90A88B3877F88BB60E07FEE73
S113128084E40E948C0360E070E085E40E948C0397
S11312906FE371E086E40E948C03B5018EE40E9442
S11312A08C03BE018FE40E948C03EC14FD0408F04F
S11312B079C0C017D107DCF5A814B904E4F468E7D1
S11312C070E681E10E948C0382E20E94780385B378
S11312D0806485BBD3011196EC9111978C9190E0B9
S11312E0982F88272C2F3D2FA4016A2D7B2D8E2B20
S11312F00E949D03CFC068E770E681E10E948C03E1
S113130082E20E94780385B3806485BBD301119681
S1131310EC9111978C9190E0982F88272C2F3D2FDA
S1131320A4016A2D7B2D8E2B0E942904B3C0A8141E
S1131330B904E4F468E570E681E10E948C0382E27A
S11313400E94780385B3806485BBD3011196EC9128
S113135011978C9190E0982F88272C2F3D2FA40172
S11313606A2D7B2D8E2B0E94E30394C068E570E602
S113137081E10E948C0382E20E94780385B3806439
S113138085BBD3011196EC9111978C9190E0982F25
S113139088272C2F3D2FA4016A2D7B2D8E2B0E9494
S11313A06F0478C0C017D107DCF5A814B904E4F4BD
S11313B060E770E681E10E948C0382E20E94780378
S11313C085B3806485BBD3011196EC9111978C9100
S11313D090E0982F88272C2F3D2FA4016A2D7B2D78
S11313E08E2B0E94B50456C060E670E681E10E942F
S11313F08C0382E20E94780385B3806485BBD301A9
S11314001196EC9111978C9190E0982F88272C2FAE
S11314103D2FA4016A2D7B2D8E2B0E9441053AC0DD
S1131420A814B904E4F460E570E681E10E948C0339
S113143082E20E94780385B3806485BBD301119650
S1131440EC9111978C9190E0982F88272C2F3D2FA9
S1131450A4016A2D7B2D8E2B0E94FB041BC060E629
S113146070E681E10E948C0382E20E94780385B3D6
S1131470806485BBD3011196EC9111978C9190E017
S1131480982F88272C2F3D2FA4016A2D7B2D8E2B7E
S11314900E94870588B3886088BBDF91CF911F9134
S11314A00F91FF90EF90DF90CF90BF90AF909F90FF
S11314B08F907F906F905F904F903F902F90089502
S11314C0AF92BF92CF92DF92EF92FF920F931F934E
S11314D0CF93DF93EC017A01890188B3877F88BBBE
S11314E08C81811169C02989862F90E0821B910922
S11314F04F85542F569556955695288930E0529F1E
S1131500B001539F700D1124869F6001879FD00CFA
S1131510969FD00C112484E0C80ED11CC701840FFF
S1131520911D200F311F590141E0A41AB10860E058
S113153070E07FEF780F6E0D7F1D84E40E948C03B2
S1131540B80185E40E948C03B50186E40E948C03F3
S1131550B7018EE40E948C03B8018FE40E948C03CF
S113156060E770E681E10E948C0382E20E947803C6
S113157085B3806485BB2A8130E0322F22278B819A
S1131580282B488150E0542F44278981482B6D85AE
S11315907E856C0D7D1D88899F85899FC0011124DE
S11315A099230CF407969595879595958795959528
S11315B087950E94A0026FC02989862F90E0821B24
S11315C091094F85542F569556955695288930E0A4
S11315D0529FB001539F700D1124869F6001879F15
S11315E0D00C969FD00C112484E0C80ED11CC701E6
S11315F0840F911D0197200F311F49855A856B85F2
S11316007C855A01AE18BF087A01E81AF90A60E02D
S113161070E07FEF720F600F711F84E40E948C03EF
S1131620B70185E40E948C03B50186E40E948C0313
S1131630B8018EE40E948C03B5018FE40E948C03F0
S113164068E570E681E10E948C0382E20E947803DF
S113165085B3806485BB2A8130E0322F22278B81B9
S1131660282B488150E0542F44278981482B6D85CD
S11316707E856C0D7D1D88899F85899FC0011124FD
S113168099230CF407969595879595958795959547
S113169087950E94A00288B3886088BBDF91CF91B0
S11316A01F910F91FF90EF90DF90CF90BF90AF907C
S11316B008952F923F924F925F926F927F928F92F2
S11316C09F92AF92BF92CF92DF92EF92FF920F93CD
S11316D01F93CF93DF93CDB7DEB76B970FB6F89414
S11316E0DEBF0FBECDBF5C0169833A0149011F8B88
S11316F00E8BB701FF0C880B990B0E94420F29E255
S11317003CE54FE85CE30E940D10698B7A8B8B8B70
S11317109C8B88B3877F88BBD50151968C91B98106
S11317202B2F30E0281B3109F50187858695869596
S113173086959089899FC0011124289FA001299F23
S1131740500D389F500D11249A012C5F3F4F398F53
S1131750288F1D8AD50150968C91BD89B81708F041
S1131760FBC0412C512CF50187858695869586957D
S1131770282F30E0421653060CF0E4C00584F685A9
S1131780E02D888D998D840D951DE80FF91F249007
S1131790312C3A8E2B8EFA8DF83008F0CFC02F2ED4
S11317A0312CB201660F771F660F771F660F771F04
S11317B0620D731DD5011F962C91EE89FF892E9F12
S11317C0C0012F9F900D1124680F791F072E000C64
S11317D0880B990B0E94420F69837A838B839C83C5
S11317E069897A898B899C890E94050F6D837E8320
S11317F08F8398879B01AC0169817A818B819C815D
S11318000E940D106B017C01FD896F2F70E080E058
S113181090E00E94420F69877A878B879C87698949
S11318207A898B899C890E947A106D877E878F873D
S1131830988B9B01AC0169857A858B859C850E9478
S11318400D109B01AC01C701B6010E94980E6B01FB
S11318507C01B301072C000C880B990B0E94420FEA
S1131860A70196010E94990E0E940A0F6B017C0148
S113187029853A854B855C856D817E818F8198852C
S11318800E940D106D837E838F8398872D853E85FE
S11318904F85588969817A818B819C810E940D10C2
S11318A09B01AC016D817E818F8198850E94990E88
S11318B069837A838B839C83B401092C000C880B85
S11318C0990B0E94420F29813A814B815C810E94CD
S11318D0990E0E940A0F8B010F5F1F4F96012F5F15
S11318E03F4FAB01B601C5010E945E0727E030E01F
S11318F0221933094B8D842F90E002C0959587956A
S11319002A95E2F780FF0CC0D5016C9170E0762F28
S1131910662711968C91682BC5010E9487080AC01E
S1131920F501628170E0762F66278381682BC501FB
S11319300E948708FA8DFF5FFA8F2DCF2FEF421A8E
S1131940520A11CF488D598D480F511D598F488F18
S11319505D895F5F5D8BFECE88B3886088BB6B96C4
S11319600FB6F894DEBF0FBECDBFDF91CF911F91AC
S11319700F91FF90EF90DF90CF90BF90AF909F902A
S11319808F907F906F905F904F903F902F9008952D
S11319902F923F924F925F926F927F928F929F927B
S11319A0AF92BF92CF92DF92EF92FF920F931F9369
S11319B0CF93DF93EC01FB015A0129016801DB019C
S11319C00D900020E9F71197A61BB70B4D018C81F0
S11319D081113EC04F30574281F44D815E816F8149
S11319E078852F852A9FC0012B9F900D1124481BB9
S11319F0590B5A011FEFA11AB10A2EE0A21627E2D1
S1131A00B20609F061C04D815E816F8178854F5FB8
S1131A105F4F6F4F7F4F2F852A9FC0012B9F900DE3
S1131A201124092E000CAA0BBB0B8A019B01081B75
S1131A30190B2A0B3B0BB901A80122F44F5F5F4F2E
S1131A406F4F7F4F75956795579547955A013CC0E1
S1131A504F30574281F449855A856B857C852F85A3
S1131A602A9FC0012B9F900D1124481B590B5A012A
S1131A702FEFA21AB20A3EE0A31637E2B30621F50D
S1131A8049855A856B857C854F5F5F4F6F4F7F4FCC
S1131A902F852A9FC0012B9F900D1124092E000C25
S1131AA0AA0BBB0B8A019B01081B190B2A0B3B0BCE
S1131AB0B901A80122F44F5F5F4F6F4F7F4F7595B7
S1131AC06795579547955A01612C712C68147904D0
S1131AD03CF5C114D10499F48F85869DA001879D9E
S1131AE0500D11244A0D5B1D1F011FEF211A310AED
S1131AF060819201CE010E94600AF1010DC01F01B4
S1131B002FEF221A320A6081760183019201A50126
S1131B10CE010E94590BF1013FEF631A730AD6CF2D
S1131B20DF91CF911F910F91FF90EF90DF90CF90B5
S1131B30BF90AF909F908F907F906F905F904F90E9
S1131B403F902F9008957F928F929F92AF92BF9271
S1131B50CF92DF92EF92FF920F931F93CF93DF9375
S1131B607C01FB015A01DB010D900020E9F711977C
S1131B70A61BB70B4D01EC018C81811142C04F3083
S1131B80574289F4E7014D815E816F8178853F85F5
S1131B903A9FC0013B9F900D1124481B590B5A01D9
S1131BA0DFEFAD1ABD0A8EE0A81687E2B80609F089
S1131BB068C0E7014D815E816F8178854F5F5F4F1B
S1131BC06F4F7F4F3F853A9FC0013B9F900D11247B
S1131BD0092E000CAA0BBB0B5A016B01A81AB90AF7
S1131BE0CA0ADB0AB601A50122F44F5F5F4F6F4FAB
S1131BF07F4FDB01CA01B595A795979587955C0141
S1131C0040C04F30574289F4E70149855A856B85B6
S1131C107C853F853A9FC0013B9F900D1124481B52
S1131C20590B5A01DFEFAD1ABD0A8EE0A81687E200
S1131C30B80639F5E70149855A856B857C854F5F80
S1131C405F4F6F4F7F4F3F853A9FC0013B9F900D81
S1131C501124092E000CAA0BBB0B5A016B01A81A04
S1131C60B90ACA0ADB0AB601A50122F44F5F5F4F25
S1131C706F4F7F4FDB01CA01B595A795979587955F
S1131C805C01722EC0E0D0E0C815D90544F5209758
S1131C9059F0CE01B8010E94CB10892B29F40F2EE4
S1131CA0FCE0CF2EF02D7C0C272D30E0CE01B801C6
S1131CB00E94CB10D7011F966C91689FA001699F69
S1131CC0500D11244A0D5B1D6F01BFEFCB1ADB0AC7
S1131CD06081C7010E94600A2196F601D5CFDF9189
S1131CE0CF911F910F91FF90EF90DF90CF90BF9015
S1131CF0AF909F908F907F900895DC011E967C9307
S1131D006E931D97FB0184911F968C931F973196B8
S1131D10E4915096EC935097FB013296E4915196DE
S1131D20EC935197FB013396649152966C9308950A
S1131D305058BB27AA270E94B00E0C94BF0F0E94D4
S1131D40860F38F00E948D0F20F039F49F3F19F46C
S1131D5026F40C94830F0EF4E095E7FB0C947D0FAE
S1131D60E92F0E94E40F58F3BA1762077307840738
S1131D70950720F079F4A6F50C9406100EF4E0957E
S1131D800B2EBA2FA02D0B01B90190010C01CA0131
S1131D90A0011124FF27591B99F0593F50F4503EDC
S1131DA068F11A16F040A22F232F342F4427585FCE
S1131DB0F3CF469537952795A795F0405395C9F7E6
S1131DC07EF41F16BA0B620B730B840BBAF091509E
S1131DD0A1F0FF0FBB1F661F771F881FC2F70EC03D
S1131DE0BA0F621F731F841F48F487957795679510
S1131DF0B795F7959E3F08F0B0CF9395880F08F0FC
S1131E009927EE0F9795879508950E94960FE3956D
S1131E100C94D00F0E94110F6894B1110C94071008
S1131E2008950E94EC0F88F09F5798F0B92F9927D6
S1131E30B751B0F0E1F0660F771F881F991F1AF0B1
S1131E40BA95C9F714C0B13091F00E940610B1E000
S1131E5008950C940610672F782F8827B85F39F0FF
S1131E60B93FCCF3869577956795B395D9F73EF44A
S1131E7090958095709561957F4F8F4F9F4F0895F2
S1131E80E89409C097FB3EF4909580957095619510
S1131E907F4F8F4F9F4F9923A9F0F92F96E9BB27C6
S1131EA09395F695879577956795B795F111F8CF42
S1131EB0FAF4BB0F11F460FF1BC06F5F7F4F8F4FAD
S1131EC09F4F16C0882311F096E911C0772321F0A3
S1131ED09EE8872F762F05C0662371F096E8862F3B
S1131EE070E060E02AF09A95660F771F881FDAF792
S1131EF0880F9695879597F9089597F99F6780E8D5
S1131F0070E060E008959FEF80EC089500240A9447
S1131F101616170618060906089500240A941216C0
S1131F2013061406050608950C94830F0E94EC0F03
S1131F30D8F3E894E0E0BB279F57F0F02AED3FE0A8
S1131F4049EC06C0EE0FBB0F661F771F881F28F0F1
S1131F50B23A62077307840728F0B25A620B730B14
S1131F60840BE3959A9572F7803830F49A95BB0FF9
S1131F70661F771F881FD2F790480C948410092E8F
S1131F800394000C11F4882352F0BB0F40F4BF2BD0
S1131F9011F460FF04C06F5F7F4F8F4F9F4F089510
S1131FA0EF93E0FF07C0A2EA2AED3FE049EC5FEBC4
S1131FB00E94B00E0E94BF0F0F90039401FC905832
S1131FC0E4E5F0E00C94901057FD9058440F551F31
S1131FD059F05F3F71F04795880F97FB991F61F0A7
S1131FE09F3F79F087950895121613061406551F1E
S1131FF0F2CF4695F1DF08C0161617061806991F8A
S1132000F1CF86957105610508940895E894BB277E
S113201066277727CB0197F908950E9420100C9426
S1132020BF0F0E94860F38F00E948D0F20F0952379
S113203011F00C947D0F0C94830F11240C94071051
S11320400E94E40F70F3959FC1F3950F50E0551F64
S1132050629FF001729FBB27F00DB11D639FAA27F9
S1132060F00DB11DAA1F649F6627B00DA11D661F48
S1132070829F2227B00DA11D621F739FB00DA11D69
S1132080621F839FA00D611D221F749F3327A00D23
S1132090611D231F849F600D211D822F762F6A2FBF
S11320A011249F5750409AF0F1F088234AF0EE0F24
S11320B0FF1FBB1F661F771F881F91505040A9F751
S11320C09E3F510580F00C947D0F0C9407105F3FE8
S11320D0E4F3983ED4F3869577956795B795F7958D
S11320E0E7959F5FC1F7FE2B880F911D9695879505
S11320F097F908959F930E94960F0F9007FCEE5F47
S11321000C94D00F9F3F31F0915020F48795779530
S11321106795B795880F911D9695879597F90895BA
S11321209F938F937F936F93FF93EF939B01AC01E6
S11321300E940D10EF91FF910E94A4102F913F91E6
S11321404F915F910C940D10DF93CF931F930F93D6
S1132150FF92EF92DF927B018C01689406C0DA2E25
S1132160EF010E942010FE01E894A591259135917C
S113217045915591A6F3EF010E94B00EFE0197011F
S1132180A801DA9469F7DF90EF90FF900F911F9107
S1132190CF91DF91089597FB072E16F4009407D092
S11321A077FD09D00E94DF1007FC05D03EF490951E
S11321B081959F4F0895709561957F4F0895AA1B4F
S11321C0BB1B51E107C0AA1FBB1FA617B70710F01E
S11321D0A61BB70B881F991F5A95A9F78095909550
S11321E0BC01CD010895EE0FFF1F0590F491E02D81
S10921F00994F894FFCFEE
S11321F64F766F207372616E6A65206A652073720A
S1132206616E6A6577353636336520626173206F91
S11322166E6F2066646C626C616633326C61207426
S1132226757475206B676466676466696B6F207482
S113223661746120746F722070656F61203233346B
S113224632343333323432333433323420743467F1
S1132256687220207373736C736B6B66746B742073
S11322662C6D756D756D7575202023230041727272
S1132276727765726577657272776572776572775C
S11122866565727777726572776500420000B5
S9030000FC
