S015000050726F6A656B745572734370702E73726563D3
S11300000C942B060C9440060C9440060C94400669
S11300100C9440060C9440060C9440060C94400644
S11300200C9440060C9440060C9440060C94400634
S11300300C9440060C9440060C9440060C94400624
S11300400C9440060C9440060C9440060C94400614
S11300500C94400605A84CCDB2D44EB93836A9024A
S11300600C50B9918688083CA6AAAA2ABE000000B2
S1130070803F1010205F000000000000000000001E
S1130080000000000000000000000000000000006C
S11300900000000000000000000007000F800F8037
S11300A00F800F800F80070007000000000007008A
S11300B007000700000000000E380E380E380E3816
S11300C006300000000000000000000000000000F6
S11300D000000000000000000C300C300C307FFEEB
S11300E07FFE0C300C300C300C307FFE7FFE0C3069
S11300F00C300C3000000000024002400FF81FF8E2
S11301001A401A401FF00FF8025802581FF81FF047
S11301100240024000000000000000000E100E30FB
S11301200E7000E001C0038007000E700C700870B0
S1130130000000000000000000000F00198019807A
S113014019800F000F080F9819F818F018E019F02B
S11301500F980000000000000000070007000700DF
S11301600E0000000000000000000000000000007D
S11301700000000000000000000000F001C0038047
S113018007000E000E000E000E000700038001C0E1
S113019000F000000000000000000F00038001C018
S11301A000E0007000700070007000E001C0038087
S11301B00F00000000000000000001801188099079
S11301C007E007E03FFC3FFC07E007E009901188E7
S11301D00180000000000000000000000000018019
S11301E0018001800FF00FF0018001800180000088
S11301F000000000000000000000000000000000FB
S113020000000000000000000000000007000700DC
S113021007000E00000000000000000000000000C5
S1130220000000001FF81FF800000000000000009C
S113023000000000000000000000000000000000BA
S1130240000000000000000000000000070007009C
S11302500700000000000000000000020006000E7D
S1130260001C0038007000E001C0038007000E008D
S11302701C0000000000000000000FF01C381C7877
S11302801CF81CF81DB81DB81F381F381E381C3840
S11302900FF00000000000000000018001800380D6
S11302A01F801F80038003800380038003800380FA
S11302B01FF000000000000000000FE01C701C385C
S11302C00038007000E001C0038007000E381C38BD
S11302D01FF800000000000000000FE01C701C3834
S11302E00038007003C003C0007000381C381C7054
S11302F00FE0000000000000000000E001E003E067
S113030006E00CE018E01FF81FF800E000E000E051
S113031003F800000000000000001FF81C001C008F
S11303201C001C001FE01FF0007800381C381C70F3
S11303300FE0000000000000000003E007000E00D2
S11303401C001C001FF01FF81C381C381C381C38FB
S11303500FF000000000000000001FFC1C1C1C1C0F
S11303601C1C001C0038007000E001C003800380E6
S1130370038000000000000000000FF01C381C384F
S11303801C381F3807E007E01CF81C381C381C38E0
S11303900FF000000000000000000FF01C381C38B3
S11303A01C381C381FF80FF800380038007000E0C3
S11303B007C00000000000000000000000000380EF
S11303C0038003800000000003800380038000009A
S11303D00000000000000000000000000000038096
S11303E00380038000000000038003800380070073
S11303F00000000000000000007000E001C0038065
S113040007000E001C001C000E000700038001C042
S113041000E0007000000000000000000000000088
S11304203FFC3FFC000000003FFC3FFC00000000DC
S113043000000000000000001C000E000700038004
S113044001C000E00070007000E001C003800700FC
S11304500E001C000000000003C00FF01E781838C6
S11304600038007000E001C001C00000000001C0BD
S113047001C001C0000000000FF81C1C1C1C1C1C47
S11304801C1C1CFC1CFC1CFC1CFC1C001C001C007C
S11304901FF007F800000000000003C007E00E7022
S11304A01C381C381C381C381FF81C381C381C38E5
S11304B01C3800000000000000001FF00E380E3849
S11304C00E380E380FF00FF00E380E380E380E3886
S11304D01FF0000000000000000007F00E381C3878
S11304E01C001C001C001C001C001C001C380E38C6
S11304F007F000000000000000001FE00E700E383E
S11305000E380E380E380E380E380E380E380E707F
S11305101FE000000000000000001FF80E180E0885
S11305200E000E300FF00FF00E300E000E080E18F5
S11305301FF800000000000000001FF80E180E084D
S11305400E000E300FF00FF00E300E000E000E00F5
S11305501F00000000000000000007F00E381C38E7
S11305601C381C001C001C001CF81C381C380E38DD
S113057007F800000000000000001C701C701C70D4
S11305801C701C701FF01FF01C701C701C701C7001
S11305901C7000000000000000000FE003800380D6
S11305A0038003800380038003800380038003802F
S11305B00FE0000000000000000001FC007000706B
S11305C000700070007000703870387038703870C7
S11305D00FE000000000000000001E380E380E700E
S11305E00EE00FC00F800F800FC00EE00E700E38AB
S11305F01E3800000000000000001F000E000E0066
S11306000E000E000E000E000E000E080E180E381E
S11306101FF800000000000000001C1C1E3C1F7C92
S11306201FFC1FFC1DDC1C9C1C1C1C1C1C1C1C1CFF
S11306301C1C00000000000000001C1C1C1C1E1CD4
S11306401F1C1F9C1DDC1CFC1C7C1C3C1C1C1C1C3F
S11306501C1C000000000000000003E007F00E383E
S11306601C1C1C1C1C1C1C1C1C1C1C1C0E3807F0F9
S113067003E000000000000000001FF00E380E38F8
S11306800E380E380FF00FF00E000E000E000E00A4
S11306901F00000000000000000003E00F780E3887
S11306A01C1C1C1C1C1C1C1C1C7C1CFC0FF80FF8A8
S11306B0003800FC0000000000001FF00E380E3867
S11306C00E380E380FF00FF00E700E380E380E384C
S11306D01E3800000000000000000FF01C381C3819
S11306E01C381C000FE007F000381C381C381C387C
S11306F00FF000000000000000001FFC19CC11C422
S113070001C001C001C001C001C001C001C001C0DD
S113071007F000000000000000001C701C701C703A
S11307201C701C701C701C701C701C701C701C7065
S11307300FE000000000000000001C701C701C7022
S11307401C701C701C701C701C701C700EE007C0A8
S1130750038000000000000000001C1C1C1C1C1C6A
S11307601C1C1C1C1C9C1C9C1C9C0FF80FF8077068
S1130770077000000000000000001C701C701C705A
S11307800EE007C00380038007C00EE01C701C70DD
S11307901C7000000000000000001C701C701C7025
S11307A01C701C700EE007C003800380038003806C
S11307B00FE000000000000000001FF81C3818388B
S11307C0107000E001C0038007000E081C181C38DC
S11307D01FF8000000000000000007F007000700F9
S11307E007000700070007000700070007000700CD
S11307F007F00000000000000000100018001C00BA
S11308000E000700038001C000E000700038001CE7
S11308100007000000000000000007F000700070F6
S11308200070007000700070007000700070007044
S113083007F0000000000000018003C007E00E7014
S11308401C38000000000000000000000000000050
S11308500000000000000000000000000000000094
S11308600000000000000000000000000000000084
S113087000007FFF7FFF000000001C001C00070039
S1130880070000000000000000000000000000005D
S11308900000000000000000000000000000000054
S11308A000000FE0007000700FF01C701C701C70D2
S11308B00FD800000000000000001E000E000E0013
S11308C00E000FF00E380E380E380E380E380E3873
S11308D01BF0000000000000000000000000000009
S11308E000000FE01C701C701C001C001C701C70AD
S11308F00FE0000000000000000000F8007000702D
S113090000700FF01C701C701C701C701C701C702C
S11309100FD80000000000000000000000000000EC
S113092000000FE01C701C701FF01C001C701C7079
S11309300FE0000000000000000003E007700770F3
S1130940070007001FE01FE007000700070007007B
S11309501FC00000000000000000000000000000B4
S113096000000FD81C701C701C701C700FF007F076
S113097000701C700FE0000000001E000E000E004E
S11309800E000EF00F380F380E380E380E380E38B1
S11309901E38000000000000000001C001C001C0BA
S11309A000000FC001C001C001C001C001C001C0EE
S11309B00FF80000000000000000007000700070DC
S11309C0000003F000700070007000700070007090
S11309D01C700CF007E0000000001E000E000E006A
S11309E00E000E380E700EE00FC00EE00E700E38C2
S11309F01E3800000000000000000FC001C001C04C
S1130A0001C001C001C001C001C001C001C001C0DA
S1130A100FF80000000000000000000000000000CB
S1130A2000001FF81C9C1C9C1C9C1C9C1C9C1C9C5B
S1130A301C9C0000000000000000000000000000FA
S1130A4000001FE01C701C701C701C701C701C705B
S1130A501C70000000000000000000000000000006
S1130A6000000FE01C701C701C701C701C701C704B
S1130A700FE0000000000000000000000000000083
S1130A8000001BF00E380E380E380E380E380FF0FA
S1130A900E000E001F000000000000000000000017
S1130AA000001FB038E038E038E038E038E01FE0FC
S1130AB000E000E001F00000000000000000000081
S1130AC000001EF00FF80F380E000E000E000E008E
S1130AD01F000000000000000000000000000000F3
S1130AE000000FE01C301C300F8003E018701870F9
S1130AF00FE00000000000000000000001000300FF
S1130B0007001FF0070007000700070007700770C1
S1130B1003E00000000000000000000000000000EE
S1130B2000001C701C701C701C701C701C701C70ED
S1130B300FD80000000000000000000000000000CA
S1130B4000001C701C701C701C701C700EE007C030
S1130B50038000000000000000000000000000000E
S1130B6000001C1C1C1C1C1C1C9C1C9C0FF80770EB
S1130B7007700000000000000000000000000000FA
S1130B8000001CE01CE00FC0078007800FC01CE0C1
S1130B901CE0000000000000000000000000000055
S1130BA000000E380E380E380E380E3807F003E009
S1130BB000E001C01F8000000000000000000000F1
S1130BC000001FE018E011C0038007000E201C6025
S1130BD01FE0000000000000000001F80380038013
S1130BE0038007001C001C000700038003800380AF
S1130BF001F800000000000001C001C001C001C0F4
S1130C0001C001C001C001C001C001C001C001C0D8
S1130C1001C001C00000000000001F8001C001C02D
S1130C2001C000E00038003800E001C001C001C08C
S1130C301F8000000000000000001F1C3B9C39DCEA
S1130C4038F8000000000000000000000000000070
S1130C5000000000000011241FBECFE5D4E0DEBF79
S1130C60CDBF10E0A0E6B0E0E0EBFCE102C00590EF
S1130C700D92AE36B107D9F70E943F070C94560E79
S1130C800C940000A5B3BA2F6894A7F9E894B7F9B7
S1130C90FB01059007FA1EF44BBB52BB02C02BBBF1
S1130CA032BBB5BBA5BB06FA1EF44BBB52BB02C09C
S1130CB02BBB32BBB5BBA5BB05FA1EF44BBB52BB69
S1130CC002C02BBB32BBB5BBA5BB04FA1EF44BBBA5
S1130CD052BB02C02BBB32BBB5BBA5BB03FA1EF48F
S1130CE04BBB52BB02C02BBB32BBB5BBA5BB02FA8C
S1130CF01EF44BBB52BB02C02BBB32BBB5BBA5BB66
S1130D0001FA1EF44BBB52BB02C02BBB32BBB5BBBA
S1130D10A5BB00FA1EF44BBB52BB02C02BBB32BBBB
S1130D20B5BBA5BB815090408030910511F00C9467
S1130D3049060895A5B3BA2F6894A7F9E894B7F9BA
S1130D40FB01059002BA05900BBAB5BBA5BB815057
S1130D5090408030910511F00C94A1060895A5B33C
S1130D60BA2F6894A7F9E894B7F9FC0111242591E6
S1130D702030A9F027FB56F42F77059002BA05908E
S1130D800BBAB5BBA5BB2A95E1F7F1CF059002BA22
S1130D9005900BBAB5BBA5BB2A95C1F7E8CF0024D3
S1130DA00895222786957795679527957695679573
S1130DB02795769567952795769567952795229536
S1130DC0CB01E5B3FE2F6894E7F9E894F7F90097AF
S1130DD011F1F5BBE5BBF5BBE5BBF5BBE5BBF5BB6D
S1130DE0E5BBF5BBE5BBF5BBE5BBF5BBE5BBF5BBBF
S1130DF0E5BBF5BBE5BBF5BBE5BBF5BBE5BBF5BBAF
S1130E00E5BBF5BBE5BBF5BBE5BBF5BBE5BBF5BB9E
S1130E10E5BB0197F1F6203021F0F5BBE5BB2A953F
S1130E20E1F70895AF98AF9A6150704080409040C8
S1130E30C9F70895AE9811248BBB12BAAF98AF9A34
S1130E400895AE9A6BBB82BBAF98AF9A0895AE9AE1
S1130E5011248BBB12BAAF98AF9A0895AE9811249F
S1130E608BBB12BAAF98AF9AAE9A6BBB72BBAF98FA
S1130E70AF9A089582BB6BBBAF98AF9A0895CF9396
S1130E80DF93CDB7DEB763970FB6F894DEBF0FBE1E
S1130E90CDBF8FE784BFCE0101960E945E0861E05A
S1130EA0CE0101960E94710862E770E0CE010196BE
S1130EB00E94C70BCE0101960E94B50802E010E023
S1130EC02AE030E04AE050E060E670E0CE010196AE
S1130ED00E941E0BF3CF8FEF8ABB81BBA69AA79A01
S1130EE0BB9AA49AAC9ABA9AA99AA19AC29A8FEF79
S1130EF093E20197F1F700C00000C2988FEF9BE6E0
S1130F000197F1F700C00000C29A8FEF9BE60197AA
S1130F10F1F700C00000C39861E070E080E00E9437
S1130F202E0764EA78EA83E00E942E0760E070E00E
S1130F308CE00E942E076CE078E08DE00E942E0782
S1130F4060E07BE28EE00E942E0767EB70E08EE1AA
S1130F500E942E076FE37BE281E00E942E0760E08F
S1130F6076E082E00E942E0760E070E080E10E945B
S1130F702E0760E770E681E10E942E0760E070E0D2
S1130F8085E00E942E0760E070E086E00E942E0754
S1130F906CE17FEE86E10E942E0763E070E087E15A
S1130FA00E942E0763E372E087E00E942E0760E050
S1130FB070E08BE00E942E0760E070E08FE00E94FA
S1130FC02E0760E070E081E40E942E0760E070E08C
S1130FD082E40E942E0760E070E088E40E942E07FD
S1130FE06FE371E089E40E942E0760E070E08AE418
S1130FF00E942E0760E070E08BE40E942E0760E000
S11310007FEE84E40E942E0760E070E085E40E9495
S11310102E076FE371E086E40E942E0767E077E015
S113102080E30E942E0764E072E081E30E942E07B1
S113103064E072E082E30E942E0762E075E083E3DD
S11310400E942E0767E075E084E30E942E0764E0A7
S113105072E085E30E942E0764E072E086E30E945A
S11310602E0762E075E087E30E942E0762E073E0DA
S11310708AE30E942E0762E073E08BE30E942E074E
S113108060E070E083E20E942E0760E070E084E29A
S11310900E942E0760E070E885E20E942E0760E05F
S11310A070E08FE40E942E0760E070E08EE40E94FE
S11310B02E0782E20E941A07C39A08954FEE50E069
S11310C060E070E0FC0145835683678370874FE3DB
S11310D051E060E070E041875287638774870C9425
S11310E06B07FC0164838FEF8083818312821382F8
S11310F0168615860895EF92FF920F931F93CF9350
S1131100DF93EB017A01FC014481413059F44185BC
S11311105285CA01821B930B98018A01061B170B87
S1131120E7017C01322F2227B9016C0F7D1F84E473
S11311300E942E07B70185E40E942E07B80186E4B9
S11311400E942E07BE018EE40E942E07B7018FE491
S11311500E942E0782E20E941A07AE9ADF91CF9175
S11311601F910F91FF90EF900895C39860E07FEE78
S113117084E40E942E0760E070E085E40E942E075C
S11311806FE371E086E40E942E0760E070E08EE475
S11311900E942E0760E070E08FE40E942E0768E74B
S11311A070E681E10E942E0782E20E941A07AE9A3D
S11311B01BBA12BA60E07CE281E090E00E94D106A2
S11311C08FEF8BBB82BBC3980895872F0C942107A4
S11311D09F92AF92BF92CF92DF92EF92FF920F93C2
S11311E01F93CF93DF93EC018A017901C3982C817B
S11311F08F85988870E09989211136C0282F26950B
S113120026952695691B7109299D90011124629FD9
S11312106001639FD00C729FD00C112494E0C90E1E
S1131220D11CBA01680F711D61507109762F6627B0
S1131230640F751F84E40E942E07B70185E40E94A1
S11312402E07B701690D711D6150710986E40E9472
S11312502E07B8018EE40E942E07B7018FE40E9486
S11312602E0760E770E63EC0282F26952695269522
S1131270691B7109299D90011124629F6001639F7C
S1131280D00C729FD00C112494E0C90ED11C298576
S11312903A855901A41AB50A080F111D0150110904
S11312A0C901801B910B8C01B701690D711D61503F
S11312B07109762F66276E0D7F1D84E40E942E0728
S11312C0B80185E40E942E07B50186E40E942E072A
S11312D0B7018EE40E942E07B5018FE40E942E0709
S11312E068E570E681E10E942E0782E20E941A07F7
S11312F0AE9A88899F852A813B813227232732270A
S1131300488159815427452754276D857E856C0D66
S11313107D1D899FC0011124E3E095958795EA9589
S1131320E1F70E944206C39ADF91CF911F910F917A
S1131330FF90EF90DF90CF90BF90AF909F90089573
S11313402F923F924F925F926F927F928F929F92D1
S1131350AF92BF92CF92DF92EF92FF920F931F93BF
S1131360CF93DF93CDB7DEB7AB970FB6F894DEBF5C
S11313700FBECDBF9BA78AA7762E4A0159011B8FAA
S11313800A8FB701FF0C880B990B0E948C0C29E281
S11313903CE54FE85CE30E94570D6B017C01C39868
S11313A0AAA5BBA51F968C911F97869586958695B1
S11313B050969C915097272D30E051964C91241BC8
S11313C03109899FC0011124289FA001299F500D34
S11313D0389F500D1124FA013496FD83EC831B824F
S11313E0C401990CAA0BBB0B8AA39BA3ACA3BDA3FA
S11313F0C501BB0CAA0BBB0B8EA39FA3A8A7B9A7BF
S1131400AAA5BBA550968C91BB81B81708F0FCC067
S113141019861886212C312C8B2F90E0A0E0B0E0A7
S11314208E8F9F8FA8A3B9A3AAA5BBA51F968C9145
S11314301F9786958695869590E0281639060CF0B8
S1131440D9C01D96ED91FC911E978C819D81820DD2
S1131450931DE80FF91F7490C701B6010E944F0C49
S11314606A877B878C879D876E8D7F8D88A199A1E4
S11314700E948C0C4B015C01C701B6010E94C40D93
S11314806E877F87888B998B9B01AC01C501B40162
S11314900E94570D6A8B7B8B8C8B9D8BA5019401CD
S11314A06A857B858C859D850E94570D6E8B7F8B0D
S11314B0888F998FE885F985FF83EE8327E030E0F4
S11314C03A832983872D90E09D8F8C8FAAA5BBA595
S11314D01F968C91EA8DFB8D8E9FB0018F9F700DAE
S11314E011242E813F81620F731F072E000C880B7D
S11314F0990B0E948C0C2B013C012A853B854C8561
S11315005D850E94570D2A893B894C895D890E941B
S1131510E20B4B015C016AA17BA18CA19DA10E94FD
S11315208C0C9B01AC01C501B4010E94E30B0E9429
S1131530540C4B015C012E853F8548895989C301B0
S1131540B2010E94570D2E893F89488D598D0E9402
S1131550E30B2B013C016EA17FA188A599A50E94F4
S11315608C0C9B01AC01C301B2010E94E30B0E94ED
S1131570540C8B010F5F1F4F94012F5F3F4FAB0142
S1131580B4018AA59BA50E947B088C8D9D8D098042
S113159002C0959587950A94E2F780FF0AC0AAA530
S11315A0BBA56D917C911197762767277627CD018E
S11315B008C0EAA5FBA56281738176276727762791
S11315C0CF010E94E5082E813F812F5F3F4F3F836B
S11315D02E8389819A8101979A838983019609F0E0
S11315E075CFBFEF2B1A3B0AE885F9853896F98742
S11315F0E8871ACF2C813D81280F391F3D832C8326
S11316003B813F5F3B83FCCEC39AAB960FB6F89405
S1131610DEBF0FBECDBFDF91CF911F910F91FF9021
S1131620EF90DF90CF90BF90AF909F908F907F907E
S11316306F905F904F903F902F9008952F923F921C
S11316404F925F926F927F928F929F92AF92BF92CE
S1131650CF92DF92EF92FF920F931F93CF93DF937A
S11316606C012B01EA0139011801FB0101900020F2
S1131670E9F731975F01A61AB70AFC018481811149
S113168019C04F30574261F4F601C581D6812196C5
S113169027852A9DC0012B9D900D1124C81BD90BB1
S11316A0CE30F7E2DF07C1F5F60185819681A78187
S11316B0B08518C04F30574261F4F601C185D28518
S11316C0219627852A9DC0012B9D900D1124C81BAE
S11316D0D90BCE30F7E2DF07F9F4F6018185928564
S11316E0A385B4850196A11DB11D27852A9D80017E
S11316F02B9D100D1124012E000C220B330BBC0169
S1131700CD01601B710B820B930B22E030E040E0B3
S113171050E00E94370EE901812C912C8A149B041D
S11317201CF52114310481F4F6018785889DA001FC
S1131730899D500D11244C0F5D1F9301F2016081AE
S1131740C6010E94E80809C0710184019301AE0139
S1131750F2016081C6010E94A009FFEF8F1A9F0A5F
S11317608FEF481A580ADACFDF91CF911F910F916A
S1131770FF90EF90DF90CF90BF90AF909F908F90AD
S11317807F906F905F904F903F902F900895DC0171
S11317901E967C936E931D97FB0184911F968C93E8
S11317A01F973196E4915096EC935097FB01329633
S11317B0E4915196EC935197FB01339664915296C0
S11317C06C9308955058BB27AA270E94FA0B0C94D7
S11317D0090D0E94D00C38F00E94D70C20F039F487
S11317E09F3F19F426F40C94CD0C0EF4E095E7FB1E
S11317F00C94C70CE92F0E942E0D58F3BA176207F8
S113180073078407950720F079F4A6F50C94500D1E
S11318100EF4E0950B2EBA2FA02D0B01B901900107
S11318200C01CA01A0011124FF27591B99F0593F4B
S113183050F4503E68F11A16F040A22F232F342F93
S11318404427585FF3CF469537952795A795F040E1
S11318505395C9F77EF41F16BA0B620B730B840BF6
S1131860BAF09150A1F0FF0FBB1F661F771F881FAE
S1131870C2F70EC0BA0F621F731F841F48F4879506
S113188077956795B795F7959E3F08F0B0CF9395F8
S1131890880F08F09927EE0F9795879508950E9471
S11318A0E00CE3950C941A0D0E945B0C6894B11142
S11318B00C94510D08950E94360D88F09F5798F0AE
S11318C0B92F9927B751B0F0E1F0660F771F881F41
S11318D0991F1AF0BA95C9F714C0B13091F00E945B
S11318E0500DB1E008950C94500D672F782F882780
S11318F0B85F39F0B93FCCF3869577956795B39582
S1131900D9F73EF490958095709561957F4F8F4FF0
S11319109F4F0895E89409C097FB3EF490958095F5
S1131920709561957F4F8F4F9F4F9923A9F0F92FA1
S113193096E9BB279395F695879577956795B7951F
S1131940F111F8CFFAF4BB0F11F460FF1BC06F5F05
S11319507F4F8F4F9F4F16C0882311F096E911C017
S1131960772321F09EE8872F762F05C0662371F038
S113197096E8862F70E060E02AF09A95660F771F4C
S1131980881FDAF7880F9695879597F9089597F940
S11319909F6780E870E060E008959FEF80EC089511
S11319A000240A941616170618060906089500243A
S11319B00A94121613061406050608950C94CD0C09
S11319C00E94360DD8F3E894E0E0BB279F57F0F06F
S11319D02AED3FE049EC06C0EE0FBB0F661F771FF0
S11319E0881F28F0B23A62077307840728F0B25AB6
S11319F0620B730B840BE3959A9572F7803830F47D
S1131A009A95BB0F661F771F881FD2F790480C94D6
S1131A10CE0D092E0394000C11F4882352F0BB0F51
S1131A2040F4BF2B11F460FF04C06F5F7F4F8F4FF2
S1131A309F4F0895EF93E0FF07C0A2EA2AED3FE02D
S1131A4049EC5FEB0E94FA0B0E94090D0F9003947E
S1131A5001FC9058E4E5F0E00C94DA0D57FD905841
S1131A60440F551F59F05F3F71F04795880F97FB5E
S1131A70991F61F09F3F79F0879508951216130618
S1131A801406551FF2CF4695F1DF08C01616170647
S1131A901806991FF1CF869571056105089408957C
S1131AA0E894BB2766277727CB0197F908950E940E
S1131AB06A0D0C94090D0E94D00C38F00E94D70CCA
S1131AC020F0952311F00C94C70C0C94CD0C112428
S1131AD00C94510D0E942E0D70F3959FC1F3950F38
S1131AE050E0551F629FF001729FBB27F00DB11D9E
S1131AF0639FAA27F00DB11DAA1F649F6627B00D2E
S1131B00A11D661F829F2227B00DA11D621F739F16
S1131B10B00DA11D621F839FA00D611D221F749F24
S1131B203327A00D611D231F849F600D211D822F6B
S1131B30762F6A2F11249F5750409AF0F1F0882392
S1131B404AF0EE0FFF1FBB1F661F771F881F9150BF
S1131B505040A9F79E3F510580F00C94C70C0C949B
S1131B60510D5F3FE4F3983ED4F3869577956795DE
S1131B70B795F795E7959F5FC1F7FE2B880F911DE9
S1131B809695879597F908959F930E94E00C0F907E
S1131B9007FCEE5F0C941A0D9F3F31F0915020F436
S1131BA0879577956795B795880F911D9695879535
S1131BB097F908959F938F937F936F93FF93EF9378
S1131BC09B01AC010E94570DEF91FF910E94EE0D15
S1131BD02F913F914F915F910C94570DDF93CF93C9
S1131BE01F930F93FF92EF92DF927B018C01689415
S1131BF006C0DA2EEF010E946A0DFE01E894A59159
S1131C002591359145915591A6F3EF010E94FA0B68
S1131C10FE019701A801DA9469F7DF90EF90FF9035
S1131C200F911F91CF91DF910895A1E21A2EAA1B63
S1131C30BB1BFD010DC0AA1FBB1FEE1FFF1FA21778
S1131C40B307E407F50720F0A21BB30BE40BF50B75
S1131C50661F771F881F991F1A9469F760957095FE
S1131C60809590959B01AC01BD01CF010895052E8F
S1131C7097FB1EF400940E944E0E57FD07D00E945D
S1131C80150E07FC03D04EF40C944E0E509540955F
S1131C90309521953F4F4F4F5F4F08959095809514
S1131CA0709561957F4F8F4F9F4F0895F894FFCFA4
S1111CB048656C6C6F20776F726C64210000C5
S9030000FC
